:02000002B0004C
:1040000000400B00F65F0B00000006000D000502EB
:084010000401A01800000000EB
:04401800005C0B003D
:1040200081F0004102E000BF83F0004330B54FEA69
:1040300041044FEA430594EA050F08BF90EA020FD6
:104040001FBF54EA000C55EA020C7FEA645C7FEA69
:10405000655C00F0E2804FEA5454D4EB5555B8BF8C
:104060006D420CDD2C4480EA020281EA030382EAFD
:10407000000083EA010180EA020281EA0303362D8F
:1040800088BF30BD11F0004F4FEA01314FF4801C62
:104090004CEA113102D0404261EB410113F0004F74
:1040A0004FEA03334CEA133302D0524263EB43032B
:1040B00094EA050F00F0A780A4F10104D5F1200EC9
:1040C0000DDB02FA0EFC22FA05F2801841F1000124
:1040D00003FA0EF2801843FA05F359410EE0A5F1F8
:1040E00020050EF1200E012A03FA0EFC28BF4CF029
:1040F000020C43FA05F3C01851EBE37101F00045DF
:1041000007D54FF0000EDCF1000C7EEB00006EEBEB
:104110000101B1F5801F1BD3B1F5001F0CD3490875
:104120005FEA30004FEA3C0C04F101044FEA4452CC
:1041300012F5800F80F09A80BCF1004F08BF5FEA53
:10414000500C50F1000041EB045141EA050130BD33
:104150005FEA4C0C404141EB0101013C28BFB1F545
:10416000801FE9D291F0000F04BF01460020B1FA90
:1041700081F308BF2033A3F10B03B3F120020CDA63
:104180000C3208DD02F1140CC2F10C0201FA0CF041
:1041900021FA02F10CE002F11402D8BFC2F1200CA6
:1041A00001FA02F120FA0CFCDCBF41EA0C0190405C
:1041B000E41AA2BF01EB0451294330BD6FEA0404A5
:1041C0001F3C1CDA0C340EDC04F11404C4F1200290
:1041D00020FA04F001FA02F340EA030021FA04F3A2
:1041E00045EA030130BDC4F10C04C4F1200220FAF9
:1041F00002F001FA04F340EA0300294630BD21FA37
:1042000004F0294630BD94F0000F83F4801306BFFC
:1042100081F480110134013D4EE77FEA645C18BFF0
:104220007FEA655C29D094EA050F08BF90EA020F87
:1042300005D054EA000C04BF1946104630BD91EA7F
:10424000030F1EBF0021002030BD5FEA545C05D182
:104250004000494128BF41F0004130BD14F58004C1
:104260003CBF01F5801130BD01F0004545F0FE4135
:1042700041F470014FF0000030BD7FEA645C1ABF6A
:10428000194610467FEA655C1CBF0B46024650EAA1
:10429000013406BF52EA033591EA030F41F40021CD
:1042A00030BD00BF90F0000F04BF0021704730B553
:1042B0004FF4806404F132044FF000054FF0000128
:1042C00050E700BF90F0000F04BF0021704730B5E9
:1042D0004FF4806404F1320410F0004548BF4042BE
:1042E0004FF000013EE700BF42004FEAE2014FEA13
:1042F00031014FEA02701FBF12F07F4393F07F4FEE
:1043000081F06051704732F07F4208BF704793F0F0
:104310007F4F04BF41F40021704730B54FF4607403
:1043200001F0004521F000411CE700BF50EA010206
:1043300008BF704730B54FF000050AE050EA0102AF
:1043400008BF704730B511F0004502D5404261EB1F
:1043500041014FF4806404F132045FEA915C3FF460
:10436000D8AE4FF003025FEADC0C18BF03325FEAFD
:10437000DC0C18BF033202EBDC02C2F1200300FAAE
:1043800003FC20FA02F001FA03FE40EA0E0021FAD3
:1043900002F11444BDE600BF70B54FF0FF0C4CF4C1
:1043A000E06C1CEA11541DBF1CEA135594EA0C0F73
:1043B00095EA0C0F00F0DEF82C4481EA030621EAAE
:1043C0004C5123EA4C5350EA013518BF52EA0335E9
:1043D00041F4801143F4801338D0A0FB02CE4FF09B
:1043E0000005E1FB02E506F00042E0FB03E54FF0CB
:1043F0000006E1FB03569CF0000F18BF4EF0010EC3
:10440000A4F1FF04B6F5007F64F5407404D25FEABE
:104410004E0E6D4146EB060642EAC62141EA555171
:104420004FEAC52040EA5E504FEACE2EB4F1FD0CB3
:1044300088BFBCF5E06F1ED8BEF1004F08BF5FEA31
:10444000500E50F1000041EB045170BD06F00046E3
:1044500046EA010140EA020081EA0301B4EB5C0490
:10446000C2BFD4EB0C0541EA045170BD41F4801188
:104470004FF0000E013C00F3AB8014F1360FDEBFAD
:10448000002001F0004170BDC4F10004203C35DA89
:104490000C341BDC04F11404C4F1200500FA05F30C
:1044A00020FA04F001FA05F240EA020001F00042AD
:1044B00021F0004110EBD37021FA04F642EB060123
:1044C0005EEA430E08BF20EAD37070BDC4F10C044D
:1044D000C4F1200500FA04F320FA05F001FA04F211
:1044E00040EA020001F0004110EBD37041F10001FD
:1044F0005EEA430E08BF20EAD37070BDC4F1200508
:1045000000FA05F24EEA020E20FA04F301FA05F26F
:1045100043EA020321FA04F001F0004121FA04F217
:1045200020EA020000EBD3705EEA430E08BF20EAE7
:10453000D37070BD94F0000F0FD101F00046400021
:1045400041EB010111F4801F08BF013CF7D041EAA3
:10455000060195F0000F18BF704703F000465200A7
:1045600043EB030313F4801F08BF013DF7D043EA78
:104570000603704794EA0C0F0CEA135518BF95EA2E
:104580000C0F0CD050EA410618BF52EA4306D1D1B5
:1045900081EA030101F000414FF0000070BD50EAD4
:1045A000410606BF1046194652EA430619D094EA5E
:1045B0000C0F02D150EA013613D195EA0C0F05D148
:1045C00052EA03361CBF104619460AD181EA03019C
:1045D00001F0004141F0FE4141F470014FF0000054
:1045E00070BD41F0FE4141F4780170BD70B54FF0EF
:1045F000FF0C4CF4E06C1CEA11541DBF1CEA13556F
:1046000094EA0C0F95EA0C0F00F0A7F8A4EB050450
:1046100081EA030E52EA03354FEA013100F0888047
:104620004FEA03334FF0805545EA131343EA126310
:104630004FEA022245EA111545EA10654FEA0026C5
:104640000EF000419D4208BF964244F1FD0404F57E
:10465000407402D25B084FEA3202B61A65EB0305DA
:104660005B084FEA32024FF480104FF4002CB6EB97
:10467000020E75EB030E22BFB61A754640EA0C0017
:104680005B084FEA3202B6EB020E75EB030E22BF57
:10469000B61A754640EA5C005B084FEA3202B6EB98
:1046A000020E75EB030E22BFB61A754640EA9C0057
:1046B0005B084FEA3202B6EB020E75EB030E22BF27
:1046C000B61A754640EADC0055EA060E18D04FEAE5
:1046D000051545EA16754FEA06164FEAC30343EA85
:1046E00052734FEAC2025FEA1C1CC0D111F4801F52
:1046F0000BD141EA00014FF000004FF0004CB6E74B
:1047000011F4801F04BF01430020B4F1FD0C88BFE9
:10471000BCF5E06F3FF6AFAEB5EB030C04BFB6EBF4
:10472000020C5FEA500C50F1000041EB045170BDE7
:104730000EF0004E4EEA113114EB5C04C2BFD4EB14
:104740000C0541EA045170BD41F480114FF0000E98
:10475000013C90E645EA060E8DE60CEA135594EA14
:104760000C0F08BF95EA0C0F3FF43BAF94EA0C0F17
:104770000AD150EA01347FF434AF95EA0C0F7FF48C
:1047800025AF104619462CE795EA0C0F06D152EAE0
:1047900003353FF4FDAE1046194622E750EA4106C4
:1047A00018BF52EA43067FF4C5AE50EA41047FF4D5
:1047B0000DAF52EA43057FF4EBAE12E74FEA410238
:1047C000B2F1E04324BFB3F5001CDCF1FE5C0DD96F
:1047D00001F0004C4FEAC0024CEA5070B2F1004FB9
:1047E00040EB830008BF20F00100704711F0804FBC
:1047F00021D113F13872BCBF01F00040704741F481
:1048000080114FEA5252C2F11802C2F1200C10FA84
:104810000CF320FA02F018BF40F001004FEAC12368
:104820004FEAD32303FA0CFC40EA0C0023FA02F30C
:104830004FEA4303CCE77FEA625307D150EA0133E2
:104840001EBF4FF0FE4040F44000704701F00040B2
:1048500040F0FE4040F40000704700BF034613F8EC
:10486000012B002AFBD1181A0138704709480A4960
:10487000884208B505D0094A824202D0121A01F0D6
:104880007BF90748074A0021121A01F083F9014811
:1048900008BD00BF90DE0320605F0B00F8DE032040
:1048A000F8DE0320FCDF032070B5074E074C00F054
:1048B00093FDA41BA4080025AC4200D170BD56F89E
:1048C000043B98470135F7E70C5F0B003C5F0B009A
:1048D00000F024B808B500F043F8BDE8084000F047
:1048E00033BD00F0C3BB00F0C9BB70470EB400B5C8
:1048F0008CB00DAA4FF0200C52F8041B0392CDE9A6
:1049000000120023016804AA1E20CDE904C300F0B0
:1049100009FB0CB05DF804EB03B0704770B501F013
:10492000BFF84FF4165100F023FF4FF47A7000F0F7
:10493000DFFC084E084D094C304600F0DFF940B965
:1049400020462946FFF7D2FF4FF47A7000F0D0FCE2
:10495000F2E770BDF8DE0320145C0B0044DF032097
:104960002DE9F843364D374CDFF8E490DFF8E4806A
:10497000354F364E284600F095F910EE100AFFF735
:10498000B3FC02460B4620464946FFF7AFFF2846D8
:1049900000F002F910EE100AFFF7A6FC02460B46E3
:1049A00020464146FFF7A2FF2846012100F020F9EA
:1049B00010EE100AFFF798FC0B46024639462046D7
:1049C000FFF794FF284600F053F93146024620468F
:1049D000FFF78CFF284600F065F910EE100AFFF78C
:1049E00083FC02460B4620464946FFF77FFF2846D8
:1049F00000F0D2F810EE100AFFF776FC02460B46E4
:104A000020464146FFF772FF2846012100F0F0F8EA
:104A100010EE100AFFF768FC0B46024639462046A6
:104A2000FFF764FF284600F023F93146024620468E
:104A3000FFF75CFFBDE8F8434FF47A7000F058BC14
:104A4000F8DE032044DF0320425C0B005B5C0B00BC
:104A5000275C0B00495C0B0008B501F061F8BDE86C
:104A600008400146014800F03DB900BFF8DE0320D0
:104A70000020704700207047F8B504460E461F46D8
:104A80001546DAB1017E406900F0F6FE6069036800
:104A900031469B6898470026B3B29F42606906F191
:104AA000010604D90268E95C92689047F4E700F0D7
:104AB000EBFE642000F01CFC0020F8BD0120FCE7A8
:104AC0002DE9F84304460D461F4616460AB3017EFB
:104AD000406900F0D1FE6069036829469B689847E9
:104AE000606900F0D1FE054698B95FFA87F8217E2B
:104AF0006069424600F0BDFE5FFA85F94F4505F159
:104B0000010508D9606903685B69984706F80900E0
:104B1000F2E74FF000084046BDE8F88337B5017C66
:104B20000368044609BB01911D6804230DEB0302D1
:104B3000A8479DF80730BDF804109A0202F44032ED
:104B40000A43A2601B029DF8062003F47C53134322
:104B50006360626843F243339A4219D1A0680D4BF7
:104B6000C31A5842584103B030BD5B6800219847D2
:104B70002368A0605B68012120469847830003F406
:104B80004032A368C0F30D001343A3606060E0E708
:104B90000020E8E7C000010037B5027C0368044646
:104BA000A2B901921C6804230DEB03021021A04757
:104BB0000198FFF777FB0CA3D3E90023FFF716FD5D
:104BC000FFF7FCFD00EE100A03B030BD5B68092161
:104BD0009847236805045B680821204698472843C6
:104BE000E7E700BFAFF30080000000000088C3408B
:104BF0007FB5057C03688DF807100446FDB99E68F3
:104C00000DF1070201232621B047236803951D6893
:104C100003AA04230C212046A84718B9BFEE000AB6
:104C200004B070BD0398FFF73DFB0FA3D3E9002349
:104C3000FFF7DCFCFFF7C2FD00EE100AF0E79DF87D
:104C40000720DB6806219847236807215B68204618
:104C50009847236805045B68062120469847284347
:104C6000E1E700BFAFF30080000000000088C34010
:104C700037B5027C036804464AB901921C680423D4
:104C80000DEB03021421A047019803B030BD5B680F
:104C90000B219847236805045B680A212046984742
:104CA0002843F2E713B5037C0268A3B9ADF80430DA
:104CB0001468022301AA1821A047BDF80400FFF7D9
:104CC00001FB074B0022FFF791FCFFF777FD00EE99
:104CD000100A02B010BD53680C219847EFE700BFDF
:104CE00000004E400022C0E901220274024A026024
:104CF0001D224161027670477C5C0B0010B50446B2
:104D0000406900F083FD2046BDE81040FFF706BF74
:104D100013B50446084659B10191FFF79FFD23687A
:104D20000199DB680246204602B0BDE810401847F2
:104D300002B010BD08B5024B1B689B68019308BD0B
:104D40006802030008B5024B1B685B69019308BD4C
:104D50006802030008B5024B1B689B69019308BDFC
:104D60006C02030008B5024B1B685B68019308BD29
:104D70001802030008B5024B1B685B69019308BD6C
:104D80001802030008B5024B1B685B6C019308BD59
:104D90004802030008B5024B1B685B69019308BD1C
:104DA0006402030008B5024B1B68DB68019308BD71
:104DB0003C02030008B5024B1B681B69019308BD48
:104DC0003C02030008B5024B1B685B69019308BDF8
:104DD0003C02030008B5024B1B689B69019308BDA8
:104DE0003C02030008B5024B1B68DB69019308BD58
:104DF0003C02030008B5024B1B689B6A019308BD87
:104E00003C02030008B5024B1B68DB6A019308BD36
:104E10003C02030008B5024B1B681B6C019308BDE4
:104E20003C02030008B5024B1B68DB68019308BD18
:104E30002802030008B5024B1B689B69019308BD5B
:104E40002802030008B5024B1B68DB69019308BD0B
:104E50002802030008B5024B1B681B6A019308BDBA
:104E60002802030008B5024B1B685B6A019308BD6A
:104E70002802030008B5024B1B689B6A019308BD1A
:104E80002802030008B5024B1B68DB6A019308BDCA
:104E90002802030008B5024B1B681B6B019308BD79
:104EA0002802030008B5024B1B681B6C019308BD68
:104EB0002802030008B5024B1B681B6D019308BD57
:104EC0002802030008B5024B1B681B68019308BD4C
:104ED0004C02030008B5024B1B681B69019308BD17
:104EE0004C02030008B5024B1B685B69019308BDC7
:104EF0004C02030008B5024B1B689B69019308BD77
:104F00004C02030008B5024B1B68DB69019308BD26
:104F10004C02030008B5024B1B681B6A019308BDD5
:104F20004C02030008B5024B1B685B6D019308BD82
:104F30006002030008B5024B1B685B68019308BD63
:104F40002002030008B5024B1B685B69019308BD92
:104F50002002030008B5034B1B68D3F88830019387
:104F600008BD00002002030008B5034B1B68D3F8FE
:104F70009430019308BD00002002030008B5024BE5
:104F80001B685B68019308BD4002030008B5024B33
:104F90001B689B68019308BD4002030008B5024BE3
:104FA0001B68DB68019308BD4002030008B5024B93
:104FB0001B681B69019308BD4002030008B5024B42
:104FC0001B685B69019308BD4002030008B5024BF2
:104FD0001B689B69019308BD4002030008B5024BA2
:104FE0001B68DB69019308BD4002030008B5024B52
:104FF0001B681B6A019308BD4002030008B5024B01
:105000001B681B6B019308BD4002030008B5024BEF
:105010001B685B6B019308BD4002030008B5024B9F
:105020001B681B6C019308BD4002030008B5024BCE
:105030001B685B6C019308BD4002030008B5024B7E
:105040001B685B6D019308BD4002030008B5024B6D
:105050001B689B6D019308BD4002030008B5024B1D
:105060001B68DB6B019308BD4402030008B5024BCB
:105070001B681B68019308BD1C02030008B5024BA6
:105080001B685B68019308BD1C02030008B5024B56
:105090001B681B6C019308BD1C02030008B5024B82
:1050A0001B685B6C019308BD1C02030008B5024B32
:1050B0001B689B6D019308BD1C02030008B5024BE1
:1050C0001B68DB6D019308BD1C02030000224068D1
:1050D0001146FFF78BBF002240681146FFF796BFCD
:1050E00040680022FFF78ABF4068002281F001017A
:1050F000FFF774BF002340681A461946FFF766BFE2
:10510000002340681A461946FFF758BF002240683E
:105110001146FFF74BBF002240681146FFF736BF2C
:10512000406800220221FFF739BF002340681A4679
:10513000FFF724BF024B03225A60024A1A607047ED
:1051400014DF0320945C0B00024B0022C3E9002211
:105150009A6070471CDF0320002240681146FFF769
:1051600045BF002240681146FFF750BF406800224B
:10517000FFF744BF4068002281F00101FFF72EBF16
:10518000002340681A461946FFF720BF00234068F5
:105190001A461946FFF712BF002240681146FFF772
:1051A00005BF002240681146FFF7F0BE40680022AC
:1051B0000221FFF7F3BE002340681A46FFF7DEBE68
:1051C000024B06225A60024A1A60704728DF032009
:1051D000D85C0B00054B02221A60054B054A9A6009
:1051E0000020C3E90000FFF7A5BE00BF3CDF03209D
:1051F00030DF03200000FFFF024800230360FFF7B9
:10520000C1BD00BF40DF0320F8B506460D468F182C
:105210000024BD420CD0336815F8011B9B68304652
:105220009847031E01DB1C44F3E7002C08BF1C4613
:105230002046F8BD03689B68184730B58BB0002343
:10524000012A8DF8243098BF0A2209AC0D46B1FB23
:10525000F2F101FB125303F0FF03092B94BF30332B
:105260003733DBB2AA4204F8013DEFD92146FFF7FC
:105270004FFD0BB030BD10B50446FFF77BFDE0607D
:10528000236820465B699847002808DAFFF772FD1B
:10529000E368C01AA3689842F2D34FF0FF3010BD04
:1052A0002DE9F04107460C468E180D46B542A5EB98
:1052B000040807D03846FFF7DEFF031E02DB05F8BF
:1052C000013BF3E74046BDE8F0810000014B024A94
:1052D0001A60704744DF0320145D0B00024B1A680C
:1052E000024B1A60704700BF90DE032048DF0320A6
:1052F0000021FFF727BE0000014B00229A60704793
:105300004CDF0320014B1860704700BF94DE032080
:1053100008B50B4B43B100F063F903681B6998476C
:10532000002801DDAFF30080064B43B100F0B8FB6D
:1053300003681B699847002801DDAFF3008008BDB2
:10534000000000000000000008B5FFF7E1FFFFF7D4
:1053500011FD014B186008BDE0DF03200548064A37
:10536000064908B5121A00F007FC054B054A1A60F9
:1053700008BD00BF00F4032004F40320C85F0B0045
:1053800000F403201E1C279A07B5002300931A4639
:105390006FF07701FFF7E8FD03B05DF804FB000054
:1053A00007B543880A2B08D0502B0BD1094B1B683B
:1053B0004BB103B05DF804EB1847FFF7E5FF03B00E
:1053C0005DF804FB002300931A466FF07701FFF7A6
:1053D000CBFDF4E760DF032010B512480021FFF792
:1053E0005DFE114B1A68114B9A42114B0CBF012202
:1053F00000221A7001D0FFF7B1FFFFF7B3FC04469B
:1054000000F0D0FB0B4B13B12046AFF3008000211E
:105410000848FFF723FEBDE8104007480021FFF7CA
:1054200099BD00BF05530B0000F403201E1C279AF2
:105430005CDF032000000000A1530B00704710B593
:1054400018210446FFF74FFA204610BDF0B5037D42
:10545000062B8DB00E4600F104074FF0000412D069
:1054600000F1080515F8011D0A223046FFF7E5FE98
:10547000AF42044419D0002CF4D02E213046FFF75F
:10548000D9FE0444EEE72F236A4639460A208DF8F8
:105490000040FFF77FFC6846FFF7E0F933680246FB
:1054A000DB68694630469847044620460DB0F0BD9B
:1054B00010B5054B0446112240F8043B002100F0D2
:1054C00069FB204610BD00BF3C5D0B000346074A48
:1054D00010B543F8042B01F1100251F8044B43F8C6
:1054E000044B9142F9D10A781A7010BD3C5D0B0053
:1054F00010B59DF8084044EA032343EA024242EA19
:10550000016104234160037510BD000007B5064B1F
:105510000360CB7800938B784A780978FFF7E8FF2F
:1055200003B05DF804FB00BF3C5D0B0041747047A5
:105530007047704708B50021007CFFF7DBFC40EAAC
:10554000E07008BD08B50121007CFFF7D3FC40EAFC
:10555000E07008BD08B5007CFFF7C4FC20EAE070ED
:1055600008BD08B5007CFFF7B5FC20EAE07008BD77
:1055700013B50446007C0191FFF7B4FC00280199A3
:1055800001DC607C20B1207CFFF7BCFC20EAE070ED
:1055900002B010BD007CFFF7BDBC10B5142104465D
:1055A000FFF7A1F9204610BD10B54FF47A730446F9
:1055B00008460021C4E90113044B23600123207431
:1055C00063741146FFF77EFC204610BD505D0B0052
:1055D00010B514220446002100F0DCFA204610BD6C
:1055E00010B50F4C88B003A8FFF7F2FF2178BFF386
:1055F0005B8F11F001010FD120460191FFF756FD9D
:10560000019948B103AA0748FFF7CEFF2046FFF7EC
:1056100055FD054800F0AAFA024808B010BD00BFC9
:1056200064DF032068DF032031550B00002240684F
:105630001146FFF7BBBC002240681146FFF7D6BCFD
:10564000002240681146FFF7E1BC40680022FFF7E6
:10565000D5BC4068002281F00101FFF7BFBC0023E8
:1056600040681A461946FFF7B1BC002340681A4645
:105670001946FFF7A3BC002240681146FFF786BC1D
:10568000406800220221FFF789BC002340681A46C7
:10569000FFF774BC084B10B5282422461846002199
:1056A00000F078FA054B04804FF0FF32426004228C
:1056B0005A60034A1A6010BD84DF03207CDF032098
:1056C000845D0B0070474174704708B5007CFFF79C
:1056D00091FB20EAE07008BD08B5007CFFF76AFB8B
:1056E00020EAE07008BD08B5007CFFF773FB40EAD4
:1056F000E07008BD08B5007CFFF764FB40EAE0708D
:1057000008BD007CFFF76EBB37B5457C04462DB164
:10571000207C03B0BDE83040FFF744BB007C019122
:10572000FFF768FB00280199F2DC284603B030BD82
:1057300010B514210446FFF7D6F8204610BD00002E
:1057400010B54FF47A730446084611460022C4E9A6
:105750000123044B2360012320746374FFF75AFB79
:10576000204610BDC85D0B00007C0023FFF74ABB3C
:105770000022FFF7F9BF7047F8B5064615460C46FC
:105780008F18BC4206D0336814F8011B9B68304662
:105790009847F6E72846F8BD007C0022FFF75ABB81
:1057A000007C0021FFF75EBB007C0021FFF762BB9D
:1057B000007C0021FFF766BB007C0021FFF76ABB7D
:1057C00010B514210446FFF78EF8204610BD0000E6
:1057D00038B5044615464FF47A730022C4E9012314
:1057E000094B2174084623602946FFF75BFBBF3055
:1057F00008D16B69DB0705D56868FFF73FFCE868EF
:10580000FFF73CFC204638BDFC5D0B000023007C0C
:105810001A461946FFF706BB7FB500221823CDE9CB
:105820000022ADF800300B788DF804304B680293FD
:10583000CB6803930B7A0493007C0B69059369464C
:10584000FFF738FB07B05DF804FB7FB58DF8041057
:1058500000215B1A4FF0640CCDE904C118BF01238D
:1058600001A902928DF80C30FFF7D6FF07B05DF862
:1058700004FB0123FFF7E9BF007C0022FFF7DABA3F
:10588000007C0022FFF7DEBA0121FFF7F9BF00001C
:10589000054BFF210022C3E9001201206421C3E966
:1058A00002011A61704700BFACDF0320002340688B
:1058B0001A46FFF763BB406800220221FFF76EBB68
:1058C000002240681146FFF761BB00224068114684
:1058D000FFF76CBB002340681A461946FFF76EBB02
:1058E000002340681A461946FFF770BB4068002144
:1058F000FFF794BB40680021FFF798BB4068002287
:1059000081F00101FFF76ABB40680022FFF776BB18
:10591000002240681146FFF779BB0022406811461B
:10592000FFF764BB40680021FFF790BB2DE9F0430F
:10593000002699B00D46144698460746FFF7B8FD75
:105940001C22314611A8039600F024F9B8F1000F8B
:105950002CD1402368681093049618B104A9C0B2F2
:10596000FFF7F8F9049B0093204603AB10AA00212F
:10597000FFF7E8F9044600284DD102460121686886
:10598000FFF714FB0221804622466868FFF70EFBF2
:10599000039E81462146002E3DD000293BD17368ED
:1059A000022B05D00A2B13D0F669F4E71D4BD1E783
:1059B000B8F1000FF8D071690AA804310BADFFF7F8
:1059C000A5FD0FCD3C1D0FC42B6823704146EBE7AE
:1059D000B9F1000FE8D07469102205A800F0DAF8D8
:1059E00006238DF8243005AD04F108031834186837
:1059F00059682A4603C20833A3421546F7D105A9C0
:105A00000AA80BADFFF762FD0FCD3C1D0FC42B683C
:105A100023704946C8E70398FFF78CF9384619B058
:105A2000BDE8F08340000040033803289ABF024BD2
:105A300053F8200001487047205E0B00C0DF0320B0
:105A400008B500224068FFF7F9FABDE80840FFF703
:105A5000EBBF0000024B034A1A6000225A607047F5
:105A6000C0DF0320385E0B007047000038B50446E5
:105A700014252A46002100F08DF82580402507498D
:105A800025812846258200F06FF804496060284689
:105A900000F06AF8E060204638BD00BF745E0B007D
:105AA00030B50E4D2978BFF35B8F11F0010487B03C
:105AB00011D12846FFF7FAFA68B101A8FFF7D6FF1F
:105AC00001AA21460648FFF73BFE2846FFF7F6FAF3
:105AD000044800F04BF8024807B030BDC8DF03208F
:105AE000CCDF0320695A0B007047000038B50A4B21
:105AF00003600123044643610849202000F034F884
:105B0000202560600549A560284600F02DF8C4E90D
:105B10000305204638BD00BF18000100745E0B006D
:105B200030B50E4D2978BFF35B8F11F0010487B0BB
:105B300011D12846FFF7BAFA68B16846FFF7D6FFD9
:105B40006A4621460648FFF743FE2846FFF7B6FAA5
:105B5000044800F00BF8024807B030BDE4DF032032
:105B6000E8DF0320E95A0B00FEF7BBBE0023014625
:105B70001A461846FEF7B9BE0A44914200F1FF33B7
:105B800000D1704710B511F8014B03F8014F914255
:105B9000F9D110BD02440346934200D1704703F887
:105BA000011BF9E738B5104B1D68AB6B0446B3B960
:105BB0001820FFF75BFA0246A86320B90B4B0C488C
:105BC0004221FFF763FA0B490B4BC0E900130B4B63
:105BD00083600B23838100210120C2E90401AB6BA8
:105BE00000221C615A6138BD94DE0320755E0B00F3
:105BF0008C5E0B000E33CDAB34126DE6ECDE05008F
:105C00006D480B00A9480B00D1480B00D5480B008C
:105C10000000000053656E736F7220696E69742016
:105C20006572722121210053656E736F7220576F68
:105C3000726B696E6754696D653A20252E32662055
:105C400048003120486F7572205261696E66616C40
:105C50006C3A20252E3266206D6D005261772054FB
:105C6000697070696E6720436F756E74733A202592
:105C70006C7500000000000000000000C14A0B002D
:105C8000714A0B00794A0B00754A0B0000000000B6
:105C9000000000002B510B0021510B0017510B008D
:105CA0000D510B0001510B00F5500B00ED580B008E
:105CB000F5580B00E9500B00E1500B00D7500B00DA
:105CC000CD500B00415A0B0025590B002D590B00EC
:105CD0000000000000000000B7510B00AD510B00A8
:105CE000A3510B0099510B008D510B0081510B00FA
:105CF000ED580B00F5580B0075510B006D510B0062
:105D000063510B0059510B00415A0B0025590B00F0
:105D10002D590B006170700025592D256D2D2564BE
:105D20005425483A254D3A2553257A00617363740A
:105D3000696D650000000000000000004D540B007C
:105D40003D540B003F540B00000000000000000019
:105D500033550B009B550B0071550B0009520B007E
:105D600063550B0035550B0045550B0095550B0041
:105D7000A1520B0055550B002D550B0000000000E3
:105D8000000000008B560B0081560B0077560B006D
:105D90002D560B006B560B005F560B00ED580B0099
:105DA000F5580B0053560B004B560B0041560B0099
:105DB00037560B00415A0B0025590B002D590B008B
:105DC0000000000000000000C5560B0031570B001A
:105DD00009570B0009520B00D9560B00F5560B0062
:105DE000E7560B0003570B00A1520B00C7560B00E0
:105DF000CB560B00000000000000000077570B009E
:105E0000C1570B0099570B0079570B00A1570B0096
:105E1000A9570B00B1570B00B9570B00A1520B004B
:105E200014DF03207CDF0320C0DF032028DF0320F2
:105E30000000000000000000AD580B00B7580B0038
:105E4000C1580B00CB580B00D5580B00E1580B0084
:105E5000ED580B00F5580B00FD580B0009590B00CD
:105E600011590B001B590B00415A0B0025590B000F
:105E70002D590B00005245454E54206D616C6C6FDE
:105E80006320737563636565646564002F6D6E746C
:105E90002F776F726B73706163652F776F726B739F
:105EA000706163652F4743432D31302D70697065F4
:105EB0006C696E652F6A656E6B696E732D4743431F
:105EC0002D31302D706970656C696E652D34385FC9
:105ED00032303230313132345F3136303631383071
:105EE0003634312F7372632F6E65776C69622F6E53
:105EF00065776C69622F6C6962632F7374646C6977
:105F0000622F72616E642E6300000000594A0B001C
:105F100035510B0049510B00C1510B00D5510B00FD
:105F2000F9510B00CD520B00DD520B00F9520B0062
:0C5F300095560B0091580B00555A0B00C1
:105F3C00040000001400000003000000474E550050
:105F4C00EBD2B7C1644FBB98FCC1EED99FA8E5E971
:045F5C00D6AE1FDFBF
:105F60002C5D0B0098DE0320000000000000000004
:105F70000000000000000000000000000000000021
:105F80000000000000000000000000000000000011
:105F90000000000000000000000000000000000001
:105FA00000000000000000000000000000000000F1
:105FB00000000000000000000000000000000000E1
:085FC0000000000000000000D9
:045FC80000000000D5
:105FD20000000102030405060708090A0B0C0D0E56
:105FE2000F101112131415161718191A1B1C1D1E47
:045FF2001F20280044
:045FF6007856341293
:04000003B0004020E9
:00000001FF
