:02000002B0004C
:1040000000400B0086560B00000006000D00050264
:084010000401A01800000000EB
:04401800B4520B0093
:10401C0081F0004102E000BF83F0004330B54FEA6D
:10402C0041044FEA430594EA050F08BF90EA020FDA
:10403C001FBF54EA000C55EA020C7FEA645C7FEA6D
:10404C00655C00F0E2804FEA5454D4EB5555B8BF90
:10405C006D420CDD2C4480EA020281EA030382EA01
:10406C00000083EA010180EA020281EA0303362D93
:10407C0088BF30BD11F0004F4FEA01314FF4801C66
:10408C004CEA113102D0404261EB410113F0004F78
:10409C004FEA03334CEA133302D0524263EB43032F
:1040AC0094EA050F00F0A780A4F10104D5F1200ECD
:1040BC000DDB02FA0EFC22FA05F2801841F1000128
:1040CC0003FA0EF2801843FA05F359410EE0A5F1FC
:1040DC0020050EF1200E012A03FA0EFC28BF4CF02D
:1040EC00020C43FA05F3C01851EBE37101F00045E3
:1040FC0007D54FF0000EDCF1000C7EEB00006EEBF0
:10410C000101B1F5801F1BD3B1F5001F0CD3490879
:10411C005FEA30004FEA3C0C04F101044FEA4452D0
:10412C0012F5800F80F09A80BCF1004F08BF5FEA57
:10413C00500C50F1000041EB045141EA050130BD37
:10414C005FEA4C0C404141EB0101013C28BFB1F549
:10415C00801FE9D291F0000F04BF01460020B1FA94
:10416C0081F308BF2033A3F10B03B3F120020CDA67
:10417C000C3208DD02F1140CC2F10C0201FA0CF045
:10418C0021FA02F10CE002F11402D8BFC2F1200CAA
:10419C0001FA02F120FA0CFCDCBF41EA0C01904060
:1041AC00E41AA2BF01EB0451294330BD6FEA0404A9
:1041BC001F3C1CDA0C340EDC04F11404C4F1200294
:1041CC0020FA04F001FA02F340EA030021FA04F3A6
:1041DC0045EA030130BDC4F10C04C4F1200220FAFD
:1041EC0002F001FA04F340EA0300294630BD21FA3B
:1041FC0004F0294630BD94F0000F83F4801306BF01
:10420C0081F480110134013D4EE77FEA645C18BFF4
:10421C007FEA655C29D094EA050F08BF90EA020F8B
:10422C0005D054EA000C04BF1946104630BD91EA83
:10423C00030F1EBF0021002030BD5FEA545C05D186
:10424C004000494128BF41F0004130BD14F58004C5
:10425C003CBF01F5801130BD01F0004545F0FE4139
:10426C0041F470014FF0000030BD7FEA645C1ABF6E
:10427C00194610467FEA655C1CBF0B46024650EAA5
:10428C00013406BF52EA033591EA030F41F40021D1
:10429C0030BD00BF90F0000F04BF0021704730B557
:1042AC004FF4806404F132044FF000054FF000012C
:1042BC0050E700BF90F0000F04BF0021704730B5ED
:1042CC004FF4806404F1320410F0004548BF4042C2
:1042DC004FF000013EE700BF42004FEAE2014FEA17
:1042EC0031014FEA02701FBF12F07F4393F07F4FF2
:1042FC0081F06051704732F07F4208BF704793F0F5
:10430C007F4F04BF41F40021704730B54FF4607407
:10431C0001F0004521F000411CE700BF50EA01020A
:10432C0008BF704730B54FF000050AE050EA0102B3
:10433C0008BF704730B511F0004502D5404261EB23
:10434C0041014FF4806404F132045FEA915C3FF464
:10435C00D8AE4FF003025FEADC0C18BF03325FEA01
:10436C00DC0C18BF033202EBDC02C2F1200300FAB2
:10437C0003FC20FA02F001FA03FE40EA0E0021FAD7
:10438C0002F11444BDE600BF034613F8012B002ACA
:10439C00FBD1181A0138704709480A49884208B5F8
:1043AC0005D0094A824202D0121A00F039FF0748A0
:1043BC00074A0021121A00F041FF014808BD00BF56
:1043CC00BCDE0320F0550B0024DF032024DF032088
:1043DC00FCDF032070B5074E074C00F019FCA41B42
:1043EC00A4080025AC4200D170BD56F8043B984798
:1043FC000135F7E79C550B00CC550B0000F030B89D
:10440C0008B500F055F8BDE8084000F0B9BB00F065
:10441C0049BA00F04FBA70470EB400B58CB00DAA73
:10442C004FF0200C52F8041B0392CDE9001200232C
:10443C00016804AA1E20CDE904C300F08FF90CB06A
:10444C005DF804EB03B0704708B500F0BDFEBDE8A5
:10445C0008400146014800F0B9B800BF24DF032032
:10446C0070B500F0B1FE4FF4165100F0A1FD00F054
:10447C00D7FC4FF4E13100F0C7FC4FF47A7000F038
:10448C0053FB084E084D094C304600F08DF840B9EE
:10449C0020462946FFF7C0FF4FF47A7000F044FB2A
:1044AC00F2E770BD24DF0320C8520B005CDF032051
:1044BC002DE9F843364D374CDFF8E490DFF8E48013
:1044CC00354F364E284600F071F810EE100AFFF703
:1044DC0003FF02460B4620464946FFF79DFF284640
:1044EC0000F064F810EE100AFFF7F6FE02460B46D9
:1044FC0020464146FFF790FF2846012100F05CF86A
:10450C0010EE100AFFF7E8FE0B460246394620462D
:10451C00FFF782FF284600F055F831460246204648
:10452C00FFF77AFF284600F041F810EE100AFFF76B
:10453C00D3FE02460B4620464946FFF76DFF284640
:10454C0000F034F810EE100AFFF7C6FE02460B46D8
:10455C0020464146FFF760FF2846012100F02CF869
:10456C0010EE100AFFF7B8FE0B46024639462046FD
:10457C00FFF752FF284600F025F831460246204648
:10458C00FFF74AFFBDE8F8434FF47A7000F0CCBA5D
:10459C0024DF03205CDF0320F6520B000F530B00CB
:1045AC00DB520B00FD520B00012070479FED010AFE
:1045BC00704700BF000000009FED010A704700BF6C
:1045CC00000000000020704700207047014AC0E93D
:1045DC000021704730530B0013B50446084659B1FF
:1045EC000191FFF7D1FE23680199DB680246204652
:1045FC0002B0BDE81040184702B010BD08B5024B20
:10460C001B689B68019308BD6802030008B5024B48
:10461C001B685B69019308BD6802030008B5024B77
:10462C001B689B69019308BD6C02030008B5024B23
:10463C001B685B68019308BD1802030008B5024BA8
:10464C001B685B69019308BD1802030008B5024B97
:10465C001B685B6C019308BD4802030008B5024B54
:10466C001B685B69019308BD6402030008B5024B2B
:10467C001B68DB68019308BD3C02030008B5024BC4
:10468C001B681B69019308BD3C02030008B5024B73
:10469C001B685B69019308BD3C02030008B5024B23
:1046AC001B689B69019308BD3C02030008B5024BD3
:1046BC001B68DB69019308BD3C02030008B5024B83
:1046CC001B689B6A019308BD3C02030008B5024BB2
:1046DC001B68DB6A019308BD3C02030008B5024B62
:1046EC001B681B6C019308BD3C02030008B5024B10
:1046FC001B681B68019308BD4C02030008B5024BF4
:10470C001B685B68019308BD4C02030008B5024BA3
:10471C001B681B69019308BD4C02030008B5024BD2
:10472C001B685B69019308BD4C02030008B5024B82
:10473C001B689B69019308BD4C02030008B5024B32
:10474C001B68DB69019308BD4C02030008B5024BE2
:10475C001B681B6A019308BD4C02030008B5024B91
:10476C001B685B6D019308BD6002030008B5024B2A
:10477C001B685B68019308BD2002030008B5024B5F
:10478C001B685B69019308BD2002030008B5034B4D
:10479C001B68D3F88830019308BD00002002030089
:1047AC0008B5034B1B68D3F89430019308BD000087
:1047BC002002030008B5024B1B685B68019308BD1F
:1047CC004002030008B5024B1B689B68019308BDAF
:1047DC004002030008B5024B1B68DB68019308BD5F
:1047EC004002030008B5024B1B681B69019308BD0E
:1047FC004002030008B5024B1B685B69019308BDBE
:10480C004002030008B5024B1B689B69019308BD6D
:10481C004002030008B5024B1B68DB69019308BD1D
:10482C004002030008B5024B1B681B6A019308BDCC
:10483C004002030008B5024B1B681B6B019308BDBB
:10484C004002030008B5024B1B685B6B019308BD6B
:10485C004002030008B5024B1B681B6C019308BD9A
:10486C004002030008B5024B1B685B6C019308BD4A
:10487C004002030008B5024B1B685B6D019308BD39
:10488C004002030008B5024B1B689B6D019308BDE9
:10489C004002030008B5024B1B68DB6B019308BD9B
:1048AC004402030008B5024B1B681B68019308BD4A
:1048BC001C02030008B5024B1B685B68019308BD22
:1048CC001C02030008B5024B1B681B6C019308BD4E
:1048DC001C02030008B5024B1B685B6C019308BDFE
:1048EC001C02030008B5024B1B689B6D019308BDAD
:1048FC001C02030008B5024B1B68DB6D019308BD5D
:10490C001C020300002240681146FFF78BBF0022F7
:10491C0040681146FFF796BF40680022FFF78ABF38
:10492C004068002281F00101FFF774BF002340684A
:10493C001A461946FFF766BF002340681A46194607
:10494C00FFF758BF002240681146FFF74BBF00220B
:10495C0040681146FFF736BF406800220221FFF77E
:10496C0039BF002340681A46FFF724BF024B0322CD
:10497C005A60024A1A6070472CDF032050530B0018
:10498C00024B0022C3E900229A60704734DF0320F7
:10499C00002240681146FFF745BF002240681146CF
:1049AC00FFF750BF40680022FFF744BF4068002269
:1049BC0081F00101FFF72EBF002340681A4619460B
:1049CC00FFF720BF002340681A461946FFF712BFB5
:1049DC00002240681146FFF705BF002240681146CF
:1049EC00FFF7F0BE406800220221FFF7F3BE002360
:1049FC0040681A46FFF7DEBE024B06225A60024A96
:104A0C001A60704740DF032094530B00054B0222C1
:104A1C001A60054B054A9A600020C3E90000FFF7B5
:104A2C00A5BE00BF54DF032048DF03200000FFFFBA
:104A3C00024800230360FFF709BE00BF58DF0320C4
:104A4C00F8B506460D468F180024BD420CD03368CD
:104A5C0015F8011B9B6830469847031E01DB1C446C
:104A6C00F3E7002C08BF1C462046F8BD03689B6882
:104A7C00184730B58BB00023012A8DF8243098BF2D
:104A8C000A2209AC0D46B1FBF2F101FB125303F003
:104A9C00FF03092B94BF30333733DBB2AA4204F83F
:104AAC00013DEFD92146FFF797FD0BB030BD10B596
:104ABC000446FFF7C3FDE060236820465B69984716
:104ACC00002808DAFFF7BAFDE368C01AA368984219
:104ADC00F2D34FF0FF3010BD2DE9F04107460C46E4
:104AEC008E180D46B542A5EB040807D03846FFF7E3
:104AFC00DEFF031E02DB05F8013BF3E74046BDE891
:104B0C00F0810000014B024A1A6070475CDF032001
:104B1C00D0530B00024B1A68024B1A60704700BF4F
:104B2C00BCDE032060DF03200021FFF727BE00005E
:104B3C00014B00229A60704764DF0320014B186020
:104B4C00704700BFC0DE032008B50B4B43B100F02B
:104B5C0067F903681B699847002801DDAFF30080F3
:104B6C00064B43B100F030FB03681B6998470028E3
:104B7C0001DDAFF3008008BD000000000000000064
:104B8C0008B5FFF7E1FFFFF759FD014B186008BDB1
:104B9C00F8DF03200548064A064908B5121A00F04A
:104BAC003FFB054B054A1A6008BD00BF00F403200B
:104BBC0004F4032058560B0000F403201E1C279A03
:104BCC0007B5002300931A466FF07701FFF7E8FD55
:104BDC0003B05DF804FB000007B543880A2B08D02E
:104BEC00502B0BD1094B1B684BB103B05DF804EB98
:104BFC001847FFF7E5FF03B05DF804FB00230093B3
:104C0C001A466FF07701FFF7CBFDF4E778DF03204E
:104C1C0010B512480021FFF75DFE114B1A68114BBD
:104C2C009A42114B0CBF012200221A7001D0FFF7DF
:104C3C00B1FFFFF7FBFC044600F008FB0B4B13B174
:104C4C002046AFF3008000210848FFF723FEBDE8A3
:104C5C00104007480021FFF799BD00BF494B0B00DE
:104C6C0000F403201E1C279A74DF032000000000B0
:104C7C00E54B0B00704710B518210446FFF7C9FB34
:104C8C00204610BDF0B5037D062B8DB00E4600F10D
:104C9C0004074FF0000412D000F1080515F8011DAF
:104CAC000A223046FFF7E5FEAF42044419D0002C2F
:104CBC00F4D02E213046FFF7D9FE0444EEE72F2323
:104CCC006A4639460A208DF80040FFF7C7FC684653
:104CDC00FFF75AFB33680246DB6869463046984753
:104CEC00044620460DB0F0BD10B5054B044611220C
:104CFC0040F8043B002100F0A1FA204610BD00BF93
:104D0C00F8530B000346074A10B543F8042B01F186
:104D1C00100251F8044B43F8044B9142F9D10A7834
:104D2C001A7010BDF8530B0010B59DF8084044EAFA
:104D3C00032343EA024242EA016104234160037502
:104D4C0010BD000007B5064B0360CB7800938B7841
:104D5C004A780978FFF7E8FF03B05DF804FB00BF61
:104D6C00F8530B00417470477047704708B5002129
:104D7C00007CFFF7DBFC40EAE07008BD08B50121C0
:104D8C00007CFFF7D3FC40EAE07008BD08B5007C5E
:104D9C00FFF7C4FC20EAE07008BD08B5007CFFF703
:104DAC00B5FC20EAE07008BD13B50446007C019107
:104DBC00FFF7B4FC0028019901DC607C20B1207C59
:104DCC00FFF7BCFC20EAE07002B010BD007CFFF7DE
:104DDC00BDBC10B514210446FFF71BFB204610BDCB
:104DEC0010B54FF47A73044608460021C4E9011348
:104DFC00044B23600123207463741146FFF776FC87
:104E0C00204610BD0C540B00007C0022FFF776BC32
:104E1C0010B514220446002100F010FA204610BDF3
:104E2C0010B50F4C88B003A8FFF7F2FF2178BFF341
:104E3C005B8F11F001010FD120460191FFF752FD5C
:104E4C00019948B103AA0748FFF7CAFF2046FFF7AC
:104E5C0051FD054800F0DEF9024808B010BD00BF56
:104E6C007CDF032080DF0320754D0B00002240689F
:104E7C001146FFF7B7BC002240681146FFF7D2BCC1
:104E8C00002240681146FFF7DDBC40680022FFF7A6
:104E9C00D1BC4068002281F00101FFF7BBBC0023AC
:104EAC0040681A461946FFF7ADBC002340681A4605
:104EBC001946FFF79FBC002240681146FFF782BCE1
:104ECC00406800220221FFF785BC002340681A4687
:104EDC00FFF770BC084B10B5282422461846002159
:104EEC0000F0ACF9054B04804FF0FF324260042215
:104EFC005A60034A1A6010BD9CDF032094DF032024
:104F0C0040540B0070474174704708B5007CFFF7A4
:104F1C00D5FB20EAE07008BD08B5007CFFF7AEFBBE
:104F2C0020EAE07008BD08B5007CFFF7B7FB40EA4B
:104F3C00E07008BD08B5007CFFF7A8FB40EAE07004
:104F4C0008BD007CFFF7B2BB37B5457C04462DB1DC
:104F5C00207C03B0BDE83040FFF788BB007C01919A
:104F6C00FFF7ACFB00280199F2DC284603B030BDFA
:104F7C0010B514210446FFF74CFA204610BD000072
:104F8C0010B54FF47A730446084611460022C4E962
:104F9C000123044B2360012320746374FFF79EFBF1
:104FAC00204610BD84540B00007C0023FFF78EBB01
:104FBC000022FFF7F9BF0000054BFF210022C3E9D7
:104FCC00001201206421C3E902011A61704700BF7D
:104FDC00C4DF0320002340681A46FFF7EBBB406890
:104FEC0000220221FFF7F6BB002240681146FFF7B2
:104FFC00E9BB002240681146FFF7F4BB0023406870
:10500C001A461946FFF7F6BB002340681A461946A4
:10501C00FFF7F8BB40680021FFF71CBC406800217B
:10502C00FFF720BC4068002281F00101FFF7F2BBC2
:10503C0040680022FFF7FEBB002240681146FFF7D4
:10504C0001BC002240681146FFF7ECBB4068002110
:10505C00FFF718BC2DE9F043002699B00D46144615
:10506C0098460746FFF740FE1C22314611A80396CE
:10507C0000F0E4F8B8F1000F2CD1402368681093CD
:10508C00049618B104A9C0B2FFF7C8FA049B0093A8
:10509C00204603AB10AA0021FFF7B8FA04460028FB
:1050AC004DD1024601216868FFF79CFB0221804626
:1050BC0022466868FFF796FB039E81462146002E28
:1050CC003DD000293BD17368022B05D00A2B13D09D
:1050DC00F669F4E71D4BD1E7B8F1000FF8D0716910
:1050EC000AA804310BADFFF72DFE0FCD3C1D0FC4EC
:1050FC002B6823704146EBE7B9F1000FE8D07469D7
:10510C00102205A800F09AF806238DF8243005AD7E
:10511C0004F108031834186859682A4603C2083386
:10512C00A3421546F7D105A90AA80BADFFF7EAFD76
:10513C000FCD3C1D0FC42B6823704946C8E703985C
:10514C00FFF75CFA384619B0BDE8F0834000004028
:10515C00033803289ABF024B53F8200001487047CC
:10516C00B0540B00D8DF032008B500224068FFF7CD
:10517C0081FBBDE80840FFF7EBBF0000024B034A80
:10518C001A6000225A607047D8DF0320C8540B0005
:10519C007047000038B5044614252A46002100F05B
:1051AC004DF825804025074925812846258200F0A9
:1051BC002FF804496060284600F02AF8E060204689
:1051CC0038BD00BF04550B0030B50E4D2978BFF328
:1051DC005B8F11F0010487B011D12846FFF782FBD9
:1051EC0068B101A8FFF7D6FF01AA21460648FFF7D0
:1051FC00C7FE2846FFF77EFB044800F00BF8024878
:10520C0007B030BDE0DF0320E4DF03209D510B002D
:10521C00FFF7FDB8002301461A461846FFF7FBB806
:10522C000A44914200F1FF3300D1704710B511F8D8
:10523C00014B03F8014F9142F9D110BD02440346D2
:10524C00934200D1704703F8011BF9E738B5104BB6
:10525C001D68AB6B0446B3B91820FFF723FB02465D
:10526C00A86320B90B4B0C484221FFF72BFB0B49D1
:10527C000B4BC0E900130B4B83600B238381002184
:10528C000120C2E90401AB6B00221C615A6138BDDC
:10529C00C0DE032005550B001C550B000E33CDABA7
:1052AC0034126DE6ECDE0500A5430B00E1430B0068
:1052BC0009440B000D440B000000000053656E7395
:1052CC006F7220696E6974206572722121210053FE
:1052DC00656E736F7220576F726B696E6754696D70
:1052EC00653A20252E32662048003120486F7572B1
:1052FC00205261696E66616C6C3A20252E326620F4
:10530C006D6D005261772054697070696E6720432F
:10531C006F756E74733A20256C75000000000000E8
:10532C0000000000B9450B00C5450B00D1450B0032
:10533C00D5450B00B9450B00B5450B00000000002E
:10534C00000000006F490B0065490B005B490B0026
:10535C0051490B0045490B0039490B0021500B00FA
:10536C0029500B002D490B0025490B001B490B0044
:10537C0011490B0075510B0059500B0061500B007B
:10538C000000000000000000FB490B00F1490B007D
:10539C00E7490B00DD490B00D1490B00C5490B0057
:1053AC0021500B0029500B00B9490B00B1490B00DF
:1053BC00A7490B009D490B0075510B0059500B0070
:1053CC0061500B006170700025592D256D2D2564E1
:1053DC005425483A254D3A2553257A006173637458
:1053EC00696D65000000000000000000914C0B008E
:1053FC00814C0B00834C0B000000000000000000EF
:10540C00774D0B00DF4D0B00B54D0B004D4A0B00DB
:10541C00A74D0B00794D0B00894D0B00D94D0B009E
:10542C00E54A0B00994D0B00714D0B00000000007C
:10543C0000000000D74E0B00CD4E0B00C34E0B00EE
:10544C00794E0B00B74E0B00AB4E0B0021500B00EE
:10545C0029500B009F4E0B00974E0B008D4E0B00EE
:10546C00834E0B0075510B0059500B0061500B0013
:10547C000000000000000000114F0B007D4F0B00DE
:10548C00554F0B004D4A0B00254F0B00414F0B00A5
:10549C00334F0B004F4F0B00E54A0B00134F0B0023
:1054AC00174F0B002CDF032094DF0320D8DF0320E1
:1054BC0040DF03200000000000000000E14F0B0063
:1054CC00EB4F0B00F54F0B00FF4F0B0009500B007F
:1054DC0015500B0021500B0029500B0031500B00C4
:1054EC003D500B0045500B004F500B0075510B00FD
:1054FC0059500B0061500B00005245454E54206D25
:10550C00616C6C6F632073756363656564656400BF
:10551C002F6D6E742F776F726B73706163652F775D
:10552C006F726B73706163652F4743432D31302D60
:10553C00706970656C696E652F6A656E6B696E73E8
:10554C002D4743432D31302D706970656C696E6544
:10555C002D34385F32303230313132345F313630C5
:10556C00363138303634312F7372632F6E65776C69
:10557C0069622F6E65776C69622F6C6962632F7339
:10558C0074646C69622F72616E642E63000000009B
:10559C0055440B0079490B008D490B00054A0B0053
:1055AC00194A0B003D4A0B00114B0B00214B0B0011
:1055BC003D4B0B00E14E0B00C54F0B0089510B000E
:1055CC00040000001400000003000000474E5500CA
:1055DC002FDBCC8801629B895A6B92294AF950B80F
:0455EC00A1D5E04E17
:1055F000E8530B00C4DE03200000000000000000A0
:10560000000000000000000000000000000000009A
:10561000000000000000000000000000000000008A
:10562000000000000000000000000000000000007A
:10563000000000000000000000000000000000006A
:10564000000000000000000000000000000000005A
:08565000000000000000000052
:04565800000000004E
:1056620000000102030405060708090A0B0C0D0ECF
:105672000F101112131415161718191A1B1C1D1EC0
:045682001F202800BD
:04568600785634120C
:04000003B000401CED
:00000001FF
