:02000002B0004C
:1040000000400B00D25F0B00000006000D0005020F
:084010000401A01800000000EB
:04401800005C0B003D
:1040200081F0004102E000BF83F0004330B54FEA69
:1040300041044FEA430594EA050F08BF90EA020FD6
:104040001FBF54EA000C55EA020C7FEA645C7FEA69
:10405000655C00F0E2804FEA5454D4EB5555B8BF8C
:104060006D420CDD2C4480EA020281EA030382EAFD
:10407000000083EA010180EA020281EA0303362D8F
:1040800088BF30BD11F0004F4FEA01314FF4801C62
:104090004CEA113102D0404261EB410113F0004F74
:1040A0004FEA03334CEA133302D0524263EB43032B
:1040B00094EA050F00F0A780A4F10104D5F1200EC9
:1040C0000DDB02FA0EFC22FA05F2801841F1000124
:1040D00003FA0EF2801843FA05F359410EE0A5F1F8
:1040E00020050EF1200E012A03FA0EFC28BF4CF029
:1040F000020C43FA05F3C01851EBE37101F00045DF
:1041000007D54FF0000EDCF1000C7EEB00006EEBEB
:104110000101B1F5801F1BD3B1F5001F0CD3490875
:104120005FEA30004FEA3C0C04F101044FEA4452CC
:1041300012F5800F80F09A80BCF1004F08BF5FEA53
:10414000500C50F1000041EB045141EA050130BD33
:104150005FEA4C0C404141EB0101013C28BFB1F545
:10416000801FE9D291F0000F04BF01460020B1FA90
:1041700081F308BF2033A3F10B03B3F120020CDA63
:104180000C3208DD02F1140CC2F10C0201FA0CF041
:1041900021FA02F10CE002F11402D8BFC2F1200CA6
:1041A00001FA02F120FA0CFCDCBF41EA0C0190405C
:1041B000E41AA2BF01EB0451294330BD6FEA0404A5
:1041C0001F3C1CDA0C340EDC04F11404C4F1200290
:1041D00020FA04F001FA02F340EA030021FA04F3A2
:1041E00045EA030130BDC4F10C04C4F1200220FAF9
:1041F00002F001FA04F340EA0300294630BD21FA37
:1042000004F0294630BD94F0000F83F4801306BFFC
:1042100081F480110134013D4EE77FEA645C18BFF0
:104220007FEA655C29D094EA050F08BF90EA020F87
:1042300005D054EA000C04BF1946104630BD91EA7F
:10424000030F1EBF0021002030BD5FEA545C05D182
:104250004000494128BF41F0004130BD14F58004C1
:104260003CBF01F5801130BD01F0004545F0FE4135
:1042700041F470014FF0000030BD7FEA645C1ABF6A
:10428000194610467FEA655C1CBF0B46024650EAA1
:10429000013406BF52EA033591EA030F41F40021CD
:1042A00030BD00BF90F0000F04BF0021704730B553
:1042B0004FF4806404F132044FF000054FF0000128
:1042C00050E700BF90F0000F04BF0021704730B5E9
:1042D0004FF4806404F1320410F0004548BF4042BE
:1042E0004FF000013EE700BF42004FEAE2014FEA13
:1042F00031014FEA02701FBF12F07F4393F07F4FEE
:1043000081F06051704732F07F4208BF704793F0F0
:104310007F4F04BF41F40021704730B54FF4607403
:1043200001F0004521F000411CE700BF50EA010206
:1043300008BF704730B54FF000050AE050EA0102AF
:1043400008BF704730B511F0004502D5404261EB1F
:1043500041014FF4806404F132045FEA915C3FF460
:10436000D8AE4FF003025FEADC0C18BF03325FEAFD
:10437000DC0C18BF033202EBDC02C2F1200300FAAE
:1043800003FC20FA02F001FA03FE40EA0E0021FAD3
:1043900002F11444BDE600BF70B54FF0FF0C4CF4C1
:1043A000E06C1CEA11541DBF1CEA135594EA0C0F73
:1043B00095EA0C0F00F0DEF82C4481EA030621EAAE
:1043C0004C5123EA4C5350EA013518BF52EA0335E9
:1043D00041F4801143F4801338D0A0FB02CE4FF09B
:1043E0000005E1FB02E506F00042E0FB03E54FF0CB
:1043F0000006E1FB03569CF0000F18BF4EF0010EC3
:10440000A4F1FF04B6F5007F64F5407404D25FEABE
:104410004E0E6D4146EB060642EAC62141EA555171
:104420004FEAC52040EA5E504FEACE2EB4F1FD0CB3
:1044300088BFBCF5E06F1ED8BEF1004F08BF5FEA31
:10444000500E50F1000041EB045170BD06F00046E3
:1044500046EA010140EA020081EA0301B4EB5C0490
:10446000C2BFD4EB0C0541EA045170BD41F4801188
:104470004FF0000E013C00F3AB8014F1360FDEBFAD
:10448000002001F0004170BDC4F10004203C35DA89
:104490000C341BDC04F11404C4F1200500FA05F30C
:1044A00020FA04F001FA05F240EA020001F00042AD
:1044B00021F0004110EBD37021FA04F642EB060123
:1044C0005EEA430E08BF20EAD37070BDC4F10C044D
:1044D000C4F1200500FA04F320FA05F001FA04F211
:1044E00040EA020001F0004110EBD37041F10001FD
:1044F0005EEA430E08BF20EAD37070BDC4F1200508
:1045000000FA05F24EEA020E20FA04F301FA05F26F
:1045100043EA020321FA04F001F0004121FA04F217
:1045200020EA020000EBD3705EEA430E08BF20EAE7
:10453000D37070BD94F0000F0FD101F00046400021
:1045400041EB010111F4801F08BF013CF7D041EAA3
:10455000060195F0000F18BF704703F000465200A7
:1045600043EB030313F4801F08BF013DF7D043EA78
:104570000603704794EA0C0F0CEA135518BF95EA2E
:104580000C0F0CD050EA410618BF52EA4306D1D1B5
:1045900081EA030101F000414FF0000070BD50EAD4
:1045A000410606BF1046194652EA430619D094EA5E
:1045B0000C0F02D150EA013613D195EA0C0F05D148
:1045C00052EA03361CBF104619460AD181EA03019C
:1045D00001F0004141F0FE4141F470014FF0000054
:1045E00070BD41F0FE4141F4780170BD70B54FF0EF
:1045F000FF0C4CF4E06C1CEA11541DBF1CEA13556F
:1046000094EA0C0F95EA0C0F00F0A7F8A4EB050450
:1046100081EA030E52EA03354FEA013100F0888047
:104620004FEA03334FF0805545EA131343EA126310
:104630004FEA022245EA111545EA10654FEA0026C5
:104640000EF000419D4208BF964244F1FD0404F57E
:10465000407402D25B084FEA3202B61A65EB0305DA
:104660005B084FEA32024FF480104FF4002CB6EB97
:10467000020E75EB030E22BFB61A754640EA0C0017
:104680005B084FEA3202B6EB020E75EB030E22BF57
:10469000B61A754640EA5C005B084FEA3202B6EB98
:1046A000020E75EB030E22BFB61A754640EA9C0057
:1046B0005B084FEA3202B6EB020E75EB030E22BF27
:1046C000B61A754640EADC0055EA060E18D04FEAE5
:1046D000051545EA16754FEA06164FEAC30343EA85
:1046E00052734FEAC2025FEA1C1CC0D111F4801F52
:1046F0000BD141EA00014FF000004FF0004CB6E74B
:1047000011F4801F04BF01430020B4F1FD0C88BFE9
:10471000BCF5E06F3FF6AFAEB5EB030C04BFB6EBF4
:10472000020C5FEA500C50F1000041EB045170BDE7
:104730000EF0004E4EEA113114EB5C04C2BFD4EB14
:104740000C0541EA045170BD41F480114FF0000E98
:10475000013C90E645EA060E8DE60CEA135594EA14
:104760000C0F08BF95EA0C0F3FF43BAF94EA0C0F17
:104770000AD150EA01347FF434AF95EA0C0F7FF48C
:1047800025AF104619462CE795EA0C0F06D152EAE0
:1047900003353FF4FDAE1046194622E750EA4106C4
:1047A00018BF52EA43067FF4C5AE50EA41047FF4D5
:1047B0000DAF52EA43057FF4EBAE12E74FEA410238
:1047C000B2F1E04324BFB3F5001CDCF1FE5C0DD96F
:1047D00001F0004C4FEAC0024CEA5070B2F1004FB9
:1047E00040EB830008BF20F00100704711F0804FBC
:1047F00021D113F13872BCBF01F00040704741F481
:1048000080114FEA5252C2F11802C2F1200C10FA84
:104810000CF320FA02F018BF40F001004FEAC12368
:104820004FEAD32303FA0CFC40EA0C0023FA02F30C
:104830004FEA4303CCE77FEA625307D150EA0133E2
:104840001EBF4FF0FE4040F44000704701F00040B2
:1048500040F0FE4040F40000704700BF034613F8EC
:10486000012B002AFBD1181A0138704709480A4960
:10487000884208B505D0094A824202D0121A01F0D6
:104880007BF90748074A0021121A01F083F9014811
:1048900008BD00BF90DE03203C5F0B00F8DE032064
:1048A000F8DE0320FCDF032070B5074E074C01F053
:1048B000A9F8A41BA4080025AC4200D170BD56F88D
:1048C000043B98470135F7E7E85E0B00185F0B00E3
:1048D00000F024B808B500F043F8BDE8084001F046
:1048E00049B800F0C3BB00F0C9BB70470EB400B5B7
:1048F0008CB00DAA4FF0200C52F8041B0392CDE9A6
:1049000000120023016804AA1E20CDE904C300F0B0
:1049100009FB0CB05DF804EB03B0704770B501F013
:10492000FFF84FF4165100F07BFF4FF47A7000F05F
:10493000FBFF084E084D094C304600F0DFF940B946
:1049400020462946FFF7D2FF4FF47A7000F0ECFFC3
:10495000F2E770BDF8DE0320145C0B0070DF03206B
:104960002DE9F843364D374CDFF8E490DFF8E4806A
:10497000354F364E284600F095F910EE100AFFF735
:10498000B3FC02460B4620464946FFF7AFFF2846D8
:1049900000F002F910EE100AFFF7A6FC02460B46E3
:1049A00020464146FFF7A2FF2846012100F020F9EA
:1049B00010EE100AFFF798FC0B46024639462046D7
:1049C000FFF794FF284600F053F93146024620468F
:1049D000FFF78CFF284600F065F910EE100AFFF78C
:1049E00083FC02460B4620464946FFF77FFF2846D8
:1049F00000F0D2F810EE100AFFF776FC02460B46E4
:104A000020464146FFF772FF2846012100F0F0F8EA
:104A100010EE100AFFF768FC0B46024639462046A6
:104A2000FFF764FF284600F023F93146024620468E
:104A3000FFF75CFFBDE8F8434FF47A7000F074BFF5
:104A4000F8DE032070DF0320425C0B005B5C0B0090
:104A5000275C0B00495C0B0008B501F021F8BDE8AC
:104A600008400146014800F03DB900BFF8DE0320D0
:104A70000020704700207047F8B504460E461F46D8
:104A80001546DAB1017E406900F03AFC60690368BE
:104A900031469B6898470026B3B29F42606906F191
:104AA000010604D90268E95C92689047F4E700F0D7
:104AB0002FFC642000F038FF0020F8BD0120FCE747
:104AC0002DE9F84304460D461F4616460AB3017EFB
:104AD000406900F015FC6069036829469B689847A7
:104AE000606900F015FC054698B95FFA87F8217EE9
:104AF0006069424600F001FC5FFA85F94F4505F117
:104B0000010508D9606903685B69984706F80900E0
:104B1000F2E74FF000084046BDE8F88337B5017C66
:104B20000368044609BB01911D6804230DEB0302D1
:104B3000A8479DF80730BDF804109A0202F44032ED
:104B40000A43A2601B029DF8062003F47C53134322
:104B50006360626843F243339A4219D1A0680D4BF7
:104B6000C31A5842584103B030BD5B6800219847D2
:104B70002368A0605B68012120469847830003F406
:104B80004032A368C0F30D001343A3606060E0E708
:104B90000020E8E7C000010037B5027C0368044646
:104BA000A2B901921C6804230DEB03021021A04757
:104BB0000198FFF777FB0CA3D3E90023FFF716FD5D
:104BC000FFF7FCFD00EE100A03B030BD5B68092161
:104BD0009847236805045B680821204698472843C6
:104BE000E7E700BFAFF30080000000000088C3408B
:104BF0007FB5057C03688DF807100446FDB99E68F3
:104C00000DF1070201232621B047236803951D6893
:104C100003AA04230C212046A84718B9BFEE000AB6
:104C200004B070BD0398FFF73DFB0FA3D3E9002349
:104C3000FFF7DCFCFFF7C2FD00EE100AF0E79DF87D
:104C40000720DB6806219847236807215B68204618
:104C50009847236805045B68062120469847284347
:104C6000E1E700BFAFF30080000000000088C34010
:104C700037B5027C036804464AB901921C680423D4
:104C80000DEB03021421A047019803B030BD5B680F
:104C90000B219847236805045B680A212046984742
:104CA0002843F2E713B5037C0268A3B9ADF80430DA
:104CB0001468022301AA1821A047BDF80400FFF7D9
:104CC00001FB074B0022FFF791FCFFF777FD00EE99
:104CD000100A02B010BD53680C219847EFE700BFDF
:104CE00000004E400022C0E901220274024A026024
:104CF0001D224161027670477C5C0B0010B50446B2
:104D0000406900F0C7FA2046BDE81040FFF706BF33
:104D100013B50446084659B10191FFF79FFD23687A
:104D20000199DB680246204602B0BDE810401847F2
:104D300002B010BD08B5024B1B685B6C019308BD47
:104D40004802030008B5024B1B685B68019308BD6D
:104D50001802030008B5024B1B685B69019308BD8C
:104D60001802030008B5024B1B68DB68019308BDFD
:104D70002802030008B5024B1B689B69019308BD1C
:104D80002802030008B5024B1B68DB69019308BDCC
:104D90002802030008B5024B1B681B6A019308BD7B
:104DA0002802030008B5024B1B685B6A019308BD2B
:104DB0002802030008B5024B1B689B6A019308BDDB
:104DC0002802030008B5024B1B68DB6A019308BD8B
:104DD0002802030008B5024B1B681B6B019308BD3A
:104DE0002802030008B5024B1B681B6C019308BD29
:104DF0002802030008B5024B1B681B6D019308BD18
:104E00002802030008B5024B1B689B69019308BD8B
:104E10006C02030008B5024B1B685B69019308BD77
:104E20006402030008B5024B1B689B68019308BD30
:104E30006802030008B5024B1B685B69019308BD5B
:104E40006802030008B5024B1B68DB68019308BDCC
:104E50003C02030008B5024B1B681B69019308BDA7
:104E60003C02030008B5024B1B685B69019308BD57
:104E70003C02030008B5024B1B689B69019308BD07
:104E80003C02030008B5024B1B68DB69019308BDB7
:104E90003C02030008B5024B1B689B6A019308BDE6
:104EA0003C02030008B5024B1B68DB6A019308BD96
:104EB0003C02030008B5024B1B681B6C019308BD44
:104EC0003C02030008B5024B1B681B68019308BD38
:104ED0004C02030008B5024B1B681B69019308BD17
:104EE0004C02030008B5024B1B685B69019308BDC7
:104EF0004C02030008B5024B1B689B69019308BD77
:104F00004C02030008B5024B1B68DB69019308BD26
:104F10004C02030008B5024B1B681B6A019308BDD5
:104F20004C02030008B5024B1B685B6D019308BD82
:104F30006002030008B5024B1B68DB6B019308BDE0
:104F40004402030008B5024B1B685B68019308BD6F
:104F50004002030008B5024B1B689B68019308BD23
:104F60004002030008B5024B1B68DB68019308BDD3
:104F70004002030008B5024B1B681B69019308BD82
:104F80004002030008B5024B1B685B69019308BD32
:104F90004002030008B5024B1B689B69019308BDE2
:104FA0004002030008B5024B1B68DB69019308BD92
:104FB0004002030008B5024B1B681B6A019308BD41
:104FC0004002030008B5024B1B681B6B019308BD30
:104FD0004002030008B5024B1B685B6B019308BDE0
:104FE0004002030008B5024B1B681B6C019308BD0F
:104FF0004002030008B5024B1B685B6C019308BDBF
:105000004002030008B5024B1B685B6D019308BDAD
:105010004002030008B5024B1B689B6D019308BD5D
:105020004002030008B5024B1B685B68019308BD92
:105030002002030008B5024B1B685B69019308BDA1
:105040002002030008B5034B1B68D3F88830019396
:1050500008BD00002002030008B5034B1B68D3F80D
:105060009430019308BD00002002030008B5024BF4
:105070001B681B68019308BD1C02030008B5024BA6
:105080001B685B68019308BD1C02030008B5024B56
:105090001B681B6C019308BD1C02030008B5024B82
:1050A0001B685B6C019308BD1C02030008B5024B32
:1050B0001B689B6D019308BD1C02030008B5024BE1
:1050C0001B68DB6D019308BD1C020300024800232E
:1050D0000360FFF72FBE00BF14DF032000224068EB
:1050E0001146FFF747BF002240681146FFF762BF35
:1050F000002240681146FFF76DBF40680022FFF7AD
:1051000061BF4068002281F00101FFF74BBF00231F
:1051100040681A461946FFF73DBF002340681A460B
:105120001946FFF72FBF002240681146FFF712BF54
:10513000406800220221FFF715BF002340681A468D
:10514000FFF700BF084B10B528242246184600215F
:1051500000F020FD054B04804FF0FF324260042236
:105160005A60034A1A6010BD20DF032018DF0320B5
:10517000945C0B00024B0022C3E900229A60704746
:1051800048DF0320002240681146FFF713BF0022CA
:1051900040681146FFF71EBF40680022FFF712BFAC
:1051A0004068002281F00101FFF7FCBE0023406847
:1051B0001A461946FFF7EEBE002340681A46194604
:1051C000FFF7E0BE002240681146FFF7D3BE002281
:1051D00040681146FFF7BEBE406800220221FFF77B
:1051E000C1BE002340681A46FFF7ACBE024B032243
:1051F0005A60024A1A60704754DF0320D85C0B00E3
:105200007047F8B5064615460C468F18BC4206D0C6
:10521000336814F8011B9B6830469847F6E7284628
:10522000F8BD007C0022FFF7B5BD007C0021FFF730
:10523000B9BD007C0021FFF7BDBD007C0021FFF758
:10524000C1BD007C0021FFF7C5BD10B51421044687
:10525000FFF749FB204610BD38B5044615464FF40C
:105260007A730022C4E90123094B217408462360A4
:105270002946FFF7B7FDBF3008D16B69DB0705D5BD
:105280006868FFF7FBFEE868FFF7F8FE204638BDC8
:105290001C5D0B000023007C1A461946FFF762BD17
:1052A0007FB500221823CDE90022ADF800300B783D
:1052B0008DF804304B680293CB6803930B7A049308
:1052C000007C0B6905936946FFF794FD07B05DF814
:1052D00004FB7FB58DF8041000215B1A4FF0640CBD
:1052E000CDE904C118BF012301A902928DF80C3049
:1052F000FFF7D6FF07B05DF804FB0123FFF7E9BF16
:10530000007C0022FFF736BD007C0022FFF73ABD8B
:105310000121FFF7F9BF0000054BFF210022C3E97F
:10532000001201206421C3E902011A61704700BF25
:105330005CDF0320704710B518210446FFF7D3FA4D
:10534000204610BDF0B5037D062B8DB00E4600F152
:1053500004074FF0000412D000F1080515F8011DF4
:105360000A22304600F05DF9AF42044419D0002C07
:10537000F4D02E21304600F051F90444EEE72F23FB
:105380006A4639460A208DF80040FFF743FD68461B
:10539000FFF764FA33680246DB686946304698478F
:1053A000044620460DB0F0BD10B5054B0446112251
:1053B00040F8043B002100F0EDFB204610BD00BF8B
:1053C000485D0B000346074A10B543F8042B01F172
:1053D000100251F8044B43F8044B9142F9D10A787A
:1053E0001A7010BD485D0B0010B59DF8084044EAE6
:1053F000032343EA024242EA016104234160037548
:1054000010BD000007B5064B0360CB7800938B7886
:105410004A780978FFF7E8FF03B05DF804FB00BFA6
:10542000485D0B00014B024A1A60704770DF032091
:10543000545D0B00002340681A46FFF783BD4068A7
:1054400000220221FFF78EBD002240681146FFF7BF
:1054500081BD002240681146FFF78CBD00234068E3
:105460001A461946FFF78EBD002340681A461946B2
:10547000FFF790BD40680021FFF7B4BD40680021F0
:10548000FFF7B8BD4068002281F00101FFF78ABD37
:1054900040680022FFF796BD002240681146FFF7E2
:1054A00099BD002240681146FFF784BD4068002185
:1054B000FFF7B0BD2DE9F043002699B00D46144624
:1054C00098460746FFF770FF1C22314611A8039645
:1054D00000F060FBB8F1000F2CD1402368681093F6
:1054E000049618B104A9C0B2FFF78CFC049B00938A
:1054F000204603AB10AA0021FFF79CFC04460028BD
:105500004DD1024601216868FFF734FD0221804633
:1055100022466868FFF72EFD039E81462146002E35
:105520003DD000293BD17368022B05D00A2B13D044
:10553000F669F4E71D4BD1E7B8F1000FF8D07169B7
:105540000AA804310BADFFF75DFF0FCD3C1D0FC462
:105550002B6823704146EBE7B9F1000FE8D074697E
:10556000102205A800F016FB06238DF8243005ADA7
:1055700004F108031834186859682A4603C208332E
:10558000A3421546F7D105A90AA80BADFFF71AFFEC
:105590000FCD3C1D0FC42B6823704946C8E7039804
:1055A000FFF740FC384619B0BDE8F08340000040EA
:1055B000033803289ABF024B53F820000148704774
:1055C000585D0B0074DF032008B500224068FFF728
:1055D00019FDBDE80840FFF7EBBF0000024B034A8E
:1055E0001A6000225A60704774DF0320705D0B0060
:1055F000F8B506460D468F180024BD420CD033681E
:1056000015F8011B9B6830469847031E01DB1C44BC
:10561000F3E7002C08BF1C462046F8BD03689B68D2
:10562000184730B58BB00023012A8DF8243098BF7D
:105630000A2209AC0D46B1FBF2F101FB125303F053
:10564000FF03092B94BF30333733DBB2AA4204F88F
:10565000013DEFD92146FFF75BFB0BB030BD0000E9
:10566000014B00229A6070477CDF032010B504468E
:10567000FFF770FBE060236820465B6998470028CD
:1056800008DAFFF767FBE368C01AA3689842F2D311
:105690004FF0FF3010BD2DE9F04107460C468E1843
:1056A0000D46B542A5EB040807D03846FFF7DEFFEC
:1056B000031E02DB05F8013BF3E74046BDE8F0813D
:1056C000054B02221A60054B054A9A600020C3E987
:1056D0000000FFF7A7BC00BF98DF03208CDF03208A
:1056E0000000FFFF002240681146FFF763BC002264
:1056F00040681146FFF76EBC40680022FFF762BCAD
:105700004068002281F00101FFF74CBC0023406893
:105710001A461946FFF73EBC002340681A46194650
:10572000FFF730BC002240681146FFF723BC00227F
:1057300040681146FFF70EBC406800220221FFF7C7
:1057400011BC002340681A46FFF7FCBB024B06223F
:105750005A60024A1A6070479CDF0320B45D0B0058
:10576000024B1A68024B1A60704700BF90DE03209C
:10577000A4DF032070474174704708B5007CFFF731
:1057800089FB20EAE07008BD08B5007CFFF762FBEA
:1057900020EAE07008BD08B5007CFFF76BFB40EA2B
:1057A000E07008BD08B5007CFFF75CFB40EAE070E4
:1057B00008BD007CFFF766BB37B5457C04462DB1BC
:1057C000207C03B0BDE83040FFF73CBB007C01917A
:1057D000FFF760FB00280199F2DC284603B030BDDA
:1057E00010B514210446FFF77EF8204610BD0000D6
:1057F00010B54FF47A730446084611460022C4E9F6
:105800000123044B2360012320746374FFF752FBD0
:10581000204610BD145E0B00007C0023FFF742BB46
:105820000022FFF7F9BF417470477047704708B511
:105830000021007CFFF75EFB40EAE07008BD08B580
:105840000121007CFFF756FB40EAE07008BD08B577
:10585000007CFFF747FB20EAE07008BD08B5007C3C
:10586000FFF738FB20EAE07008BD13B50446007C62
:105870000191FFF737FB0028019901DC607C20B122
:10588000207CFFF73FFB20EAE07002B010BD007CF7
:10589000FFF740BB10B514210446FFF724F820465B
:1058A00010BD000010B54FF47A730446084600217D
:1058B000C4E90113044B236001232074637411466F
:1058C000FFF700FB204610BD485E0B0010B5142208
:1058D0000446002100F05EF9204610BD10B50F4CC3
:1058E00088B003A8FFF7F2FF2178BFF35B8F11F0B8
:1058F00001010FD120460191FFF7D8FB019948B172
:1059000003AA0748FFF7CEFF2046FFF7D7FB05485D
:1059100000F02CF9024808B010BD00BFA8DF03203A
:10592000ACDF03202B580B000021FFF783BB0000E6
:10593000014B1860704700BF94DE032008B50B4B85
:1059400043B1FFF7CBFF03681B699847002801DDCF
:10595000AFF30080064B43B100F0E2F803681B6927
:105960009847002801DDAFF3008008BD000000006B
:105970000000000008B5FFF7E1FFFFF7EBF9014B6E
:10598000186008BDC8DF03200548064A064908B567
:10599000121A00F0F1F8054B054A1A6008BD00BF65
:1059A00000F4032004F40320A45F0B0000F40320A0
:1059B0001E1C279A07B5002300931A466FF0770143
:1059C000FFF74AFB03B05DF804FB000007B543880E
:1059D0000A2B08D0502B0BD1094B1B684BB103B0DD
:1059E0005DF804EB1847FFF7E5FF03B05DF804FB33
:1059F000002300931A466FF07701FFF72DFBF4E7C1
:105A0000C4DF032010B512480021FFF747FB114BFC
:105A10001A68114B9A42114B0CBF012200221A70D6
:105A200001D0FFF7B1FFFFF78DF9044600F0BAF897
:105A30000B4B13B12046AFF3008000210848FFF75D
:105A400079FABDE8104007480021FFF7FBBA00BF14
:105A500031590B0000F403201E1C279AC0DF0320DD
:105A600000000000CD590B007047000038B50A4B0C
:105A700003600123044643610849202000F074F8C4
:105A8000202560600549A560284600F06DF8C4E94E
:105A90000305204638BD00BF18000100745E0B00EE
:105AA00030B50E4D2978BFF35B8F11F0010487B03C
:105AB00011D12846FFF7FAFA68B16846FFF7D6FF1A
:105AC0006A4621460648FFF7C7FB2846FFF7F6FA65
:105AD000044800F04BF8024807B030BDCCDF03208B
:105AE000D0DF0320695A0B007047000038B5044628
:105AF00014252A46002100F04DF82580402507494D
:105B000025812846258200F02FF804496060284648
:105B100000F02AF8E060204638BD00BF745E0B003C
:105B200030B50E4D2978BFF35B8F11F0010487B0BB
:105B300011D12846FFF7BAFA68B101A8FFF7D6FFDE
:105B400001AA21460648FFF753FE2846FFF7B6FA9A
:105B5000044800F00BF8024807B030BDE4DF032032
:105B6000E8DF0320E95A0B00FEF7BBBE0023014625
:105B70001A461846FEF7B9BE0A44914200F1FF33B7
:105B800000D1704710B511F8014B03F8014F914255
:105B9000F9D110BD02440346934200D1704703F887
:105BA000011BF9E738B5104B1D68AB6B0446B3B960
:105BB0001820FFF75BFA0246A86320B90B4B0C488C
:105BC0004221FFF763FA0B490B4BC0E900130B4B63
:105BD00083600B23838100210120C2E90401AB6BA8
:105BE00000221C615A6138BD94DE0320755E0B00F3
:105BF0008C5E0B000E33CDAB34126DE6ECDE05008F
:105C00006D480B00A9480B00D1480B00D5480B008C
:105C10000000000053656E736F7220696E69742016
:105C20006572722121210053656E736F7220576F68
:105C3000726B696E6754696D653A20252E32662055
:105C400048003120486F7572205261696E66616C40
:105C50006C3A20252E3266206D6D005261772054FB
:105C6000697070696E6720436F756E74733A202592
:105C70006C7500000000000000000000C14A0B002D
:105C8000714A0B00794A0B00754A0B0000000000B6
:105C9000000000003B510B0031510B0027510B005D
:105CA000DD500B001B510B000F510B0075540B0006
:105CB0007D540B0003510B00FB500B00F1500B0007
:105CC000E7500B00C9550B00AD540B00B5540B0049
:105CD0000000000000000000E3510B00D9510B0050
:105CE000CF510B00C5510B00B9510B00AD510B004A
:105CF00075540B007D540B00A1510B0099510B0002
:105D00008F510B0085510B00C9550B00AD540B0092
:105D1000B5540B00000000000000000001520B0011
:105D20004B520B0023520B0003520B002B520B0063
:105D300033520B003B520B0043520B0097560B00A3
:105D4000000000000000000045530B0035530B001D
:105D500037530B006170700054DF032018DF0320FD
:105D600074DF03209CDF032000000000000000001F
:105D700035540B003F540B0049540B0053540B0097
:105D80005D540B0069540B0075540B007D540B00DF
:105D900085540B0091540B0099540B00A3540B0035
:105DA000C9550B00AD540B00B5540B0000000000AA
:105DB0000000000043570B0039570B002F570B0012
:105DC00025570B0019570B000D570B0075540B008E
:105DD0007D540B0001570B00F9560B00EF560B00DA
:105DE000E5560B00C9550B00AD540B00B5540B0024
:105DF00025592D256D2D25645425483A254D3A25E4
:105E000053257A0061736374696D650000000000BA
:105E10000000000075570B00E1570B00B9570B004D
:105E2000F1550B0089570B00A5570B0097570B0036
:105E3000B3570B0097560B0077570B007B570B009F
:105E400000000000000000002D580B0095580B00CA
:105E50006B580B00F1550B005D580B002F580B00D1
:105E60003F580B008F580B0097560B004F580B00F4
:105E700027580B00005245454E54206D616C6C6FE5
:105E80006320737563636565646564002F746D706A
:105E90002F6A656E6B696E732D4743432D31302D2C
:105EA000706970656C696E652D34385F32303230E0
:105EB000313132345F313630363138303633392F84
:105EC0007372632F6E65776C69622F6E65776C698C
:105ED000622F6C6962632F7374646C69622F7261E4
:105EE0006E642E6300000000594A0B00CD500B0079
:105EF00045510B0075510B00ED510B0019530B0070
:105F000025540B00DD550B0061560B00C1560B00EC
:085F10004D570B0061570B0017
:105F1800040000001400000003000000474E550074
:105F280083BBCBB813BFC1BEE76FA98B6453F1B174
:045F3800DB642AE319
:105F3C00045E0B0098DE032000000000000000004F
:105F4C000000000000000000000000000000000045
:105F5C000000000000000000000000000000000035
:105F6C000000000000000000000000000000000025
:105F7C000000000000000000000000000000000015
:105F8C000000000000000000000000000000000005
:085F9C000000000000000000FD
:045FA40000000000F9
:105FAE0000000102030405060708090A0B0C0D0E7A
:105FBE000F101112131415161718191A1B1C1D1E6B
:045FCE001F20280068
:045FD20078563412B7
:04000003B0004020E9
:00000001FF
