:02000002B0004C
:1040000000400B00BA580B00000006000D0005022E
:084010000401A01800000000EB
:04401800C0540B0085
:10401C0081F0004102E000BF83F0004330B54FEA6D
:10402C0041044FEA430594EA050F08BF90EA020FDA
:10403C001FBF54EA000C55EA020C7FEA645C7FEA6D
:10404C00655C00F0E2804FEA5454D4EB5555B8BF90
:10405C006D420CDD2C4480EA020281EA030382EA01
:10406C00000083EA010180EA020281EA0303362D93
:10407C0088BF30BD11F0004F4FEA01314FF4801C66
:10408C004CEA113102D0404261EB410113F0004F78
:10409C004FEA03334CEA133302D0524263EB43032F
:1040AC0094EA050F00F0A780A4F10104D5F1200ECD
:1040BC000DDB02FA0EFC22FA05F2801841F1000128
:1040CC0003FA0EF2801843FA05F359410EE0A5F1FC
:1040DC0020050EF1200E012A03FA0EFC28BF4CF02D
:1040EC00020C43FA05F3C01851EBE37101F00045E3
:1040FC0007D54FF0000EDCF1000C7EEB00006EEBF0
:10410C000101B1F5801F1BD3B1F5001F0CD3490879
:10411C005FEA30004FEA3C0C04F101044FEA4452D0
:10412C0012F5800F80F09A80BCF1004F08BF5FEA57
:10413C00500C50F1000041EB045141EA050130BD37
:10414C005FEA4C0C404141EB0101013C28BFB1F549
:10415C00801FE9D291F0000F04BF01460020B1FA94
:10416C0081F308BF2033A3F10B03B3F120020CDA67
:10417C000C3208DD02F1140CC2F10C0201FA0CF045
:10418C0021FA02F10CE002F11402D8BFC2F1200CAA
:10419C0001FA02F120FA0CFCDCBF41EA0C01904060
:1041AC00E41AA2BF01EB0451294330BD6FEA0404A9
:1041BC001F3C1CDA0C340EDC04F11404C4F1200294
:1041CC0020FA04F001FA02F340EA030021FA04F3A6
:1041DC0045EA030130BDC4F10C04C4F1200220FAFD
:1041EC0002F001FA04F340EA0300294630BD21FA3B
:1041FC0004F0294630BD94F0000F83F4801306BF01
:10420C0081F480110134013D4EE77FEA645C18BFF4
:10421C007FEA655C29D094EA050F08BF90EA020F8B
:10422C0005D054EA000C04BF1946104630BD91EA83
:10423C00030F1EBF0021002030BD5FEA545C05D186
:10424C004000494128BF41F0004130BD14F58004C5
:10425C003CBF01F5801130BD01F0004545F0FE4139
:10426C0041F470014FF0000030BD7FEA645C1ABF6E
:10427C00194610467FEA655C1CBF0B46024650EAA5
:10428C00013406BF52EA033591EA030F41F40021D1
:10429C0030BD00BF90F0000F04BF0021704730B557
:1042AC004FF4806404F132044FF000054FF000012C
:1042BC0050E700BF90F0000F04BF0021704730B5ED
:1042CC004FF4806404F1320410F0004548BF4042C2
:1042DC004FF000013EE700BF42004FEAE2014FEA17
:1042EC0031014FEA02701FBF12F07F4393F07F4FF2
:1042FC0081F06051704732F07F4208BF704793F0F5
:10430C007F4F04BF41F40021704730B54FF4607407
:10431C0001F0004521F000411CE700BF50EA01020A
:10432C0008BF704730B54FF000050AE050EA0102B3
:10433C0008BF704730B511F0004502D5404261EB23
:10434C0041014FF4806404F132045FEA915C3FF464
:10435C00D8AE4FF003025FEADC0C18BF03325FEA01
:10436C00DC0C18BF033202EBDC02C2F1200300FAB2
:10437C0003FC20FA02F001FA03FE40EA0E0021FAD7
:10438C0002F11444BDE600BF034613F8012B002ACA
:10439C00FBD1181A0138704709480A49884208B5F8
:1043AC0005D0094A824202D0121A01F03FF80748A0
:1043BC00074A0021121A01F047F8014808BD00BF56
:1043CC00BCDE032024580B0024DF032024DF032051
:1043DC00FCDF032070B5074E074C00F01FFDA41B3B
:1043EC00A4080025AC4200D170BD56F8043B984798
:1043FC000135F7E7D0570B0000580B0000F08EB8D2
:10440C0008B500F0C5F8BDE8084000F0BFBC00F0EE
:10441C008FBA00F095BA7047012070479FED010AE2
:10442C00704700BF000000009FED010A704700BFFD
:10443C0000000000002070470120704730B50D4689
:10444C0085B015490446686800F00FFC322000F076
:10445C0071FC1249684600F084FB686803681B69AC
:10446C00984740B1686803685B699847C1B2684671
:10447C0000F0C1FBF1E7029B4BB16946204600F00E
:10448C0093FB684600F022FB204605B030BD044982
:10449C00204600F066FBF4E7D4540B002D550B00BE
:1044AC00DC540B00014AC0E900217047EC540B00AE
:1044BC0013B50446084659B10191FFF765FF23680F
:1044CC000199DB680246204602B0BDE8104018474F
:1044DC0002B010BD0EB400B58CB00DAA4FF0200C7C
:1044EC0052F8041B0392CDE900120023016804AAC0
:1044FC001E20CDE904C300F077F90CB05DF804EB95
:10450C0003B0704708B500F065FFBDE808400146F0
:10451C000148FFF7C7BF00BF24DF032030B585B0CB
:10452C0000F058FF4FF4165100F048FE00F07EFDED
:10453C004FF4E13100F06EFD4FF47A7000F0FAFBAD
:10454C000F4D104C1048FFF767FF40B92046294625
:10455C00FFF7C0FF4FF47A7000F0ECFBF2E70B4969
:10456C000848FFF7B7FF68460749FFF767FF009950
:10457C000448FFF7AFFF684600F0A8FA05B030BD5D
:10458C0008550B005CDF032024DF03201B550B00B8
:10459C002DE9F843364D374CDFF8E490DFF8E48032
:1045AC00354F364E2846FFF739FF10EE100AFFF74D
:1045BC0093FE02460B4620464946FFF78BFF2846E2
:1045CC00FFF72CFF10EE100AFFF786FE02460B4693
:1045DC0020464146FFF77EFF28460121FFF724FFC6
:1045EC0010EE100AFFF778FE0B46024639462046BD
:1045FC00FFF770FF2846FFF71DFF314602462046A5
:10460C00FFF768FF2846FFF709FF10EE100AFFF7C7
:10461C0063FE02460B4620464946FFF75BFF2846E1
:10462C00FFF7FCFE10EE100AFFF756FE02460B4693
:10463C0020464146FFF74EFF28460121FFF7F4FEC6
:10464C0010EE100AFFF748FE0B460246394620468C
:10465C00FFF740FF2846FFF7EDFE314602462046A5
:10466C00FFF738FFBDE8F8434FF47A7000F062BBF7
:10467C0024DF03205CDF032048550B0061550B0041
:10468C002E550B004F550B0008B5024B1B689B6851
:10469C00019308BD6802030008B5024B1B685B69F7
:1046AC00019308BD6802030008B5024B1B689B69A7
:1046BC00019308BD6C02030008B5024B1B685B68D4
:1046CC00019308BD1802030008B5024B1B685B6917
:1046DC00019308BD1802030008B5024B1B685B6C04
:1046EC00019308BD4802030008B5024B1B685B69C7
:1046FC00019308BD6402030008B5024B1B68DB681C
:10470C00019308BD3C02030008B5024B1B681B69F2
:10471C00019308BD3C02030008B5024B1B685B69A2
:10472C00019308BD3C02030008B5024B1B689B6952
:10473C00019308BD3C02030008B5024B1B68DB6902
:10474C00019308BD3C02030008B5024B1B689B6A31
:10475C00019308BD3C02030008B5024B1B68DB6AE1
:10476C00019308BD3C02030008B5024B1B681B6C8F
:10477C00019308BD3C02030008B5024B1B681B6883
:10478C00019308BD4C02030008B5024B1B685B6823
:10479C00019308BD4C02030008B5024B1B681B6952
:1047AC00019308BD4C02030008B5024B1B685B6902
:1047BC00019308BD4C02030008B5024B1B689B69B2
:1047CC00019308BD4C02030008B5024B1B68DB6962
:1047DC00019308BD4C02030008B5024B1B681B6A11
:1047EC00019308BD4C02030008B5024B1B685B6DBE
:1047FC00019308BD6002030008B5024B1B685B689F
:10480C00019308BD2002030008B5024B1B685B69CD
:10481C00019308BD2002030008B5034B1B68D3F8B5
:10482C008830019308BD00002002030008B5034B3B
:10483C001B68D3F89430019308BD000020020300DC
:10484C0008B5024B1B685B68019308BD400203006E
:10485C0008B5024B1B689B68019308BD400203001E
:10486C0008B5024B1B68DB68019308BD40020300CE
:10487C0008B5024B1B681B69019308BD400203007D
:10488C0008B5024B1B685B69019308BD400203002D
:10489C0008B5024B1B689B69019308BD40020300DD
:1048AC0008B5024B1B68DB69019308BD400203008D
:1048BC0008B5024B1B681B6A019308BD400203003C
:1048CC0008B5024B1B681B6B019308BD400203002B
:1048DC0008B5024B1B685B6B019308BD40020300DB
:1048EC0008B5024B1B681B6C019308BD400203000A
:1048FC0008B5024B1B685B6C019308BD40020300BA
:10490C0008B5024B1B685B6D019308BD40020300A8
:10491C0008B5024B1B689B6D019308BD4002030058
:10492C0008B5024B1B68DB6B019308BD4402030006
:10493C0008B5024B1B681B68019308BD1C020300E1
:10494C0008B5024B1B685B68019308BD1C02030091
:10495C0008B5024B1B689B68019308BD1C02030041
:10496C0008B5024B1B681B6C019308BD1C020300AD
:10497C0008B5024B1B685B6C019308BD1C0203005D
:10498C0008B5024B1B689B6D019308BD1C0203000C
:10499C0008B5024B1B68DB6D019308BD1C020300BC
:1049AC00002240681146FFF783BF00224068114681
:1049BC00FFF78EBF40680022FFF782BF40680022DD
:1049CC0081F00101FFF76CBF002340681A461946BD
:1049DC00FFF75EBF002340681A461946FFF750BF29
:1049EC00002240681146FFF743BF00224068114681
:1049FC00FFF72EBF406800220221FFF731BF0023D2
:104A0C0040681A46FFF71CBF024B03225A60024A49
:104A1C001A6070472CDF032084550B00024B0022D8
:104A2C00C3E900229A60704734DF032000224068FB
:104A3C001146FFF73DBF002240681146FFF748BF03
:104A4C0040680022FFF73CBF4068002281F0010162
:104A5C00FFF726BF002340681A461946FFF718BF18
:104A6C00002340681A461946FFF70ABF0022406827
:104A7C001146FFF7FDBE002240681146FFF7E8BE65
:104A8C00406800220221FFF7EBBE002340681A4663
:104A9C00FFF7D6BE024B06225A60024A1A607047D4
:104AAC0040DF0320C8550B00054B02221A60054B52
:104ABC00054A9A600020C3E90000FFF79DBE00BFC5
:104ACC0054DF032048DF03200000FFFF10B504462D
:104ADC000068FFF735FF204610BD10B5044600688E
:104AEC0008B1FFF72DFF0023C4E90133236010BD8B
:104AFC0038B504460D4600680131FFF729FF10B1A7
:104B0C00C4E90005012038BD10B50368044623B183
:104B1C0043688B4201D3012010BD2046FFF7E8FF0C
:104B2C000028F9D0A368002BF5D122681370F2E7A6
:104B3C0037B50D46114601920446FFF7E5FF019A81
:104B4C0028B92046FFF7C9FF204603B030BDA2604C
:104B5C002946206800F06AFC2268A3680021D15421
:104B6C00F2E7002313B5C0E90033044683600373F6
:104B7C0041B108460191FFF707FC01990246204616
:104B8C00FFF7D6FF204602B010BD884210B5044690
:104B9C0005D00B682BB18A681946FFF7C9FF204670
:104BAC0010BDFFF79AFFFAE710B500230446C0E9E1
:104BBC00003383600373FFF7E8FF204610BDF8B5A0
:104BCC00044616460F4609B90020F8BD8AB185681F
:104BDC0015442946FFF798FF0028F5D0A3682068F4
:104BEC0032461844394600F021FC236800225A55FD
:104BFC00A5600120E9E707B50023ADF804300122D8
:104C0C008DF8041001A9FFF7DAFF03B05DF804FB7F
:104C1C00024800230360FFF75FBD00BF58DF03208D
:104C2C00F8B506460D468F180024BD420CD03368EB
:104C3C0015F8011B9B6830469847031E01DB1C448A
:104C4C00F3E7002C08BF1C462046F8BD03689B68A0
:104C5C00184738B50D210546FFF7F8FF0A21044621
:104C6C002846FFF7F3FF204438BD38B50546FFF75B
:104C7C001FFC04462846FFF7ECFF204438BD30B536
:104C8C008BB00023012A8DF8243098BF0A2209AC7E
:104C9C000D46B1FBF2F101FB125303F0FF03092B9C
:104CAC0094BF30333733DBB2AA4204F8013DEFD95D
:104CBC002146FFF7FDFB0BB030BD10B50446FFF7E6
:104CCC0003FDE060236820465B699847002808DAFA
:104CDC00FFF7FAFCE368C01AA3689842F2D34FF0CE
:104CEC00FF3010BD2DE9F04107460C468E180D46DD
:104CFC00B542A5EB040807D03846FFF7DEFF031ECC
:104D0C0002DB05F8013BF3E74046BDE8F08100000B
:104D1C00014B024A1A6070475CDF032004560B00FB
:104D2C00024B1A68024B1A60704700BFBCDE0320AE
:104D3C0060DF03200021FFF767BD0000014B00225C
:104D4C009A60704764DF0320014B1860704700BF06
:104D5C00C0DE032008B50B4B43B100F067F90368C4
:104D6C001B699847002801DDAFF30080064B43B167
:104D7C0000F030FB03681B699847002801DDAFF396
:104D8C00008008BD000000000000000008B5FFF71F
:104D9C00E1FFFFF799FC014B186008BDF8DF032019
:104DAC000548064A064908B5121A00F03FFB054BA8
:104DBC00054A1A6008BD00BF00F4032004F4032068
:104DCC008C580B0000F403201E1C279A07B50023F7
:104DDC0000931A466FF07701FFF728FD03B05DF8DA
:104DEC0004FB000007B543880A2B08D0502B0BD1CD
:104DFC00094B1B684BB103B05DF804EB1847FFF788
:104E0C00E5FF03B05DF804FB002300931A466FF036
:104E1C007701FFF70BFDF4E778DF032010B512489C
:104E2C000021FFF7A5FD114B1A68114B9A42114B4B
:104E3C000CBF012200221A7001D0FFF7B1FFFFF75F
:104E4C003BFC044600F008FB0B4B13B12046AFF3C0
:104E5C00008000210848FFF763FDBDE810400748BB
:104E6C000021FFF7D9BC00BF554D0B0000F4032007
:104E7C001E1C279A74DF032000000000F14D0B006C
:104E8C00704710B518210446FFF7C3FA204610BD31
:104E9C00F0B5037D062B8DB00E4600F104074FF0E4
:104EAC00000412D000F1080515F8011D0A22304645
:104EBC00FFF7E5FEAF42044419D0002CF4D02E21AC
:104ECC003046FFF7C3FE0444EEE72F236A4639460B
:104EDC000A208DF80040FFF707FC6846FFF754FAEC
:104EEC0033680246DB6869463046984704462046DC
:104EFC000DB0F0BD10B5054B0446112240F8043B33
:104F0C00002100F0A1FA204610BD00BF2C560B006A
:104F1C000346074A10B543F8042B01F1100251F86F
:104F2C00044B43F8044B9142F9D10A781A7010BD26
:104F3C002C560B0010B59DF8084044EA032343EAB5
:104F4C00024242EA016104234160037510BD000076
:104F5C0007B5064B0360CB7800938B784A780978B9
:104F6C00FFF7E8FF03B05DF804FB00BF2C560B0005
:104F7C00417470477047704708B50021007CFFF7FB
:104F8C001BFC40EAE07008BD08B50121007CFFF76E
:104F9C0013FC40EAE07008BD08B5007CFFF704FC88
:104FAC0020EAE07008BD08B5007CFFF7F5FB20EAAD
:104FBC00E07008BD13B50446007C0191FFF7F4FBCB
:104FCC000028019901DC607C20B1207CFFF7FCFB00
:104FDC0020EAE07002B010BD007CFFF7FDBB10B5FD
:104FEC0014210446FFF715FA204610BD10B54FF4F6
:104FFC007A73044608460021C4E90113044B23606C
:10500C000123207463741146FFF7B6FB204610BDD4
:10501C0040560B00007C0022FFF7B6BB10B51422E3
:10502C000446002100F010FA204610BD10B50F4CBC
:10503C0088B003A8FFF7F2FF2178BFF35B8F11F064
:10504C0001010FD120460191FFF79AFC019948B15B
:10505C0003AA0748FFF7CAFF2046FFF799FC05484B
:10506C0000F0DEF9024808B010BD00BF7CDF032061
:10507C0080DF0320814F0B00002240681146FFF7B0
:10508C00F7BB002240681146FFF712BC00224068B3
:10509C001146FFF71DBC40680022FFF711BC4068A9
:1050AC00002281F00101FFF7FBBB002340681A4688
:1050BC001946FFF7EDBB002340681A461946FFF767
:1050CC00DFBB002240681146FFF7C2BB40680022DC
:1050DC000221FFF7C5BB002340681A46FFF7B0BB9F
:1050EC00084B10B5282422461846002100F0ACF9D4
:1050FC00054B04804FF0FF32426004225A60034A91
:10510C001A6010BD9CDF032094DF032074560B0043
:10511C0070474174704708B5007CFFF715FB20EA17
:10512C00E07008BD08B5007CFFF7EEFA20EAE070ED
:10513C0008BD08B5007CFFF7F7FA40EAE07008BD3F
:10514C0008B5007CFFF7E8FA40EAE07008BD007C87
:10515C00FFF7F2BA37B5457C04462DB1207C03B07D
:10516C00BDE83040FFF7C8BA007C0191FFF7ECFABC
:10517C0000280199F2DC284603B030BD10B514218B
:10518C000446FFF746F9204610BD000010B54FF459
:10519C007A730446084611460022C4E90123044BE5
:1051AC002360012320746374FFF7DEFA204610BDE0
:1051BC00B8560B00007C0023FFF7CEBA0022FFF795
:1051CC00F9BF0000054BFF210022C3E900120120AA
:1051DC006421C3E902011A61704700BFC4DF0320D8
:1051EC00002340681A46FFF72BBB406800220221BF
:1051FC00FFF736BB002240681146FFF729BB00229F
:10520C0040681146FFF734BB002340681A46194624
:10521C00FFF736BB002340681A461946FFF738BB28
:10522C0040680021FFF75CBB40680021FFF760BBC2
:10523C004068002281F00101FFF732BB4068002278
:10524C00FFF73EBB002240681146FFF741BB00222E
:10525C0040681146FFF72CBB40680021FFF758BB94
:10526C002DE9F043002699B00D46144698460746A2
:10527C00FFF740FE1C22314611A8039600F0E4F81B
:10528C00B8F1000F2CD1402368681093049618B124
:10529C0004A9C0B2FFF708FA049B0093204603ABA5
:1052AC0010AA0021FFF7F8F9044600284DD1024658
:1052BC0001216868FFF7DCFA022180462246686803
:1052CC00FFF7D6FA039E81462146002E3DD00029D9
:1052DC003BD17368022B05D00A2B13D0F669F4E787
:1052EC001D4BD1E7B8F1000FF8D071690AA8043151
:1052FC000BADFFF72DFE0FCD3C1D0FC42B6823709B
:10530C004146EBE7B9F1000FE8D07469102205A80B
:10531C0000F09AF806238DF8243005AD04F108034B
:10532C001834186859682A4603C20833A342154634
:10533C00F7D105A90AA80BADFFF7EAFD0FCD3C1D6F
:10534C000FC42B6823704946C8E70398FFF79CF9F4
:10535C00384619B0BDE8F0834000004003380328FC
:10536C009ABF024B53F8200001487047E4560B00DB
:10537C00D8DF032008B500224068FFF7C1FABDE86A
:10538C000840FFF7EBBF0000024B034A1A600022F3
:10539C005A607047D8DF0320FC560B0070470000A2
:1053AC0038B5044614252A46002100F04DF8258016
:1053BC004025074925812846258200F02FF804490D
:1053CC006060284600F02AF8E060204638BD00BF37
:1053DC0038570B0030B50E4D2978BFF35B8F11F0A9
:1053EC00010487B011D12846FFF7CAFA68B101A8A9
:1053FC00FFF7D6FF01AA21460648FFF7C7FE28464D
:10540C00FFF7C6FA044800F00BF8024807B030BDAD
:10541C00E0DF0320E4DF0320A9530B00FEF7F7BF06
:10542C00002301461A461846FEF7F5BF0A4491427E
:10543C0000F1FF3300D1704710B511F8014B03F8A0
:10544C00014F9142F9D110BD02440346934200D161
:10545C00704703F8011BF9E738B5104B1D68AB6BAF
:10546C000446B3B91820FFF763FA0246A86320B9C3
:10547C000B4B0C484221FFF773FA0B490B4BC0E95D
:10548C0000130B4B83600B23838100210120C2E9A5
:10549C000401AB6B00221C615A6138BDC0DE0320D5
:1054AC0039570B0050570B000E33CDAB34126DE651
:1054BC00ECDE0500A5430B00E1430B0009440B0097
:1054CC000D440B000000000041542B5645523F0088
:1054DC00556E6B6E6F776E000000000000000000D0
:1054EC0025440B0049440B0029440B0035440B00A8
:1054FC0041440B0045440B0029440B0053656E736B
:10550C006F7220696E6974206572722121210046C8
:10551C0069726D776172652056657273696F6E3A48
:10552C00090053656E736F7220576F726B696E67EB
:10553C0054696D653A20256C752048003120486F00
:10554C007572205261696E66616C6C3A20252E3240
:10555C0066206D6D005261772054697070696E67BA
:10556C0020436F756E74733A20256C750000000033
:10557C0000000000000000000B4A0B00014A0B0069
:10558C00F7490B00ED490B00E1490B00D5490B0025
:10559C002D520B0035520B00C9490B00C1490B00B1
:1055AC00B7490B00AD490B0081530B0065520B0042
:1055BC006D520B000000000000000000974A0B0029
:1055CC008D4A0B00834A0B00794A0B006D4A0B0085
:1055DC00614A0B002D520B0035520B00554A0B0043
:1055EC004D4A0B00434A0B00394A0B0081530B0008
:1055FC0065520B006D520B006170700025592D2502
:10560C006D2D25645425483A254D3A2553257A00AD
:10561C0061736374696D6500000000000000000098
:10562C009D4E0B008D4E0B008F4E0B0000000000AA
:10563C0000000000834F0B00EB4F0B00C14F0B0021
:10564C002D4C0B00B34F0B00854F0B00954F0B00EF
:10565C00E54F0B00F14C0B00A54F0B007D4F0B00E1
:10566C000000000000000000E3500B00D9500B00BC
:10567C00CF500B0085500B00C3500B00B7500B00E4
:10568C002D520B0035520B00AB500B00A3500B00EE
:10569C0099500B008F500B0081530B0065520B007F
:1056AC006D520B0000000000000000001D510B00AB
:1056BC0089510B0061510B002D4C0B0031510B002B
:1056CC004D510B003F510B005B510B00F14C0B008B
:1056DC001F510B0023510B002CDF032094DF032000
:1056EC00D8DF032040DF0320000000000000000092
:1056FC00ED510B00F7510B0001520B000B520B003C
:10570C0015520B0021520B002D520B0035520B0081
:10571C003D520B0049520B0051520B005B520B00D7
:10572C0081530B0065520B006D520B000052454526
:10573C004E54206D616C6C6F63207375636365658B
:10574C00646564002F6D6E742F776F726B7370616C
:10575C0063652F776F726B73706163652F4743437B
:10576C002D31302D706970656C696E652F6A656EB0
:10577C006B696E732D4743432D31302D7069706505
:10578C006C696E652D34385F3230323031313234E1
:10579C005F313630363138303634312F7372632FF7
:1057AC006E65776C69622F6E65776C69622F6C69B8
:1057BC0062632F7374646C69622F72616E642E6302
:1057CC000000000011450B00154A0B00294A0B0084
:1057DC00A14A0B00B54A0B001D4C0B001D4D0B00D4
:1057EC002D4D0B00494D0B00ED500B00D1510B0012
:0457FC0095530B00B6
:10580000040000001400000003000000474E550093
:105810005058AADD2C8F28942184E705FF11842C91
:0458200035057C418D
:105824001C560B00C4DE0320000000000000000032
:105834000000000000000000000000000000000064
:105844000000000000000000000000000000000054
:105854000000000000000000000000000000000044
:105864000000000000000000000000000000000034
:105874000000000000000000000000000000000024
:0858840000000000000000001C
:04588C000000000018
:1058960000000102030405060708090A0B0C0D0E99
:1058A6000F101112131415161718191A1B1C1D1E8A
:0458B6001F20280087
:0458BA0078563412D6
:04000003B000401CED
:00000001FF
