:02000002B0004C
:1040000000400B00067E0B00000006000D000502BC
:084010000401A01800000000EB
:04401800A8770B007A
:1040200081F0004102E000BF83F0004330B54FEA69
:1040300041044FEA430594EA050F08BF90EA020FD6
:104040001FBF54EA000C55EA020C7FEA645C7FEA69
:10405000655C00F0E2804FEA5454D4EB5555B8BF8C
:104060006D420CDD2C4480EA020281EA030382EAFD
:10407000000083EA010180EA020281EA0303362D8F
:1040800088BF30BD11F0004F4FEA01314FF4801C62
:104090004CEA113102D0404261EB410113F0004F74
:1040A0004FEA03334CEA133302D0524263EB43032B
:1040B00094EA050F00F0A780A4F10104D5F1200EC9
:1040C0000DDB02FA0EFC22FA05F2801841F1000124
:1040D00003FA0EF2801843FA05F359410EE0A5F1F8
:1040E00020050EF1200E012A03FA0EFC28BF4CF029
:1040F000020C43FA05F3C01851EBE37101F00045DF
:1041000007D54FF0000EDCF1000C7EEB00006EEBEB
:104110000101B1F5801F1BD3B1F5001F0CD3490875
:104120005FEA30004FEA3C0C04F101044FEA4452CC
:1041300012F5800F80F09A80BCF1004F08BF5FEA53
:10414000500C50F1000041EB045141EA050130BD33
:104150005FEA4C0C404141EB0101013C28BFB1F545
:10416000801FE9D291F0000F04BF01460020B1FA90
:1041700081F308BF2033A3F10B03B3F120020CDA63
:104180000C3208DD02F1140CC2F10C0201FA0CF041
:1041900021FA02F10CE002F11402D8BFC2F1200CA6
:1041A00001FA02F120FA0CFCDCBF41EA0C0190405C
:1041B000E41AA2BF01EB0451294330BD6FEA0404A5
:1041C0001F3C1CDA0C340EDC04F11404C4F1200290
:1041D00020FA04F001FA02F340EA030021FA04F3A2
:1041E00045EA030130BDC4F10C04C4F1200220FAF9
:1041F00002F001FA04F340EA0300294630BD21FA37
:1042000004F0294630BD94F0000F83F4801306BFFC
:1042100081F480110134013D4EE77FEA645C18BFF0
:104220007FEA655C29D094EA050F08BF90EA020F87
:1042300005D054EA000C04BF1946104630BD91EA7F
:10424000030F1EBF0021002030BD5FEA545C05D182
:104250004000494128BF41F0004130BD14F58004C1
:104260003CBF01F5801130BD01F0004545F0FE4135
:1042700041F470014FF0000030BD7FEA645C1ABF6A
:10428000194610467FEA655C1CBF0B46024650EAA1
:10429000013406BF52EA033591EA030F41F40021CD
:1042A00030BD00BF90F0000F04BF0021704730B553
:1042B0004FF4806404F132044FF000054FF0000128
:1042C00050E700BF90F0000F04BF0021704730B5E9
:1042D0004FF4806404F1320410F0004548BF4042BE
:1042E0004FF000013EE700BF42004FEAE2014FEA13
:1042F00031014FEA02701FBF12F07F4393F07F4FEE
:1043000081F06051704732F07F4208BF704793F0F0
:104310007F4F04BF41F40021704730B54FF4607403
:1043200001F0004521F000411CE700BF50EA010206
:1043300008BF704730B54FF000050AE050EA0102AF
:1043400008BF704730B511F0004502D5404261EB1F
:1043500041014FF4806404F132045FEA915C3FF460
:10436000D8AE4FF003025FEADC0C18BF03325FEAFD
:10437000DC0C18BF033202EBDC02C2F1200300FAAE
:1043800003FC20FA02F001FA03FE40EA0E0021FAD3
:1043900002F11444BDE600BF70B54FF0FF0C4CF4C1
:1043A000E06C1CEA11541DBF1CEA135594EA0C0F73
:1043B00095EA0C0F00F0DEF82C4481EA030621EAAE
:1043C0004C5123EA4C5350EA013518BF52EA0335E9
:1043D00041F4801143F4801338D0A0FB02CE4FF09B
:1043E0000005E1FB02E506F00042E0FB03E54FF0CB
:1043F0000006E1FB03569CF0000F18BF4EF0010EC3
:10440000A4F1FF04B6F5007F64F5407404D25FEABE
:104410004E0E6D4146EB060642EAC62141EA555171
:104420004FEAC52040EA5E504FEACE2EB4F1FD0CB3
:1044300088BFBCF5E06F1ED8BEF1004F08BF5FEA31
:10444000500E50F1000041EB045170BD06F00046E3
:1044500046EA010140EA020081EA0301B4EB5C0490
:10446000C2BFD4EB0C0541EA045170BD41F4801188
:104470004FF0000E013C00F3AB8014F1360FDEBFAD
:10448000002001F0004170BDC4F10004203C35DA89
:104490000C341BDC04F11404C4F1200500FA05F30C
:1044A00020FA04F001FA05F240EA020001F00042AD
:1044B00021F0004110EBD37021FA04F642EB060123
:1044C0005EEA430E08BF20EAD37070BDC4F10C044D
:1044D000C4F1200500FA04F320FA05F001FA04F211
:1044E00040EA020001F0004110EBD37041F10001FD
:1044F0005EEA430E08BF20EAD37070BDC4F1200508
:1045000000FA05F24EEA020E20FA04F301FA05F26F
:1045100043EA020321FA04F001F0004121FA04F217
:1045200020EA020000EBD3705EEA430E08BF20EAE7
:10453000D37070BD94F0000F0FD101F00046400021
:1045400041EB010111F4801F08BF013CF7D041EAA3
:10455000060195F0000F18BF704703F000465200A7
:1045600043EB030313F4801F08BF013DF7D043EA78
:104570000603704794EA0C0F0CEA135518BF95EA2E
:104580000C0F0CD050EA410618BF52EA4306D1D1B5
:1045900081EA030101F000414FF0000070BD50EAD4
:1045A000410606BF1046194652EA430619D094EA5E
:1045B0000C0F02D150EA013613D195EA0C0F05D148
:1045C00052EA03361CBF104619460AD181EA03019C
:1045D00001F0004141F0FE4141F470014FF0000054
:1045E00070BD41F0FE4141F4780170BD70B54FF0EF
:1045F000FF0C4CF4E06C1CEA11541DBF1CEA13556F
:1046000094EA0C0F95EA0C0F00F0A7F8A4EB050450
:1046100081EA030E52EA03354FEA013100F0888047
:104620004FEA03334FF0805545EA131343EA126310
:104630004FEA022245EA111545EA10654FEA0026C5
:104640000EF000419D4208BF964244F1FD0404F57E
:10465000407402D25B084FEA3202B61A65EB0305DA
:104660005B084FEA32024FF480104FF4002CB6EB97
:10467000020E75EB030E22BFB61A754640EA0C0017
:104680005B084FEA3202B6EB020E75EB030E22BF57
:10469000B61A754640EA5C005B084FEA3202B6EB98
:1046A000020E75EB030E22BFB61A754640EA9C0057
:1046B0005B084FEA3202B6EB020E75EB030E22BF27
:1046C000B61A754640EADC0055EA060E18D04FEAE5
:1046D000051545EA16754FEA06164FEAC30343EA85
:1046E00052734FEAC2025FEA1C1CC0D111F4801F52
:1046F0000BD141EA00014FF000004FF0004CB6E74B
:1047000011F4801F04BF01430020B4F1FD0C88BFE9
:10471000BCF5E06F3FF6AFAEB5EB030C04BFB6EBF4
:10472000020C5FEA500C50F1000041EB045170BDE7
:104730000EF0004E4EEA113114EB5C04C2BFD4EB14
:104740000C0541EA045170BD41F480114FF0000E98
:10475000013C90E645EA060E8DE60CEA135594EA14
:104760000C0F08BF95EA0C0F3FF43BAF94EA0C0F17
:104770000AD150EA01347FF434AF95EA0C0F7FF48C
:1047800025AF104619462CE795EA0C0F06D152EAE0
:1047900003353FF4FDAE1046194622E750EA4106C4
:1047A00018BF52EA43067FF4C5AE50EA41047FF4D5
:1047B0000DAF52EA43057FF4EBAE12E74FEA410238
:1047C000B2F1E04324BFB3F5001CDCF1FE5C0DD96F
:1047D00001F0004C4FEAC0024CEA5070B2F1004FB9
:1047E00040EB830008BF20F00100704711F0804FBC
:1047F00021D113F13872BCBF01F00040704741F481
:1048000080114FEA5252C2F11802C2F1200C10FA84
:104810000CF320FA02F018BF40F001004FEAC12368
:104820004FEAD32303FA0CFC40EA0C0023FA02F30C
:104830004FEA4303CCE77FEA625307D150EA0133E2
:104840001EBF4FF0FE4040F44000704701F00040B2
:1048500040F0FE4040F40000704700BF10F8012B0C
:1048600011F8013B012A28BF9A42F7D0D01A7047AD
:10487000034613F8012B002AFBD1181A01387047A0
:1048800009480A49884208B505D0094A824202D03F
:10489000121A02F057FE0748074A0021121A02F0C6
:1048A00079FE014808BD00BF24DE0320687D0B00AF
:1048B00094DE032094DE0320FCDF032070B5074E56
:1048C000074C02F083F8A41BA4080025AC4200D1D9
:1048D00070BD56F8043B98470135F7E7147D0B008F
:1048E000447D0B0000F064B808B500F0A5F8BDE801
:1048F000084002F023B800F051BD00F04FBD00F0B9
:1049000055BD000000B58DB02C22002101A87446D1
:1049100002F040FE054B0193054B029304947B4645
:10492000002101A8039300F093FCFEE72C000C008B
:10493000BC770B00704770470A4B10B50446036004
:1049400001F080F9214601F0CAFB02F04BF902F0B8
:104950003DF92046044B40F8043B01F049FA20465B
:1049600010BD00BF78780B0060780B0010B50446CE
:10497000FFF7E2FF20462421FFF7C1FF204610BDCC
:104980000EB400B58CB00DAA4FF0200C52F8041BE9
:104990000392CDE900120023016804AA1E20CDE98C
:1049A00004C300F03DFC0CB05DF804EB03B07047AD
:1049B00030B51B481B4D40681B4C0023194685B081
:1049C0001A4600F09BFC02F047FD4FF4165102F02E
:1049D000A9FB40F6B83001F085FF14491248FFF7F3
:1049E000CFFF134800F0EAFA40B920462946FFF706
:1049F000C7FF4FF47A7001F075FFF2E70D490A48DE
:104A0000FFF7BEFF68460A4900F086F9009906489C
:104A1000FFF7B6FF684600F00BFE05B030BD00BFE3
:104A20007CDF0320DB770B001CDF0320D1770B003A
:104A300094DE0320EE770B0038B51E4D1E4C284641
:104A400000F090FA10EE100AFFF74EFC02460B46FB
:104A500020461A49FFF794FF284600F0FDF910EEB2
:104A6000100AFFF741FC02460B4620461449FFF7A7
:104A700087FF2846012100F01BFA10EE100AFFF70D
:104A800033FC0B4602460F492046FFF779FF2846C4
:104A900000F04EFA0C4902462046FFF771FF20460F
:104AA0000A49FFF76DFFBDE838404FF47A7001F016
:104AB00019BF00BF94DE03201CDF032001780B0028
:104AC00023780B001C780B0035780B004D780B0019
:104AD00070B5D0E900531426044606FB0356AE42D7
:104AE00004D0284600F0A4FD1435F8E7206800F053
:104AF0005DFC204670BD8842F8B504460D4616465A
:104B000016D9904215D2A2F11406751AA1F1140714
:104B10002C44B7421CD02CB13146204600F0F1FDA8
:104B2000337C2374304600F083FD143E143CF0E7E0
:104B30000ED0B5420CD02CB12946204600F0E1FD44
:104B40002B7C2374284600F073FD14351434F0E7F1
:104B5000F8BD2DE9F0410023C0E9003383604F68C0
:104B60009F4204460E4623DD4FF0140808FB07F071
:104B700000F014FC0546D8B1D4E9001208FB02127B
:104B8000FFF7B9FF206800F011FC2560A760D6E9A7
:104B9000007308FB0378B84508D03946284600F072
:104BA000CAFD3B7C2B7414371435F4E773686360DB
:104BB0002046BDE8F081000070B5254B254A9A607B
:104BC00000248CB0C3E90044022000F04BFB02F04B
:104BD00083FC0146204800F0E5F9CDE90044029449
:104BE00002F000F81D4C0546694603A8FFF7B1FF27
:104BF000264603A906A8FFF7ACFF194B46F8043B6D
:104C000006A909A8FFF7A5FF09AA1E21304601F051
:104C100049FB09A8FFF75CFF06A8FFF759FF114BF6
:104C20002360256203A8FFF753FF0F4B236001F0B9
:104C3000D9FF4FF4165101F0C5FF01F003F82146EA
:104C400001F006FA6846FFF743FF0CB070BD00BFE5
:104C5000B0DE03200000FFFF94DE0320BCDE032053
:104C600060780B00BC790B0078780B00002070474F
:104C700000207047F8B504460E461F461546DAB1C7
:104C8000017E406902F0D4FA6069036831469B688E
:104C900098470026B3B29F42606906F1010604D925
:104CA0000268E95C92689047F4E702F0C9FA642070
:104CB00001F018FE0020F8BD0120FCE72DE9F843C3
:104CC00004460D461F4616460AB3017E406902F0AF
:104CD000AFFA6069036829469B689847606902F0EB
:104CE000AFFA054698B95FFA87F8217E60694246B7
:104CF00002F09BFA5FFA85F94F4505F1010508D9E5
:104D0000606903685B69984706F80900F2E74FF0AD
:104D100000084046BDE8F88370B50A7C0B6805467C
:104D200094B00846002A53D1ADF840201C6810AA60
:104D300002230A21A047BDF840400A22C4F30F31E4
:104D4000684600F015FD694604A800F0F4FC2E2129
:104D500004A800F05DFD0A220646C4F3032108A85A
:104D600000F006FD08A9304600F046FD2E2100F0B7
:104D70004FFD0A220646C4F303110CA800F0F8FC0C
:104D80000CA9304600F038FD2E2100F041FD0A222A
:104D9000064604F00F0110A800F0EAFC10A9304606
:104DA00000F02AFD0146284600F0C5FC10A800F0DE
:104DB0003FFC0CA800F03CFC08A800F039FC04A85B
:104DC00000F036FC684600F033FC284614B070BD95
:104DD0005B68052198470446AFE7000037B5017CC2
:104DE0000368044609BB01911D6804230DEB03020F
:104DF000A8479DF80730BDF804109A0202F440322B
:104E00000A43A2601B029DF8062003F47C5313435F
:104E10006360626843F243339A4219D1A0680D4B34
:104E2000C31A5842584103B030BD5B68002198470F
:104E30002368A0605B68012120469847830003F443
:104E40004032A368C0F30D001343A3606060E0E745
:104E50000020E8E7C000010037B5027C0368044683
:104E6000A2B901921C6804230DEB03021021A04794
:104E70000198FFF717FA0CA3D3E90023FFF7B6FB5D
:104E8000FFF79CFC00EE100A03B030BD5B680921FF
:104E90009847236805045B68082120469847284303
:104EA000E7E700BFAFF30080000000000088C340C8
:104EB0007FB5057C03688DF807100446FDB99E6830
:104EC0000DF1070201232621B047236803951D68D1
:104ED00003AA04230C212046A84718B9BFEE000AF4
:104EE00004B070BD0398FFF7DDF90FA3D3E90023E9
:104EF000FFF77CFBFFF762FC00EE100AF0E79DF87D
:104F00000720DB6806219847236807215B68204655
:104F10009847236805045B68062120469847284384
:104F2000E1E700BFAFF30080000000000088C3404D
:104F300037B5027C036804464AB901921C68042311
:104F40000DEB03021421A047019803B030BD5B684C
:104F50000B219847236805045B680A21204698477F
:104F60002843F2E713B5037C0268A3B9ADF8043017
:104F70001468022301AA1821A047BDF80400FFF716
:104F8000A1F9074B0022FFF731FBFFF717FC00EEFA
:104F9000100A02B010BD53680C219847EFE700BF1C
:104FA00000004E400022C0E901220274024A026061
:104FB0001D2241610276704790780B0010B50446BF
:104FC000406902F0FFF82046BDE81040FFF706BF39
:104FD00008B5024B1B689B68019308BD680203007B
:104FE00008B5024B1B685B69019308BD68020300AA
:104FF00008B5024B1B689B69019308BD6C02030056
:1050000008B5024B1B685B68019308BD18020300DA
:1050100008B5024B1B685B69019308BD18020300C9
:1050200008B5024B1B685B6C019308BD4802030086
:1050300008B5024B1B689B6C019308BD4802030036
:1050400008B5024B1B68DB6C019308BD48020300E6
:1050500008B5024B1B685B6D019308BD4802030055
:1050600008B5024B1B685B69019308BD640203002D
:1050700008B5024B1B689B68019308BD3C02030006
:1050800008B5024B1B68DB68019308BD3C020300B6
:1050900008B5024B1B681B69019308BD3C02030065
:1050A00008B5024B1B685B69019308BD3C02030015
:1050B00008B5024B1B689B69019308BD3C020300C5
:1050C00008B5024B1B68DB69019308BD3C02030075
:1050D00008B5024B1B689B6A019308BD3C020300A4
:1050E00008B5024B1B68DB6A019308BD3C02030054
:1050F00008B5024B1B681B6C019308BD3C02030002
:1051000008B5024B1B68DB68019308BD2802030049
:1051100008B5024B1B689B69019308BD2802030078
:1051200008B5024B1B68DB69019308BD2802030028
:1051300008B5024B1B681B6A019308BD28020300D7
:1051400008B5024B1B685B6A019308BD2802030087
:1051500008B5024B1B689B6A019308BD2802030037
:1051600008B5024B1B68DB6A019308BD28020300E7
:1051700008B5024B1B681B6B019308BD2802030096
:1051800008B5024B1B681B6C019308BD2802030085
:1051900008B5024B1B681B6D019308BD2802030074
:1051A00008B5024B1B681B68019308BD4C02030045
:1051B00008B5024B1B685B68019308BD4C020300F5
:1051C00008B5024B1B689B68019308BD4C020300A5
:1051D00008B5024B1B681B69019308BD4C02030014
:1051E00008B5024B1B685B69019308BD4C020300C4
:1051F00008B5024B1B689B69019308BD4C02030074
:1052000008B5024B1B68DB69019308BD4C02030023
:1052100008B5024B1B681B6A019308BD4C020300D2
:1052200008B5024B1B685B6D019308BD600203006B
:1052300008B5024B1B68DB6E019308BD60020300DA
:1052400008B5024B1B681B6F019308BD6002030089
:1052500008B5034B1B68D3F8D430019308BD000098
:105260006002030008B5024B1B685B68019308BD30
:105270002002030008B5024B1B685B69019308BD5F
:105280002002030008B5034B1B68D3F88830019354
:1052900008BD00002002030008B5034B1B68D3F8CB
:1052A0009430019308BD00002002030008B5024BB2
:1052B0001B685B68019308BD4002030008B5024B00
:1052C0001B689B68019308BD4002030008B5024BB0
:1052D0001B68DB68019308BD4002030008B5024B60
:1052E0001B681B69019308BD4002030008B5024B0F
:1052F0001B685B69019308BD4002030008B5024BBF
:105300001B689B69019308BD4002030008B5024B6E
:105310001B68DB69019308BD4002030008B5024B1E
:105320001B681B6A019308BD4002030008B5024BCD
:105330001B681B6B019308BD4002030008B5024BBC
:105340001B685B6B019308BD4002030008B5024B6C
:105350001B681B6C019308BD4002030008B5024B9B
:105360001B685B6C019308BD4002030008B5024B4B
:105370001B685B6D019308BD4002030008B5024B3A
:105380001B689B6D019308BD4002030008B5024BEA
:105390001B68DB6B019308BD4402030008B5024B98
:1053A0001B681B68019308BD1C02030008B5024B73
:1053B0001B685B68019308BD1C02030008B5024B23
:1053C0001B689B68019308BD1C02030008B5024BD3
:1053D0001B685B6A019308BD1C02030008B5024B01
:1053E0001B68DB6B019308BD1C02030008B5024B70
:1053F0001B681B6C019308BD1C02030008B5024B1F
:105400001B685B6C019308BD1C02030008B5024BCE
:105410001B689B6D019308BD1C02030008B5024B7D
:105420001B68DB6D019308BD1C020300002240686D
:105430001146FFF773BF002240681146FFF77EBF99
:1054400040680022FFF772BF4068002281F001012E
:10545000FFF75CBF002340681A461946FFF74EBFAE
:10546000002340681A461946FFF740BF00224068F3
:105470001146FFF733BF002240681146FFF71EBFF9
:10548000406800220221FFF721BF002340681A462E
:10549000FFF70CBF024B03225A60024A1A607047A2
:1054A000E0DE0320A8780B000B6803604B684360C4
:1054B00013B15A6801325A60704738B5046805461E
:1054C0007CB16368013B63605BB9236820469B68DD
:1054D0009847A368013BA3601BB923682046DB689B
:1054E0009847284638BD0000024B0022C3E900223D
:1054F0009A607047E8DE0320002240681146FFF7FB
:105500000DBF002240681146FFF718BF4068002217
:10551000FFF70CBF4068002281F00101FFF7F6BEE3
:10552000002340681A461946FFF7E8BE002340688A
:105530001A461946FFF7DABE002240681146FFF707
:10554000CDBE002240681146FFF7B8BE4068002279
:105550000221FFF7BBBE002340681A46FFF7A6BE34
:10556000024B06225A60024A1A607047F4DE03209A
:10557000EC780B00054B02221A60054B054A9A6035
:105580000020C3E90000FFF76DBE00BF08DF032065
:10559000FCDE03200000FFFF10B50446FFF768F9AA
:1055A000013823182046834206D90278197800F87A
:1055B000011B03F80129F6E710BD70B50C46911EDA
:1055C00022291DD8254630B9234430229D4210D2CD
:1055D00005F8012BFAE7B0FBF2F602FB1600C1B2A8
:1055E000092894BF30315731C9B205F8011B304644
:1055F000E9E7002320462B70FFF7CEFF204670BD61
:105600000020FCE738B5031E0C4615460EDAB3F150
:10561000004F4FF02D0214BF5842184601230A7064
:105620002A461944FFF7C9FF204638BD0123F9E790
:1056300010B504460068FFF7B9FE204610BD10B54E
:105640000446006808B1FFF7B1FE0023C4E9013346
:10565000236010BD38B504460D4600680131FFF7E0
:10566000ADFE10B1C4E90005012038BD10B50368D6
:10567000044623B143688B4201D3012010BD20466C
:10568000FFF7E8FF0028F9D0A368002BF5D12268C6
:105690001370F2E737B50D46114601920446FFF745
:1056A000E5FF019A28B92046FFF7C9FF204603B05D
:1056B00030BDA2602946206801F044FF2268A3683B
:1056C0000021D154F2E738B5054600680C4670B1A8
:1056D0006A688B689A4208D3096831B101F0A7FF64
:1056E000A368AB600023A36038BDFFF75FFE2368AB
:1056F0002B6063686B60A368AB600023C4E9003370
:10570000F1E710B50023C0E900330446836003735A
:10571000FFF7D9FF204610BD884210B5044605D0DA
:105720000B682BB18A681946FFF7B4FF204610BDFD
:10573000FFF785FFFAE710B500230446C0E9003300
:1057400083600373FFF7E8FF204610BD13B50446DE
:1057500059B108460191FFF78BF80199024620469E
:10576000FFF798FF204602B010BDFFF768FFF9E78A
:1057700070B50D468AB000210446C0E900111646F6
:10578000816001731E2202A8019101F003FF3246DD
:1057900001A92846FFF736FF01A92046FFF7D6FFEB
:1057A00020460AB070BDF8B5044616460F4609B942
:1057B0000020F8BD8AB1856815442946FFF756FFD9
:1057C0000028F5D0A368206832461844394601F015
:1057D000B9FE236800225A55A5600120E9E707B504
:1057E0000023ADF8043001228DF8041001A9FFF761
:1057F000DAFF03B05DF804FB10B58A680968044657
:10580000FFF7D1FF10B92046FFF719FF204610BD62
:1058100010B50446FFF7E3FF10B92046FFF70FFF6E
:10582000204610BD10B54368013B0446436063B990
:1058300003689B689847A368013BA3602BB9236862
:105840002046DB68BDE81040184710BD70B5D0E9B0
:105850000053044605EB0316AE4204D02846FFF77A
:10586000E7FE1035F8E72068FFF7A0FD204670BD81
:10587000024800230360FFF7D3BB00BF0CDF032007
:1058800010B5044680680368DB689847E3681844ED
:10589000E06010BDF8B506460D468F180024BD42E5
:1058A0000CD0336815F8011B9B6830469847031EDF
:1058B00001DB1C44F3E7002C08BF1C462046F8BD62
:1058C000704710B510210446FFF719F8204610BDA7
:1058D00013B50446084659B10191FEF7C9FF236884
:1058E0000199DB680246204602B0BDE81040184727
:1058F00002B010BD03689B68184730B58BB0002319
:10590000012A8DF8243098BF0A2209AC0D46B1FB5C
:10591000F2F101FB125303F0FF03092B94BF303364
:105920003733DBB2AA4204F8013DEFD92146FFF735
:10593000CFFF0BB030BD10B50446FFF769FBE06048
:10594000236820465B699847002808DAFFF760FB68
:10595000E368C01AA3689842F2D34FF0FF3010BD3D
:105960002DE9F04107460C468E180D46B542A5EBD1
:10597000040807D03846FFF7DEFF031E02DB05F8F8
:10598000013BF3E74046BDE8F0817047084611B19E
:105990000B685B681847704770477047704738B5A9
:1059A00004460D4600682E2101F037FE2368C31A15
:1059B0002B6023B1037803B10130236820601846BF
:1059C00038BD10B504210446FEF799FF204610BDEE
:1059D00010B504210446FEF792FF204610BDFFF7E4
:1059E0002FBB08B5FEF73AFFB0FA80F0400908BDBA
:1059F000704710B50C4601F0F5F8844210D001F064
:105A00002BFD844205D101F027FDBDE8104001F0D7
:105A10008CBB2CB1236820465B68BDE8104018475A
:105A200010BD13B5044608460191FEF721FF019908
:105A30000246204602B0BDE8104001F0C1BA13B5DD
:105A4000044608460191FEF713FF23680199DB68BD
:105A50000246204602B0BDE81040184707B503686B
:105A60008DF80710DB6801220DF10701984703B09C
:105A70005DF804FB2DE9F74FD0E900844FF0140ADC
:105A800000930AFB04F4184BA41017465C434546E8
:105A9000002C21DD66100AFB06F005EB00093A46F2
:105AA000B9F804B0285801915F4528BF5A4601F063
:105AB000C6FD002801994FF001030BD15F4503D1CA
:105AC000009A13703446E3E7FCD9A61B09F11405CC
:105AD000013EF7E7F9DBF5E7A5EB08050248AD1055
:105AE000684303B0BDE8F08FCDCCCCCC7FB5036963
:105AF000057E019103B3F9B1002600F10C04039671
:105B000003A901A8FFF74BFF0146A8B10DF10B0354
:105B1000039A8DF80B602046FFF7ACFF9DF80B3021
:105B200053B12368142404FB0034083434F9023CD4
:105B3000002BA8BFDDB2E3E7284604B070BD0EB469
:105B4000F0B58CB000AF07F14405044655F8042BBE
:105B50007A602B46202107F11000FD60FFF736FC2C
:105B60001F287A681AD900F1080323F007036E464C
:105B7000ADEB030D411C2B466846FD60FFF726FC8C
:105B8000021E04DD23686946DB6820469847B54657
:105B90003037BD46BDE8F04003B070470028F7D06D
:105BA00023680246DB6807F1100120469847EFE7BB
:105BB00010B5094C2378BFF35B8FDB0709D420466F
:105BC000FFF724FC28B12046FFF728FC034801F02A
:105BD000ABFC034810BD00BF14DF032099590B0034
:105BE00024DE032010B5094C2378BFF35B8FDB075D
:105BF00009D42046FFF70AFC28B12046FFF70EFC27
:105C0000034801F091FC034810BD00BF18DF0320DA
:105C1000F1590B0028DE032038B500250446C0E901
:105C20000055C0E904558560856140F8245FFFF7A1
:105C3000F7F9FFF7BDFFE061FFF7D4FF257320629E
:105C4000204638BD10B50A4C2378BFF35B8FDB07C5
:105C50000CD42046FFF7DAFB40B10648FFF7DCFF23
:105C60002046FFF7DBFB044801F05EFC014810BD55
:105C700010DF032020DF0320BD610B00024A03492F
:105C800003480023FFF7DCBAA15F0B002D5F0B0078
:105C9000AD5E0B0000231A4619461846FFF7D0BA2E
:105CA00037B58D6804466846FFF7FEFB6A4629460D
:105CB000204601F0A5F801A8FFF7FFFB204603B03E
:105CC00030BD37B5CD6804466846FFF7EDFB6A4640
:105CD0002946204601F070F801A8FFF7EEFB2046A8
:105CE00003B030BD37B50D6904466846FFF7DCFBED
:105CF0006A462946204601F008F801A8FFF7DDFBB7
:105D0000204603B030BD000070B58AB00D46014694
:105D100004A8FFF7C5FF144E04A801F089F8E8B104
:105D200004A96846FFF7CDFF02983146FFF759FEF8
:105D3000044610B12C1E18BF012401A8FFF7BDFBBB
:105D4000002CE9D004A96846FFF7CCFF684601F0B3
:105D500012F8286001A8FFF7B0FBDDE705A8FFF700
:105D6000ACFB0AB070BD00BF40790B0037B50C46E4
:105D7000204613491546FEF771FD50B900F032FF79
:105D80004FF4165100F01EFF03B0BDE8304000F0A4
:105D900029BF0C492046FEF761FD78B94FF4165330
:105DA00001A928460193FFF7AFFF01F055FB0199C8
:105DB00001F0B8F901F050FB03B030BD0020FBE763
:105DC00045790B004C790B0070B5D0E900531426CF
:105DD000044606FB0356AE4205D005F10800FFF766
:105DE000F3FF1435F7E72068FFF7E0FA204670BDAF
:105DF00010B504460C30FFF7E7FF2046FFF726FDFD
:105E0000204610BD10B5044B044640F8043BFFF794
:105E1000EFFF204610BD00BF60780B0010B50446B0
:105E2000FFF7F0FF20462421FEF769FD204610BD54
:105E300010B5034B03600446FFF7E4FF204610BD96
:105E4000D4790B0010B50446FFF7F2FF2046242159
:105E5000FEF755FD204610BD0A6802604A684260A0
:105E60000022C0E9022210B502618C688460CC680F
:105E7000C4600C698A60CA6004610A6110BD0022B6
:105E8000C0E9002210B582600C6804604C68446070
:105E90008C680A604A6084608A6010BD10B503682F
:105EA00004461868FFF7D4F8204610BD2DE9F04FDE
:105EB00087B0804603931C4B5B68C3F30803894695
:105EC00016466BB9FFF7BEFE044600F12403406A94
:105ED0000593FFF784FD237B2BB105A8FFF7DEFFB9
:105EE00007B0BDE8F08F01232373D4E900535FFAB4
:105EF00089F905EB830AAA4512D055F8047B31468F
:105F0000381DFFF7F3FD8145F5D33B68039A0092F6
:105F1000D3F808B04A46334641463846D847EAE700
:105F200000232373D9E700BF00ED00E02DE9F74F10
:105F30009B461A4B5B68C3F30803804689461646A6
:105F40006BB9FFF77FFE044600F12403406A01931A
:105F5000FFF745FD237B2BB101A8FFF79FFF03B09F
:105F6000BDE8F08F01232373D4E90053F6B205EBAB
:105F7000830A55450ED055F8047B5946381DFFF766
:105F8000B5FD8642F5D33B684A46DB684146384654
:105F90009847EEE700232373DEE700BF00ED00E043
:105FA0002DE9F341164B5B68C3F3080305460F4622
:105FB0001BBBFFF747FE00F124030446406A019330
:105FC000FFF70DFDD4E90063462406EB8308B045D6
:105FD00009D101A8FFF762FFA542B4BF002001204C
:105FE00002B0BDE8F08156F8040B39460430FFF7E3
:105FF0007DFD8442A8BF0446E9E70020F0E700BF2A
:1060000000ED00E0F8B5D0E901539D4204460E468C
:106010000DDB6F1C002F006804DDB900FFF7CEF91F
:1060200018B9F8BDFFF7C2F900202060A760276803
:10603000626807EB85019200A2EB8502081D01F062
:106040008FFA47F825606368013363600120E8E751
:1060500037B500F124030446406A01930D46FFF76B
:10606000BEFCD4E9003203EB8202934219460BD006
:106070000968A94203F10403F7D101A8FFF70EFF55
:106080000025284603B030BD29462046FFF7BAFF59
:1060900005460028F1D06368012B01D1FFF7EEFD22
:1060A00001A8FFF7FBFEECE770B50446D0E900025B
:1060B0000B4600EB820282420FD001461D6851F868
:1060C000046BAE4207D1521A01F04AFA6368013BF1
:1060D0006360012070BD0846EDE70020FAE71FB5B8
:1060E00000F124030446406A01910393FFF777FC13
:1060F00001A92046FFF7D8FF18B163680BB9FFF775
:10610000C9FD03A8FFF7CAFE04B010BD70B5D0E901
:1061100004561823044603FB0656AE4215D005F17B
:1061200010012046FFF7C0FF63680BB9FFF7B2FD0F
:10613000E06929690368DB689847696919B1206AD1
:106140000368DB6898471835E7E7D4E90453182655
:1061500006FB0356AE4204D02846FFF769FA18350D
:10616000F8E70023636170BD73B50446FFF792FD45
:1061700004F12403606A0193FFF731FC2046FFF726
:10618000C5FF01A8FFF78AFE606A08B1FEF750FF5D
:10619000D4E90453182606FB0356AE4204D0284621
:1061A000FFF746FA1835F8E72069FFF7FFF820688F
:1061B000FFF7FCF8204602B070BD00000148FFF771
:1061C000D3BF00BF20DF03208842F8B504460D4648
:1061D000164615D9904214D2A2F11406751AA1F1EF
:1061E00014072C44B7421AD01CB131462046FFF7A1
:1061F00033FE06F10800FFF7E7FD143E143CF1E71B
:106200000DD0B5420BD01CB129462046FFF724FE25
:1062100005F10800FFF7D8FD14351434F1E7F8BD97
:106220008842F8B504460D46164614D9904213D25A
:10623000A2F11006751AA1F110072C44B74218D02C
:106240001CB131462046FFF75CFA3046FFF7F0F903
:10625000103E103CF2E70CD0B5420AD01CB12946E2
:106260002046FFF74EFA2846FFF7E2F910351034C2
:10627000F2E7F8BD70B50E1E054611DD3001FFF7DF
:106280008DF8044658B1D5E9001201EB0212FFF770
:10629000C7FF2868FFF78AF82C60AE60012070BD48
:1062A0000024F6E72DE9F04F904695B000230391C6
:1062B000D8F804100A9346229942C0E90033C0E995
:1062C0000233C0E90433CDE908330446027623DC07
:1062D000D8E90057142303FB0757AF423BD02946A8
:1062E0000BA8FFF70EFA0BA90FA8099EFFF709FAF2
:1062F000DDE9091399421BDA089B099A03EB06169C
:1063000003EB0212314606F11000FFF789FFEEB9E8
:10631000099B0133099311E008A8FFF7ABFF0028A0
:10632000D6D108A8FFF792FA204615B0BDE8F08F45
:10633000013108A8FFF79EFF0028DDD10FA8FFF765
:1063400077F90BA8FFF774F91435C6E70FA93046A3
:10635000FFF7D7F9DCE70026CDE90B660D964FF085
:106360001409DDE908239E427CDA3301D3580693F1
:106370000BB90136F5E70023079309FB06F30293F7
:106380000BAD07A906A8FFF70AFB82460028F0D04C
:106390004FF000038DF817300146079A0DF11703EF
:1063A0002846FFF767FB9DF817700190002F4AD130
:1063B000BDF81C30ADF84030CDE911774FF6FF73D2
:1063C000CDF83CA0ADF842301397D5E901329342A5
:1063D00017DB03F1010ABAF1000F30DD09FB0AF007
:1063E000FEF7DCFF834660B3D5E9001209FB021219
:1063F000FFF7EAFE2868FEF7D9FFC5F800B0C5F838
:1064000008A02B68019A09FB023A6A68514609FB09
:1064100002320AF11400FFF7D7FEBAF1000F03D0E1
:106420000FA95046FFF718FD6B6801336B6011A888
:10643000FFF7CAFC3FB10BA8FFF7C6FC71E7BB46EC
:10644000D8E70127F3E7019B2D6809FB0355069B5D
:106450001B782BB9D8F80030029A13441B7CEB80D0
:1064600008358EE72168226062686360A36809923C
:106470000A9A0A93E368A2600B9A0B932369E2607D
:106480000C9A0C93636922610D9A0D93039B0891FA
:1064900062612376CFE70000F0B5044687B00D4671
:1064A0002646194668461746FEF753FB0B4B46F83F
:1064B000043B694603A8FEF74CFB03AA3946304665
:1064C000FFF7F0FE03A8FEF703FB6846FEF700FBAC
:1064D000034B23602046256207B0F0BD60780B00B7
:1064E000BC790B00F0B50F4685B01D490A9C3846B3
:1064F00016461D46FEF7B2F9C0B9A4B1294601A857
:10650000FFF7BDFC1749242001F00AF8054630B119
:1065100001AB32462146FFF7BFFF134B2B6001A8AA
:10652000FEF7D6FA2C46204605B0F0BD0F49384696
:10653000FEF794F990B9002CF5D0294601A8FFF791
:106540009EFC0849242000F0EBFF05460028E6D019
:1065500001AB32462146FFF79FFFE0E70024E2E768
:1065600054790B007C7B0B00D4790B0058790B001D
:10657000014B024A1A6070471CDF032069790B0047
:106580002DE9F047089DD0F8209004460E461746A6
:10659000984600F027FB81454CD02B79190704D58C
:1065A0006A6954492046FFF7CAFAB8F1000F0DD0C6
:1065B0005B212046FFF752FA41462046FFF73FFA9B
:1065C00023684D49DB680222204698472B79DA0779
:1065D00023D5D5F808802F21404601F044F808B1B2
:1065E00000F1010841462046FFF729FA2B799B0765
:1065F00008D53A212046FFF731FAEA683F4920469C
:10660000FFF79DFA2A79236812F0040FDB6814BFA4
:106610003B493C490222204698472B7958071DD513
:1066200029690B461A4613F8010B60B1202808D1DE
:106630001946F7E7344800F04CFE0028ADD0BDE81D
:10664000F0872828EED12368521ADB682046984745
:1066500023682E49DB6804222046984700213846EB
:10666000FEF7E6FD01462046FFF7E9F923682549D4
:10667000DB680222204698471EB131462046FFF7CC
:10668000DEF92B7913F0300F2CD023682049DB681A
:106690000222204698472B79D9060AD523681D493E
:1066A000DB68072220469847AA691B492046FFF766
:1066B00046FA2B799A0611D5DB0605D523681049D1
:1066C000DB6802222046984723681449DB6820468D
:1066D0000A229847E9692046FFF7B1F95D21204673
:1066E000FFF7BCF923680E49DB6820460222BDE8AB
:1066F000F04718476D790B0074790B0077790B0020
:106700007A790B007F790B00C0DF03207D790B00C5
:1067100082790B0085790B008D790B0090790B0045
:106720009B790B002DE9F0410446076A0D46164699
:1067300000F058FA874207D0206A0368324629469B
:10674000DB68BDE8F0411847034800F0C2FD0028AF
:10675000F2D0BDE8F08100BFC0DF03202DE9F04397
:1067600085B0D0F820900C9C05460F4690461E46FA
:1067700000F038FA814505D1494800F0AAFD00280B
:1067800040F08A802B6A474A00924FF00009684621
:10679000CDE902398DF8049000F073FB494640467C
:1067A000FEF746FD404980460122684600F0F8FBAE
:1067B0004146FFF736F93FB13C490122684600F0F7
:1067C000EFFB3946FFF72DF93EB139490122684602
:1067D00000F0E6FB3146FFF724F92379DF070ED5F9
:1067E000A6682F21304600F03EFF00B1461C31491B
:1067F0000122684600F0D4FB3146FFF712F92379F5
:106800009E0707D52C490222684600F0C9FBE168C3
:1068100000F044FB2379580714D5266933461F46F8
:1068200013F8012B2AB1202A01D11E46F7E7282AA6
:10683000F5D122490222684600F0B2FBBA1B31466C
:1068400000F0BEFB2379190707D51D4901226846D0
:1068500000F0A6FB616900F033FB2379DA0607D567
:1068600018490422684600F09BFBA16900F016FB62
:1068700023799B0607D514490622684600F090FB51
:10688000E169FFF7CEF8684600F0E5FA286A0F499B
:1068900003680222DB68984705B0BDE8F08300BFBB
:1068A000C0DF032030790B004A790B0033780B00EE
:1068B0000F7C0B009E790B00A0790B00A3790B00D5
:1068C000A6790B00A8790B00AD790B009B790B0022
:1068D000024B1A68024B1A60704700BF2CDE03207F
:1068E00048DF03200021FEF7C5BC0000014B002259
:1068F0009A6070474CDF0320014B1860704700BF5F
:1069000030DE032008B50B4B43B100F06BF9036890
:106910001B699847002801DDAFF30080064B43B1A7
:1069200000F09AFD03681B699847002801DDAFF36A
:10693000008008BD000000000000000008B5FFF75F
:10694000E1FFFEF765FB014B186008BDE0DF0320A7
:106950000548064A064908B5121A00F0F3FD054B32
:10696000054A1A6008BD00BF00F4032004F40320A8
:10697000D87D0B0000F403201E1C279A07B50023C6
:1069800000931A466FF07701FEF786FC03B05DF8BE
:1069900004FB000007B543880A2B08D0502B0BD10D
:1069A000094B1B684BB103B05DF804EB1847FFF7C8
:1069B000E5FF03B05DF804FB002300931A466FF077
:1069C0007701FEF769FCF4E760DF032010B5124899
:1069D0000021FEF713FD114B1A68114B9A42114B1F
:1069E0000CBF012200221A7001D0FFF7B1FFFEF7A1
:1069F00007FB044600F0D6FD0B4B13B12046AFF366
:106A0000008000210848FEF7C1FCBDE8104007489F
:106A10000021FEF737BC00BFF9680B0000F403202B
:106A20001E1C279A5CDF03200000000095690B0004
:106A3000704710B518210446FDF761FF204610BDD0
:106A4000F0B5037D062B8DB00E4600F104074FF024
:106A5000000412D000F1080515F8011D0A22304685
:106A6000FEF74BFFAF42044419D0002CF4D02E2186
:106A70003046FEF73FFF0444EEE72F236A463946CF
:106A80000A208DF80040FEF7EBFA6846FDF7F0FEAD
:106A900033680246DB68694630469847044620461C
:106AA0000DB0F0BD10B5054B0446112240F8043B73
:106AB000002100F06FFD204610BD00BF387A0B00AA
:106AC0000346074A10B543F8042B01F1100251F8B0
:106AD000044B43F8044B9142F9D10A781A7010BD67
:106AE000387A0B0010B59DF8084044EA032343EAC6
:106AF000024242EA016104234160037510BD0000B7
:106B000007B5064B0360CB7800938B784A780978F9
:106B1000FFF7E8FF03B05DF804FB00BF387A0B0015
:106B2000417470477047704708B50021007CFEF73C
:106B30005FFB40EAE07008BD08B50121007CFEF76C
:106B400057FB40EAE07008BD08B5007CFEF748FB43
:106B500020EAE07008BD08B5007CFEF739FB20EAAA
:106B6000E07008BD13B50446007C0191FEF738FBC8
:106B70000028019901DC607C20B1207CFEF740FBFD
:106B800020EAE07002B010BD007CFEF741BB10B5FA
:106B900014210446FDF7B3FE204610BD10B54FF496
:106BA0007A73044608460021C4E90113044B2360AC
:106BB0000123207463741146FEF7F2FA204610BDDB
:106BC0004C7A0B00007C0022FEF7F2BA007CFEF744
:106BD000F7BA10B514220446002100F0DBFC204671
:106BE00010BD000010B50F4C88B003A8FFF7F1FFEF
:106BF0002178BFF35B8F11F001010FD12046019185
:106C0000FEF704FC019948B103AA0748FFF7C6FF45
:106C10002046FEF703FC054800F086FC024808B059
:106C200010BD00BF64DF032068DF0320256B0B006D
:106C300000F11003012213F8101C0129184608D195
:106C400053F8041C02EB4102013A03F11003F2D1A4
:106C50007047022904BF53F8041C5218F4E70EB41D
:106C6000F0B588B000AF07F13405102155F8042BBA
:106C70007A6004462B467818FD60FEF7A7FB0F28C4
:106C80007A681AD900F1080323F007036E46ADEBCA
:106C9000030D411C2B466846FD60FEF797FB021E64
:106CA00004DD236869469B6820469847B54620372F
:106CB000BD46BDE8F04003B070470028F7D0236818
:106CC00002469B6807F1100120469847EFE738B568
:106CD0000B6803604D6843689D42044608D015B1B7
:106CE0006B6801336B60606808B1FEF79BFD6560FF
:106CF00038BD07B503688DF807109B6801220DF1B8
:106D00000701984703B05DF804FB0B4611460022CB
:106D100010B5C0E90022044683600BB9204610BDBF
:106D2000FFF7D5FFFAE78368EBB11A78032A1AD880
:106D3000DFE802F00417021B0520704702685B6859
:106D40005268D05C2D2812D0A0F13003092B0ED947
:106D500074280ED066280CD0A0F16E03584258411A
:106D600070470620704700207047042070470320BA
:106D700070470220704710B50446FFF7D4FF022881
:106D80000ED0C31EDBB2012B14D82268A368506852
:106D90005B68BDE810400A220021184400F0FABCEC
:106DA0002268A36852685B68D05CA0F17403584203
:106DB000584110BD0020FCE738B50023C0E900337E
:106DC00004460E48C4E90203A9B10B78032B06D090
:106DD0008BB9136858684B68C35C6E2B07D0136877
:106DE0004D6858688B6828445B1BA060E3601146BF
:106DF0002046FFF76CFF204638BD00BF00780B002F
:106E000038B500250B46C0E90055C0E90255C0E978
:106E10000455044611464BB11A78012A06D103F1F4
:106E20001002DB6882604361FFF751FF204638BDE6
:106E300010B54369044663B18068E060013B1030DF
:106E4000A0602061636113B1FFF7F2FEA060012032
:106E500000E0184610BD10B57D210446FFF749FF3C
:106E600001232371204610BD08B50379012B02D000
:106E7000022B04D008BD2C21FFF73BFFFAE73A2193
:106E8000FAE710B50446FFF7EFFF20467B21FFF736
:106E900030FF00232371204610BD000013B50446C7
:106EA0000191FFF7E1FF2368019ADB68034920465F
:106EB000984701232046237102B010BD77790B005B
:106EC00013B504460191FFF7CFFF2368019ADB68F1
:106ED00003492046984701232046237102B010BD84
:106EE000787A0B002DE9F0470D46222190460446A2
:106EF000FFF7FFFEDFF8A490A8442F464745BA46A7
:106F00003DD017F8016B222E06D05C2E04D03046FF
:106F100000F010FB0028F1D12368AAEB05029B6862
:106F20002946204698475C212046FFF7E2FE0D2EB9
:106F30000AD8072E1CD9A6F10803052B18D8DFE8BC
:106F400003F00D0F11171315222E01D05C2E0FD157
:106F500031462046FFF7CDFE3D46CFE76221F8E7F8
:106F60007421F6E76E21F4E76621F2E77221F0E77B
:106F700023683246DB68494620469847ECE7BD4225
:106F800005D023687A1B9B68294620469847222112
:106F90002046FFF7AEFEBDE8F08700BF7B7A0B000E
:106FA00013B50446CDE90021FFF75EFF2046DDE979
:106FB0000021FFF797FF02232046237102B010BD86
:106FC00013B50446CDE90021FFF74EFF2046DDE969
:106FD0000021FFF787FF01232046237102B010BD77
:106FE000002240681146FEF779B900224068114638
:106FF000FEF794B9002240681146FEF79FB9406839
:107000000022FEF793B94068002281F00101FEF7EB
:107010007DB9002340681A461946FEF76FB9002370
:1070200040681A461946FEF761B9002240681146C9
:10703000FEF744B9406800220221FEF747B9002359
:1070400040681A46FEF732B9084B10B5282422468C
:107050001846002100F09EFA054B04804FF0FF32E5
:10706000426004225A60034A1A6010BD84DF032084
:107070007CDF03208C7A0B0070474174704708B5A1
:10708000007CFEF725F820EAE07008BD08B5007C1A
:10709000FDF7FEFF20EAE07008BD08B5007CFEF7B2
:1070A00007F840EAE07008BD08B5007CFDF7F8FF7E
:1070B00040EAE07008BD007CFEF702B837B5457CB9
:1070C00004462DB1207C03B0BDE83040FDF7D8BFA9
:1070D000007C0191FDF7FCFF00280199F2DC2846B5
:1070E00003B030BD10B514210446FDF708FC20465E
:1070F00010BD000010B54FF47A73044608461146DF
:107100000022C4E90123044B23600123207463742B
:10711000FDF7EEFF204610BDD07A0B00007C002367
:10712000FDF7DEBF0022FFF7F9BF007CFDF7A0BF2F
:107130007047F8B5064615460C468F18BC4206D077
:10714000336814F8011B9B6830469847F6E72846D9
:10715000F8BD007C0022FDF7EBBF007C0021FDF7AD
:10716000EFBF007C0021FDF7F3BF007C0021FDF79D
:10717000F7BF007C0021FDF7FBBF10B514210446CA
:10718000FDF7BDFB204610BD38B5044615464FF44B
:107190007A730022C4E90123094B21740846236055
:1071A0002946FDF7EDFFBF3008D16B69DB0705D538
:1071B0006868FEF7FBF8E868FEF7F8F8204638BD87
:1071C000047B0B000023007C1A461946FDF798BF8C
:1071D0007FB500221823CDE90022ADF800300B78EE
:1071E0008DF804304B680293CB6803930B7A0493B9
:1071F000007C0B6905936946FDF7CAFF07B05DF88F
:1072000004FB7FB58DF8041000215B1A4FF0640C6D
:10721000CDE904C118BF012301A902928DF80C30F9
:10722000FFF7D6FF07B05DF804FB0123FFF7E9BFC6
:10723000007C0022FDF76CBF007C0022FDF770BFD0
:107240000121FFF7F9BF0000054BFF210022C3E930
:10725000001201206421C3E902011A61704700BFD6
:10726000ACDF0320002340681A46FEF71FB84068D1
:1072700000220221FEF72AB8002240681146FEF7DC
:107280001DB8002240681146FEF728B80023406868
:107290001A461946FEF72AB8002340681A461946CE
:1072A000FEF72CB840680021FEF750B84068002176
:1072B000FEF754B84068002281F00101FEF726B8BD
:1072C00040680022FEF732B8002240681146FEF7FF
:1072D00035B8002240681146FEF720B8406800210A
:1072E000FEF74CB82DE9F043002699B00D46144640
:1072F00098460746FFF7D6FB1C22314611A8039695
:1073000000F048F9B8F1000F2CD1402368681093C1
:10731000049618B104A9C0B2FDF76AFE049B00935D
:10732000204603AB10AA0021FDF75AFE04460028B0
:107330004DD1024601216868FDF7D0FF0221804649
:1073400022466868FDF7CAFF039E81462146002E4B
:107350003DD000293BD17368022B05D00A2B13D0F6
:10736000F669F4E71D4BD1E7B8F1000FF8D0716969
:107370000AA804310BADFFF7C3FB0FCD3C1D0FC4B2
:107380002B6823704146EBE7B9F1000FE8D0746930
:10739000102205A800F0FEF806238DF8243005AD74
:1073A00004F108031834186859682A4603C20833E0
:1073B000A3421546F7D105A90AA80BADFFF780FB3C
:1073C0000FCD3C1D0FC42B6823704946C8E70398B6
:1073D000FDF7FEFD384619B0BDE8F08340000040DF
:1073E000033803289ABF024B53F820000148704726
:1073F000287B0B00C0DF032008B500224068FDF7A2
:10740000B5FFBDE80840FFF7EBBF0000024B034AA1
:107410001A6000225A607047C0DF0320407B0B00D7
:107420007047000038B5044614252A46002100F0B4
:10743000B1F825804025074925812846258200F09E
:1074400071F804496060284600F06CF8E06020465E
:1074500038BD00BF7C7B0B0030B50E4D2978BFF3E3
:107460005B8F11F0010487B011D12846FDF7CEFFE4
:1074700068B101A8FFF7D6FF01AA21460648FFF729
:1074800039FE2846FDF7CAFF044800F04DF80248CF
:1074900007B030BDC8DF0320CCDF032021740B0010
:1074A0007047000038B50A4B03600123044643616E
:1074B0000849202000F036F8202560600549A560C5
:1074C000284600F02FF8C4E90305204638BD00BF68
:1074D000180001007C7B0B0030B50E4D2978BFF3FE
:1074E0005B8F11F0010487B011D12846FDF78EFFA4
:1074F00068B16846FFF7D6FF6A4621460648FFF79F
:1075000043FE2846FDF78AFF044800F00DF80248C4
:1075100007B030BDE4DF0320E8DF0320A1740B00D7
:10752000FDF7E9B9FDF7E9B9002301461A46184607
:10753000FDF700BA024B1844407800F097007047FE
:10754000117C0B000A44914200F1FF3300D17047D7
:1075500010B511F8014B03F8014F9142F9D110BD5C
:10756000884210B501EB020402D98442234607D8B1
:10757000431EA14208D011F8012B03F8012FF8E7B0
:10758000024401468A4200D110BD13F8014D02F8B1
:10759000014DF7E702440346934200D1704703F8D8
:1075A000011BF9E738B5104B1D68AB6B0446B3B946
:1075B0001820FDF7F3FE0246A86320B90B4B0C48D8
:1075C0004221FDF713FF0B490B4BC0E900130B4B96
:1075D00083600B23838100210120C2E90401AB6B8E
:1075E00000221C615A6138BD30DE03207D7B0B0018
:1075F000947B0B000E33CDAB34126DE6ECDE050050
:10760000C9B2034610F8012B1AB18A42F9D11846C3
:107610007047002918BF0023F9E710B50446FFF7AB
:10762000EFFF18B92046FDF723F9204410BD0346AB
:1076300011F8012B03F8012B002AF9D1704710B57E
:107640007AB103460139841813F8010B11F8012FA0
:10765000904201D1A34201D1801A10BD0028F3D17C
:10766000FAE71046F9E738B503460C4669B9BDE8B4
:107670003840FFF7C5BF431C054621461846FFF7B3
:10768000BFFF0028F7D1284638BD0025F5E70000E8
:10769000012B2DE9F04701D0242B06D9FDF79EFEE2
:1076A000162303600020BDE8F087DFF8E4C00D4634
:1076B0002E4615F8014B14F80C7017F00807F7D197
:1076C0002D2C32D12C780127B51C002B5BD0102B30
:1076D00009D1302C07D12C7804F0DF04582C4DD17F
:1076E0006C781023023507F1004808F1FF384FF09D
:1076F000000CB8FBF3F9664603FB198AA4F1300EBF
:10770000BEF1090F16D87446A34224DDBCF1000F68
:107710001EDBB1451CD301D1A24519DB06FB034694
:107720004FF0010C15F8014BE8E72B2C04BF2C7827
:10773000B51CCAE7A4F1410EBEF1190F01D8373CC0
:10774000E2E7A4F1610EBEF1190F04D8573CDBE764
:107750004FF0FF3CE6E7BCF1000F05DA222303609F
:10776000464642B930469EE707B17642002AF9D034
:10777000BCF1000F00D0691E1160F3E73024002B2C
:10778000B1D10823AFE7302CA5D00A23ABE700BF67
:10779000127C0B0013460A46014602480068FFF7B8
:1077A00077BF00BF30DE032081480B00BD480B00CF
:1077B000E5480B00E9480B000000000043616C6CD9
:1077C000206F6E2070757265207669727475616CB9
:1077D00000616E797468696E673F0053656E736F00
:1077E0007220696E697420657272212121004669D8
:1077F000726D776172652056657273696F6E3A09B2
:107800000053656E736F7220576F726B696E6754A9
:10781000696D653A20252E32662048003120486F78
:107820007572205261696E66616C6C3A20252E3249
:1078300066206D6D005261772054697070696E67C3
:1078400020436F756E74733A20256C75006C6F6FF2
:1078500070696E670000000000000000000000007A
:10786000000000000000000005490B0037490B0034
:10787000000000000000000039490B006D490B00BA
:1078800081650B0025670B00000000000000000070
:10789000BD4C0B006D4C0B00754C0B00714C0B007C
:1078A00000000000000000008B540B0081540B000E
:1078B00077540B006D540B0061540B0055540B00B2
:1078C000A5720B00AD720B0049540B0041540B0024
:1078D00037540B002D540B00F9730B00DD720B00B5
:1078E000E5720B00000000000000000057550B007F
:1078F0004D550B0043550B0039550B002D550B0012
:1079000021550B00A5720B00AD720B0015550B0035
:107910000D550B0003550B00F9540B00F9730B00C8
:10792000DD720B00E5720B0000000000000000009B
:10793000C1580B00C3580B0081580B005F6C0B0043
:10794000626175640053657269616C0053657269A8
:10795000616C31004A534F4E53747265616D4C6FC8
:107960006748616E646C657200617070002530312B
:10797000307520005D20002564002C200028293A65
:107980002000205B00636F6465203D2000256900B6
:1079900064657461696C73203D20000D0A00660007
:1079A0006C6E00666E007400636F646500646574DD
:1079B00061696C000000000000000000055E0B0023
:1079C0001D5E0B0081650B0025670B0000000000A9
:1079D00000000000315E0B00455E0B005D670B0090
:1079E0008B590B0000000000000000009D590B00A7
:1079F000C3590B00E5640B008D590B00000000001B
:107A0000000000009B590B00D1590B006D5D0B006D
:107A1000F3590B0025592D256D2D25645425483A21
:107A2000254D3A2553257A0061736374696D6500AD
:107A30000000000000000000416A0B00316A0B00EA
:107A4000336A0B000000000000000000276B0B00F1
:107A50008F6B0B00656B0B0095580B00576B0B0081
:107A6000296B0B00396B0B00896B0B0061590B0004
:107A7000496B0B00216B0B002575007525303478A0
:107A80000000000000000000000000003F700B003C
:107A900035700B002B700B00E16F0B001F700B009B
:107AA00013700B00A5720B00AD720B0007700B007A
:107AB000FF6F0B00F56F0B00EB6F0B00F9730B0002
:107AC000DD720B00E5720B000000000000000000FA
:107AD00079700B00E5700B00BD700B0095580B0022
:107AE0008D700B00A9700B009B700B00B7700B0022
:107AF00061590B007B700B007F700B0000000000D1
:107B00000000000031710B007B710B0053710B0002
:107B100033710B005B710B0063710B006B710B0019
:107B200073710B0061590B00E0DE03207CDF032042
:107B3000C0DF0320F4DE032000000000000000008E
:107B400065720B006F720B0079720B0083720B0071
:107B50008D720B0099720B00A5720B00AD720B00B9
:107B6000B5720B00C1720B00C9720B00D3720B000F
:107B7000F9730B00DD720B00E5720B0000524545F6
:107B80004E54206D616C6C6F632073756363656523
:107B9000646564002F6D6E742F776F726B73706104
:107BA00063652F776F726B73706163652F47434313
:107BB0002D31302D706970656C696E652F6A656E48
:107BC0006B696E732D4743432D31302D706970659D
:107BD0006C696E652D34385F323032303131323479
:107BE0005F313630363138303634312F7372632F8F
:107BF0006E65776C69622F6E65776C69622F6C6950
:107C000062632F7374646C69622F72616E642E6399
:107C1000000020202020202020202028282828287C
:107C20002020202020202020202020202020202054
:107C300020208810101010101010101010101010AC
:107C400010100404040404040404040410101010AC
:107C50001010104141414141410101010101010167
:107C600001010101010101010101010101101010D7
:107C7000101010424242424242020202020202023A
:107C800002020202020202020202020202101010AA
:107C900010200000000000000000000000000000B4
:107CA00000000000000000000000000000000000D4
:107CB00000000000000000000000000000000000C4
:107CC00000000000000000000000000000000000B4
:107CD00000000000000000000000000000000000A4
:107CE0000000000000000000000000000000000094
:107CF0000000000000000000000000000000000084
:107D00000000000000000000000000000000000073
:107D100000000000B94B0B0095540B00E9540B0018
:107D200061550B0075550B0071580B0071650B0008
:107D3000D1680B00ED680B0049700B0049720B0015
:047D40000D740B00B3
:107D4400040000001400000003000000474E55002A
:107D5400E45BF3AF7D6C75A15909853B761E85D92B
:047D6400460A744314
:107D6800EC790B00047A0B00287A0B0034DE032030
:107D780000000000000000000000000000000000FB
:107D880000000000000000000000000000000000EB
:107D980000000000000000000000000000000000DB
:107DA80000000000000000000000000000000000CB
:107DB80000000000000000000000000000000000BB
:107DC80000000000000000000000000000000000AB
:047DD80000000000A7
:107DE20000000102030405060708090A0B0C0D0E28
:107DF2000F101112131415161718191A1B1C1D1E19
:047E02001F20280015
:047E06007856341264
:04000003B0004020E9
:00000001FF
