:02000002B0004C
:1040000000400B00A66E0B00000006000C0005022D
:08401000040139180000000052
:044018002C690B0004
:10401C0010F8012B11F8013B012A28BF9A42F7D066
:10402C00D01A7047034613F8012B002AFBD1181A3B
:10403C000138704709480A49884208B505D0094A31
:10404C00824202D0121A02F0D3FA0748074A002122
:10405C00121A02F0F5FA014808BD00BFE4E503208E
:10406C00046E0B0058E6032058E60320FCE70320FF
:10407C0070B5074E074C01F02DFDA41BA4080025BC
:10408C00AC4200D170BD56F8043B98470135F7E7B8
:10409C00B86D0B00E06D0B0000F048B808B500F0EF
:1040AC0052F8BDE8084001F0CDBC00F009BB00F0AF
:1040BC0007BB00F00DBB000008B5034A03490C20F8
:1040CC0000F042FAFEE700BF55430B0040690B00BD
:1040DC000078B0FA80F040097047012303707047F4
:1040EC00704700000A4B10B50446036000F02EFE2A
:1040FC00214601F078F801F0F9FD01F0EBFD2046C6
:10410C00044B40F8043B00F0F7FE204610BD00BF06
:10411C0078690B0060690B0010B50446FFF7E2FFED
:10412C0020462421FFF7C5FF204610BD08B502F03C
:10413C0029FA02F07FF801F0D9FDBDE808404FF4F0
:10414C00165101F0C3BD10B502F01CFA0623022271
:10415C001D2102F08EF802F015FA03681B699847CE
:10416C0058B102F00FFA03685B699847044601F0F6
:10417C00BDFDE1B200F042FCEDE7BDE810404FF4AC
:10418C00FA7001F033BC70B5D0E900531426044624
:10419C0006FB0356AE4204D0284600F039FB14351A
:1041AC00F8E7206800F094FA204670BD8842F8B514
:1041BC0004460D46164616D9904215D2A2F11406A5
:1041CC00751AA1F114072C44B7421CD02CB13146FE
:1041DC00204600F086FB337C2374304600F018FB3D
:1041EC00143E143CF0E70ED0B5420CD02CB129464D
:1041FC00204600F076FB2B7C2374284600F008FB4D
:10420C0014351434F0E7F8BD2DE9F0410023C0E972
:10421C00003383604F689F4204460E4623DD4FF007
:10422C00140808FB07F000F04BFA0546D8B1D4E9A6
:10423C00001208FB0212FFF7B9FF206800F048FAE1
:10424C002560A760D6E9007308FB0378B84508D051
:10425C003946284600F05FFB3B7C2B741437143531
:10426C00F4E7736863602046BDE8F08170B5244BB9
:10427C00244A9A6000248CB0C3E90044012000F069
:10428C007BF92146012000F087F9CDE90044029426
:10429C0001F02CFD1C4C0546694603A8FFF7B4FF42
:1042AC00264603A906A8FFF7AFFF184B46F8043BB8
:1042BC0006A909A8FFF7A8FF09AA1E21304601F09C
:1042CC0075F809A8FFF75FFF06A8FFF75CFF104B16
:1042DC002360256203A8FFF756FF0E4B236001F005
:1042EC0005FD4FF4165101F0F1FC00F02FFD2146B5
:1042FC0000F032FF6846FFF746FF0CB070BD00BF00
:10430C0058E603200000FFFF64E6032060690B0001
:10431C00646A0B0078690B0008B5024B1B689B683C
:10432C00019308BD6802030008B5024B1B68DB68EB
:10433C00019308BD6802030008B5024B1B685B685B
:10434C00019308BD1802030008B5024B1B68DB681B
:10435C00019308BD1802030008B5024B1B685B698A
:10436C00019308BD1802030008B5024B1B685B6C77
:10437C00019308BD4802030008B5024B1B689B6CF7
:10438C00019308BD4802030008B5024B1B68DB6CA7
:10439C00019308BD4802030008B5024B1B685B6D16
:1043AC00019308BD4802030008B5024B1B685B690A
:1043BC00019308BD6402030008B5024B1B689B689F
:1043CC00019308BD3C02030008B5024B1B68DB6877
:1043DC00019308BD3C02030008B5024B1B681B6926
:1043EC00019308BD3C02030008B5024B1B685B69D6
:1043FC00019308BD3C02030008B5024B1B689B6986
:10440C00019308BD3C02030008B5024B1B68DB6935
:10441C00019308BD3C02030008B5024B1B689B6A64
:10442C00019308BD3C02030008B5024B1B68DB6A14
:10443C00019308BD3C02030008B5024B1B681B6CC2
:10444C00019308BD3C02030008B5024B1B68DB68F6
:10445C00019308BD2802030008B5024B1B681B6AB8
:10446C00019308BD2802030008B5024B1B685B6A68
:10447C00019308BD2802030008B5024B1B689B6A18
:10448C00019308BD2802030008B5024B1B68DB6AC8
:10449C00019308BD2802030008B5024B1B681B6B77
:1044AC00019308BD2802030008B5024B1B681B6C66
:1044BC00019308BD2802030008B5024B1B681B6D55
:1044CC00019308BD2802030008B5024B1B681B684A
:1044DC00019308BD4C02030008B5024B1B685B68D6
:1044EC00019308BD4C02030008B5024B1B689B6886
:1044FC00019308BD4C02030008B5024B1B681B69F5
:10450C00019308BD4C02030008B5024B1B685B69A4
:10451C00019308BD4C02030008B5024B1B689B6954
:10452C00019308BD4C02030008B5024B1B68DB6904
:10453C00019308BD4C02030008B5024B1B681B6AB3
:10454C00019308BD4C02030008B5024B1B685B6B62
:10455C00019308BD6002030008B5024B1B68DB6EBB
:10456C00019308BD6002030008B5024B1B681B6F6A
:10457C00019308BD6002030008B5024B1B685B6821
:10458C00019308BD2002030008B5024B1B685B6950
:10459C00019308BD2002030008B5024B1B68DB6ABF
:1045AC00019308BD2002030008B5034B1B68D3F828
:1045BC008830019308BD00002002030008B5034BAE
:1045CC001B68D3F89430019308BD0000200203004F
:1045DC0008B5024B1B685B68019308BD40020300E1
:1045EC0008B5024B1B689B68019308BD4002030091
:1045FC0008B5024B1B68DB68019308BD4002030041
:10460C0008B5024B1B681B69019308BD40020300EF
:10461C0008B5024B1B685B69019308BD400203009F
:10462C0008B5024B1B689B69019308BD400203004F
:10463C0008B5024B1B68DB69019308BD40020300FF
:10464C0008B5024B1B681B6A019308BD40020300AE
:10465C0008B5024B1B681B6B019308BD400203009D
:10466C0008B5024B1B685B6B019308BD400203004D
:10467C0008B5024B1B681B6C019308BD400203007C
:10468C0008B5024B1B685B6C019308BD400203002C
:10469C0008B5024B1B685B6D019308BD400203001B
:1046AC0008B5024B1B689B6D019308BD40020300CB
:1046BC0008B5024B1B68DB6B019308BD4402030079
:1046CC0008B5024B1B681B68019308BD1C02030054
:1046DC0008B5024B1B685B68019308BD1C02030004
:1046EC0008B5024B1B689B68019308BD1C020300B4
:1046FC0008B5024B1B685B6A019308BD1C020300E2
:10470C0008B5024B1B68DB6B019308BD1C02030050
:10471C0008B5024B1B681B6C019308BD1C020300FF
:10472C0008B5024B1B685B6C019308BD1C020300AF
:10473C00002240681146FFF783BF002240681146F3
:10474C00FFF78EBF40680022FFF782BF406800224F
:10475C0081F00101FFF76CBF002340681A4619462F
:10476C00FFF75EBF002340681A461946FFF750BF9B
:10477C00002240681146FFF743BF002240681146F3
:10478C00FFF72EBF406800220221FFF731BF002344
:10479C0040681A46FFF71CBF024B03225A60024ABC
:1047AC001A60704788E6032090690B000B68036061
:1047BC004B68436013B15A6801325A60704738B580
:1047CC00046805467CB16368013B63605BB9236890
:1047DC0020469B689847A368013BA3601BB92368DC
:1047EC002046DB689847284638BD0000054B02225E
:1047FC001A60054B054A9A600020C3E90000FFF7D8
:10480C00BBBE00BF9CE6032090E603200000FFFF28
:10481C0010B504460068FFF75BFF204610BD10B5CD
:10482C000446006808B1FFF753FF0023C4E90133C5
:10483C00236010BD38B504460D4600680131FFF702
:10484C004FFF10B1C4E90005012038BD10B5036855
:10485C00044623B143688B4201D3012010BD20468E
:10486C00FFF7E8FF0028F9D0A368002BF5D12268E8
:10487C001370F2E737B50D46114601920446FFF767
:10488C00E5FF019A28B92046FFF7C9FF204603B07F
:10489C0030BDA2602946206801F0AAFE2268A368F8
:1048AC000021D154F2E738B5054600680C4670B1CA
:1048BC006A688B689A4208D3096831B101F00DFF20
:1048CC00A368AB600023A36038BDFFF701FF23682A
:1048DC002B6063686B60A368AB600023C4E9003392
:1048EC00F1E710B50023C0E900330446836003737D
:1048FC00FFF7D9FF204610BD884210B5044605D0FD
:10490C000B682BB18A681946FFF7B4FF204610BD1F
:10491C00FFF785FFFAE710B500230446C0E9003322
:10492C0083600373FFF7E8FF204610BD10B54368A2
:10493C00013B0446436063B903689B689847A368CE
:10494C00013BA3602BB923682046DB68BDE810400F
:10495C00184710BD70B5D0E90053044605EB03169B
:10496C00AE4204D02846FFF753FF1035F8E7206815
:10497C00FFF7AEFE204670BD024800230360FFF730
:10498C00F3BC00BFA0E6032010B5044680680368A2
:10499C00DB689847E3681844E06010BDF8B506463C
:1049AC000D468F180024BD420CD0336815F8011B3E
:1049BC009B6830469847031E01DB1C44F3E7002C30
:1049CC0008BF1C462046F8BD704710B510210446A0
:1049DC00FFF76FFB204610BD13B50446084659B1CE
:1049EC000191FFF71FFB23680199DB680246204603
:1049FC0002B0BDE81040184702B010BD03689B68B8
:104A0C00184730B58BB00023012A8DF8243098BF9D
:104A1C000A2209AC0D46B1FBF2F101FB125303F073
:104A2C00FF03092B94BF30333733DBB2AA4204F8AF
:104A3C00013DEFD92146FFF7CFFF0BB030BD10B5CC
:104A4C000446FFF789FCE060236820465B699847C1
:104A5C00002808DAFFF780FCE368C01AA3689842C4
:104A6C00F2D34FF0FF3010BD2DE9F04107460C4654
:104A7C008E180D46B542A5EB040807D03846FFF753
:104A8C00DEFF031E02DB05F8013BF3E74046BDE801
:104A9C00F0817047084611B10B685B681847704786
:104AAC0070477047704738B504460D4600682E2194
:104ABC0001F009FE2368C31A2B6023B1037803B1FC
:104ACC00013023682060184638BD10B50421044617
:104ADC00FFF7EFFA204610BD10B504210446FFF78E
:104AEC00E8FA204610BDFFF74FBC08B5FFF790FA67
:104AFC00B0FA80F0400908BD704710B50C4601F0C3
:104B0C00F5F8844210D001F0FDFC844205D101F08F
:104B1C00F9FCBDE8104001F040BB2CB123682046E5
:104B2C005B68BDE81040184710BD13B50446084635
:104B3C000191FFF777FA01990246204602B0BDE8D1
:104B4C00104001F0C1BA13B5044608460191FFF7B5
:104B5C0069FA23680199DB680246204602B0BDE879
:104B6C001040184707B503688DF80710DB68012261
:104B7C000DF10701984703B05DF804FB2DE9F74FE1
:104B8C00D0E900844FF0140A00930AFB04F4184B8C
:104B9C00A41017465C434546002C21DD66100AFB29
:104BAC0006F005EB00093A46B9F804B02858019113
:104BBC005F4528BF5A4601F098FD002801994FF037
:104BCC0001030BD15F4503D1009A13703446E3E720
:104BDC00FCD9A61B09F11405013EF7E7F9DBF5E753
:104BEC00A5EB08050248AD10684303B0BDE8F08F93
:104BFC00CDCCCCCC7FB50369057E019103B3F9B163
:104C0C00002600F10C04039603A901A8FFF74BFF43
:104C1C000146A8B10DF10B03039A8DF80B602046E9
:104C2C00FFF7ACFF9DF80B3053B12368142404FB41
:104C3C000034083434F9023C002BA8BFDDB2E3E7A2
:104C4C00284604B070BD0EB4F0B58CB000AF07F1BF
:104C5C004405044655F8042B7A602B46202107F1B5
:104C6C001000FD60FFF744FD1F287A681AD900F187
:104C7C00080323F007036E46ADEB030D411C2B46D6
:104C8C006846FD60FFF734FD021E04DD23686946AB
:104C9C00DB6820469847B5463037BD46BDE8F04046
:104CAC0003B070470028F7D023680246DB6807F191
:104CBC00100120469847EFE710B5094C2378BFF355
:104CCC005B8FDB0709D42046FFF702FA28B1204698
:104CDC00FFF703FA034801F07DFC034810BD00BF49
:104CEC00A8E60320AD4A0B00E4E5032010B5094CFF
:104CFC002378BFF35B8FDB0709D42046FFF7E8F975
:104D0C0028B12046FFF7E9F9034801F063FC03489A
:104D1C0010BD00BFACE60320054B0B00E8E50320FB
:104D2C0038B500250446C0E90055C0E90455856036
:104D3C00856140F8245FFFF717FBFFF7BDFFE061CB
:104D4C00FFF7D4FF25732062204638BD10B50A4CFE
:104D5C002378BFF35B8FDB070CD42046FFF7B8F941
:104D6C0040B10648FFF7DCFF2046FFF7B6F90448D0
:104D7C0001F030FC014810BDA4E60320B4E603208A
:104D8C00D1520B00024A034903480023FFF7ECBB46
:104D9C00B5500B0041500B00C14F0B0000231A46BD
:104DAC0019461846FFF7E0BB37B58D6804466846D0
:104DBC00FFF7FCFC6A462946204601F0A5F801A83D
:104DCC00FFF7FDFC204603B030BD37B5CD68044677
:104DDC006846FFF7EBFC6A462946204601F070F85E
:104DEC0001A8FFF7ECFC204603B030BD37B50D69C8
:104DFC0004466846FFF7DAFC6A462946204601F06D
:104E0C0008F801A8FFF7DBFC204603B030BD00001A
:104E1C0070B58AB00D46014604A8FFF7C5FF144EC5
:104E2C0004A801F089F8E8B104A96846FFF7CDFFA2
:104E3C0002983146FFF759FE044610B12C1E18BFDC
:104E4C00012401A8FFF7BBFC002CE9D004A968469B
:104E5C00FFF7CCFF684601F012F8286001A8FFF7B5
:104E6C00AEFCDDE705A8FFF7AAFC0AB070BD00BFD9
:104E7C00E4690B0037B50C46204613491546FFF77D
:104E8C00C7F850B900F032FF4FF4165100F01EFF76
:104E9C0003B0BDE8304000F029BF0C492046FFF7B5
:104EAC00B7F878B94FF4165301A928460193FFF7C8
:104EBC00AFFF01F027FB019901F06CF901F022FB27
:104ECC0003B030BD0020FBE7E9690B00F0690B0073
:104EDC0070B5D0E900531426044606FB0356AE42C7
:104EEC0005D005F10800FFF7F3FF1435F7E720684C
:104EFC00FFF7EEFB204670BD10B504460C30FFF7F3
:104F0C00E7FF2046FFF726FD204610BD10B5044BE9
:104F1C00044640F8043BFFF7EFFF204610BD00BFEE
:104F2C0060690B0010B50446FFF7F0FF2046242102
:104F3C00FFF7BFF8204610BD10B5034B03600446C5
:104F4C00FFF7E4FF204610BD7C6A0B0010B5044649
:104F5C00FFF7F2FF20462421FFF7ABF8204610BDE7
:104F6C000A6802604A6842600022C0E9022210B559
:104F7C0002618C688460CC68C4600C698A60CA6009
:104F8C0004610A6110BD0022C0E9002210B58260E4
:104F9C000C6804604C6844608C680A604A608460E9
:104FAC008A6010BD10B5036804461868FFF7F4F961
:104FBC00204610BD2DE9F04F87B0804603931C4B63
:104FCC005B68C3F30803894616466BB9FFF7BEFE50
:104FDC00044600F12403406A0593FFF784FD237B0C
:104FEC002BB105A8FFF7DEFF07B0BDE8F08F01235A
:104FFC002373D4E900535FFA89F905EB830AAA45B8
:10500C0012D055F8047B3146381DFFF7F3FD81456E
:10501C00F5D33B68039A0092D3F808B04A4633465E
:10502C0041463846D847EAE700232373D9E700BF47
:10503C0000ED00E02DE9F74F9B461A4B5B68C3F37C
:10504C0008038046894616466BB9FFF77FFE044677
:10505C0000F12403406A0193FFF745FD237B2BB13C
:10506C0001A8FFF79FFF03B0BDE8F08F0123237366
:10507C00D4E90053F6B205EB830A55450ED055F82A
:10508C00047B5946381DFFF7B5FD8642F5D33B68C6
:10509C004A46DB68414638469847EEE700232373BF
:1050AC00DEE700BF00ED00E02DE9F341164B5B6835
:1050BC00C3F3080305460F461BBBFFF747FE00F181
:1050CC0024030446406A0193FFF70DFDD4E9006305
:1050DC00462406EB8308B04509D101A8FFF762FF0F
:1050EC00A542B4BF0020012002B0BDE8F08156F803
:1050FC00040B39460430FFF77DFD8442A8BF0446FB
:10510C00E9E70020F0E700BF00ED00E0F8B5D0E9DA
:10511C0001539D4204460E460DDB6F1C002F0068A8
:10512C0004DDB900FFF7DCFA18B9F8BDFFF7D0FAC7
:10513C0000202060A7602768626807EB8501920059
:10514C00A2EB8502081D01F061FA47F8256063683F
:10515C00013363600120E8E737B500F1240304460E
:10516C00406A01930D46FFF7BEFCD4E9003203EB15
:10517C008202934219460BD00968A94203F1040339
:10518C00F7D101A8FFF70EFF0025284603B030BD6C
:10519C0029462046FFF7BAFF05460028F1D0636880
:1051AC00012B01D1FFF7EEFD01A8FFF7FBFEECE7A9
:1051BC0070B50446D0E900020B4600EB8202824235
:1051CC000FD001461D6851F8046BAE4207D1521A3C
:1051DC0001F01CFA6368013B6360012070BD084656
:1051EC00EDE70020FAE71FB500F124030446406AFE
:1051FC0001910393FFF777FC01A92046FFF7D8FF35
:10520C0018B163680BB9FFF7C9FD03A8FFF7CAFE15
:10521C0004B010BD70B5D0E904561823044603FB46
:10522C000656AE4215D005F110012046FFF7C0FF1F
:10523C0063680BB9FFF7B2FDE06929690368DB68A5
:10524C009847696919B1206A0368DB689847183573
:10525C00E7E7D4E90453182606FB0356AE4204D004
:10526C002846FFF7D5FA1835F8E70023636170BDBF
:10527C0073B50446FFF792FD04F12403606A0193B1
:10528C00FFF731FC2046FFF7C5FF01A8FFF78AFEA8
:10529C00606A08B1FFF770F8D4E90453182606FBCE
:1052AC000356AE4204D02846FFF7B2FA1835F8E799
:1052BC002069FFF70DFA2068FFF70AFA204602B0C2
:1052CC0070BD00000148FFF7D3BF00BFB4E6032058
:1052DC008842F8B504460D46164615D9904214D2AC
:1052EC00A2F11406751AA1F114072C44B7421AD076
:1052FC001CB131462046FFF733FE06F10800FFF7DC
:10530C00E7FD143E143CF1E70DD0B5420BD01CB1B7
:10531C0029462046FFF724FE05F10800FFF7D8FDCB
:10532C0014351434F1E7F8BD8842F8B504460D463F
:10533C00164614D9904213D2A2F11006751AA1F197
:10534C0010072C44B74218D01CB131462046FFF749
:10535C00C8FA3046FFF75CFA103E103CF2E70CD06E
:10536C00B5420AD01CB129462046FFF7BAFA2846A6
:10537C00FFF74EFA10351034F2E7F8BD70B50E1E7B
:10538C00054611DD3001FFF79BF9044658B1D5E90C
:10539C00001201EB0212FFF7C7FF2868FFF798F91C
:1053AC002C60AE60012070BD0024F6E72DE9F04FB3
:1053BC00904695B000230391D8F804100A93462226
:1053CC009942C0E90033C0E90233C0E90433CDE9A6
:1053DC0008330446027623DCD8E90057142303FB78
:1053EC000757AF423BD029460BA8FFF77AFA0BA917
:1053FC000FA8099EFFF775FADDE9091399421BDA2C
:10540C00089B099A03EB061603EB0212314606F1D0
:10541C001000FFF789FFEEB9099B0133099311E0E6
:10542C0008A8FFF7ABFF0028D6D108A8FFF792FA1F
:10543C00204615B0BDE8F08F013108A8FFF79EFF9C
:10544C000028DDD10FA8FFF7E3F90BA8FFF7E0F96F
:10545C001435C6E70FA93046FFF743FADCE7002600
:10546C00CDE90B660D964FF01409DDE908239E4239
:10547C007CDA3301D35806930BB90136F5E70023D8
:10548C00079309FB06F302930BAD07A906A8FFF7D8
:10549C000AFB82460028F0D04FF000038DF817303D
:1054AC000146079A0DF117032846FFF767FB9DF895
:1054BC0017700190002F4AD1BDF81C30ADF8403068
:1054CC00CDE911774FF6FF73CDF83CA0ADF8423023
:1054DC001397D5E90132934217DB03F1010ABAF1B4
:1054EC00000F30DD09FB0AF0FFF7EAF8834660B3E2
:1054FC00D5E9001209FB0212FFF7EAFE2868FFF754
:10550C00E7F8C5F800B0C5F808A02B68019A09FBAC
:10551C00023A6A68514609FB02320AF11400FFF79D
:10552C00D7FEBAF1000F03D00FA95046FFF718FDB4
:10553C006B6801336B6011A8FFF7CAFC3FB10BA875
:10554C00FFF7C6FC71E7BB46D8E70127F3E7019BE1
:10555C002D6809FB0355069B1B782BB9D8F8003036
:10556C00029A13441B7CEB8008358EE7216822607D
:10557C0062686360A36809920A9A0A93E368A2605E
:10558C000B9A0B932369E2600C9A0C93636922616A
:10559C000D9A0D93039B089162612376CFE700006F
:1055AC00F0B5044687B00D462646194668461746A0
:1055BC00FEF72AFE0B4B46F8043B694603A8FEF7A0
:1055CC0023FE03AA39463046FFF7F0FE03A8FEF788
:1055DC00DAFD6846FEF7D7FD034B236020462562B3
:1055EC0007B0F0BD60690B00646A0B00F0B50F46A4
:1055FC0085B01D490A9C384616461D46FEF708FD27
:10560C00C0B9A4B1294601A8FFF7BDFC1749242055
:10561C0000F0DCFF054630B101AB32462146FFF706
:10562C00BFFF134B2B6001A8FEF7ADFD2C462046A7
:10563C0005B0F0BD0F493846FEF7EAFC90B9002CD6
:10564C00F5D0294601A8FFF79EFC0849242000F05C
:10565C00BDFF05460028E6D001AB32462146FFF7D8
:10566C009FFFE0E70024E2E7F8690B00206C0B00D9
:10567C007C6A0B00FC690B00014B024A1A607047F4
:10568C00B0E603200D6A0B002DE9F047089DD0F819
:10569C00209004460E461746984600F027FB81459D
:1056AC004CD02B79190704D56A6954492046FFF769
:1056BC00CAFAB8F1000F0DD05B212046FFF752FA61
:1056CC0041462046FFF73FFA23684D49DB6802222A
:1056DC00204698472B79DA0723D5D5F808802F2157
:1056EC00404601F016F808B100F101084146204689
:1056FC00FFF729FA2B799B0708D53A212046FFF7AB
:10570C0031FAEA683F492046FFF79DFA2A79236867
:10571C0012F0040FDB6814BF3B493C4902222046BF
:10572C0098472B7958071DD529690B461A4613F84B
:10573C00010B60B1202808D11946F7E7344800F076
:10574C0030FE0028ADD0BDE8F0872828EED12368C4
:10575C00521ADB682046984723682E49DB680422DE
:10576C002046984700213846FEF7F6FE01462046B3
:10577C00FFF7E9F923682549DB68022220469847A0
:10578C001EB131462046FFF7DEF92B7913F0300FAE
:10579C002CD023682049DB680222204698472B79BD
:1057AC00D9060AD523681D49DB680722204698478D
:1057BC00AA691B492046FFF746FA2B799A0611D5A0
:1057CC00DB0605D523681049DB6802222046984782
:1057DC0023681449DB6820460A229847E969204669
:1057EC00FFF7B1F95D212046FFF7BCF923680E499C
:1057FC00DB6820460222BDE8F0471847116A0B000F
:10580C00186A0B001B6A0B001E6A0B00236A0B0044
:10581C002CE70320216A0B00266A0B00296A0B0077
:10582C00316A0B00346A0B003F6A0B002DE9F04122
:10583C000446076A0D46164600F058FA874207D010
:10584C00206A036832462946DB68BDE8F0411847F8
:10585C00034800F0A6FD0028F2D0BDE8F08100BF9F
:10586C002CE703202DE9F04385B0D0F820900C9C58
:10587C0005460F4690461E4600F038FA814505D184
:10588C00494800F08EFD002840F08A802B6A474A78
:10589C0000924FF000096846CDE902398DF804906A
:1058AC0000F073FB49464046FEF756FE40498046E1
:1058BC000122684600F0F8FB4146FFF736F93FB18C
:1058CC003C490122684600F0EFFB3946FFF72DF901
:1058DC003EB139490122684600F0E6FB3146FFF73C
:1058EC0024F92379DF070ED5A6682F21304600F066
:1058FC0010FF00B1461C31490122684600F0D4FB70
:10590C003146FFF712F923799E0707D52C4902225D
:10591C00684600F0C9FBE16800F044FB23795807A6
:10592C0014D5266933461F4613F8012B2AB1202AB9
:10593C0001D11E46F7E7282AF5D1224902226846F2
:10594C0000F0B2FBBA1B314600F0BEFB23791907FD
:10595C0007D51D490122684600F0A6FB616900F0DD
:10596C0033FB2379DA0607D518490422684600F080
:10597C009BFBA16900F016FB23799B0607D5144904
:10598C000622684600F090FBE169FFF7CEF8684606
:10599C0000F0E5FA286A0F4903680222DB68984791
:1059AC0005B0BDE8F08300BF2CE70320D4690B00E1
:1059BC00EE690B00426A0B00B36C0B00446A0B00DF
:1059CC00466A0B00496A0B004C6A0B004E6A0B00CE
:1059DC00536A0B003F6A0B00024B1A68024B1A60A9
:1059EC00704700BFECE50320DCE603200021FEF746
:1059FC00CBBD0000014B00229A607047E0E603200B
:105A0C00014B1860704700BFF0E5032008B50B4B45
:105A1C0043B100F06BF903681B699847002801DD5E
:105A2C00AFF30080064B43B100F06CFD03681B69BB
:105A3C009847002801DDAFF3008008BD000000008E
:105A4C000000000008B5FFF7E1FFFEF785FC014BF5
:105A5C00186008BD4CE703200548064A064908B5FE
:105A6C00121A00F0C5FD054B054A1A6008BD00BFAF
:105A7C0000F4032004F40320786E0B0000F40320E0
:105A8C001E1C279A07B5002300931A466FF0770166
:105A9C00FEF794FD03B05DF804FB000007B54388E6
:105AAC000A2B08D0502B0BD1094B1B684BB103B000
:105ABC005DF804EB1847FFF7E5FF03B05DF804FB56
:105ACC00002300931A466FF07701FEF777FDF4E799
:105ADC00F4E6032010B512480021FEF721FE114B0D
:105AEC001A68114B9A42114B0CBF012200221A70FA
:105AFC0001D0FFF7B1FFFEF71FFC044600F0A8FD34
:105B0C000B4B13B12046AFF3008000210848FEF781
:105B1C00CFFDBDE8104007480021FEF745BD00BF92
:105B2C000D5A0B0000F403201E1C279AF0E60320EC
:105B3C0000000000A95A0B00704710B5182104464C
:105B4C00FEF7B7FA204610BDF0B5037D062B8DB0DD
:105B5C000E4600F104074FF0000412D000F10805C6
:105B6C0015F8011D0A223046FEF74BFFAF420444E4
:105B7C0019D0002CF4D02E213046FEF73FFF044400
:105B8C00EEE72F236A4639460A208DF80040FEF7CF
:105B9C000BFC6846FEF746FA33680246DB6869463A
:105BAC0030469847044620460DB0F0BD10B5054B65
:105BBC000446112240F8043B002100F041FD204630
:105BCC0010BD00BFE06A0B000346074A10B543F84E
:105BDC00042B01F1100251F8044B43F8044B914291
:105BEC00F9D10A781A7010BDE06A0B0010B59DF857
:105BFC00084044EA032343EA024242EA01610423D7
:105C0C004160037510BD000007B5064B0360CB78EF
:105C1C0000938B784A780978FFF7E8FF03B05DF8BA
:105C2C0004FB00BFE06A0B0041747047704770477B
:105C3C0008B50021007CFEF76FFC40EAE07008BD5F
:105C4C0008B50121007CFEF767FC40EAE07008BD56
:105C5C0008B5007CFEF758FC20EAE07008BD08B5DA
:105C6C00007CFEF749FC20EAE07008BD13B5044641
:105C7C00007C0191FEF748FC0028019901DC607C56
:105C8C0020B1207CFEF750FC20EAE07002B010BD81
:105C9C00007CFEF751BC10B514210446FEF709FA3E
:105CAC00204610BD10B54FF47A7304460846002107
:105CBC00C4E90113044B236001232074637411465F
:105CCC00FEF702FC204610BDF46A0B00007C00229B
:105CDC00FEF702BC007CFEF707BC10B5142204468C
:105CEC00002100F0ADFC204610BD000010B50F4C9B
:105CFC0088B003A8FFF7F1FF2178BFF35B8F11F099
:105D0C0001010FD120460191FEF7E2F9019948B14A
:105D1C0003AA0748FFF7C6FF2046FEF7DEF9054841
:105D2C0000F058FC024808B010BD00BFF8E6032094
:105D3C00FCE60320395C0B0000F11003012213F880
:105D4C00101C0129184608D153F8041C02EB41021F
:105D5C00013A03F11003F2D17047022904BF53F842
:105D6C00041C5218F4E70EB4F0B588B000AF07F17C
:105D7C003405102155F8042B7A6004462B4678180C
:105D8C00FD60FEF7B5FC0F287A681AD900F10803FC
:105D9C0023F007036E46ADEB030D411C2B46684602
:105DAC00FD60FEF7A5FC021E04DD236869469B68B6
:105DBC0020469847B5462037BD46BDE8F04003B0B5
:105DCC0070470028F7D0236802469B6807F1100142
:105DDC0020469847EFE738B50B6803604D68436879
:105DEC009D42044608D015B16B6801336B60606846
:105DFC0008B1FEF79BFD656038BD07B503688DF8EB
:105E0C0007109B6801220DF10701984703B05DF85C
:105E1C0004FB0B461146002210B5C0E900220446D3
:105E2C0083600BB9204610BDFFF7D5FFFAE78368F6
:105E3C00EBB11A78032A1AD8DFE802F00417021B18
:105E4C000520704702685B685268D05C2D2812D020
:105E5C00A0F13003092B0ED974280ED066280CD073
:105E6C00A0F16E035842584170470620704700203D
:105E7C00704704207047032070470220704710B50C
:105E8C000446FFF7D4FF02280ED0C31EDBB2012B51
:105E9C0014D82268A36850685B68BDE810400A22D9
:105EAC000021184400F0CCBC2268A36852685B68DF
:105EBC00D05CA0F174035842584110BD0020FCE79F
:105ECC0038B50023C0E9003304460E48C4E9020388
:105EDC00A9B10B78032B06D08BB9136858684B68A3
:105EEC00C35C6E2B07D013684D6858688B682844C8
:105EFC005B1BA060E36011462046FFF76CFF204659
:105F0C0038BD00BF416A0B0038B500250B46C0E90F
:105F1C000055C0E90255C0E90455044611464BB181
:105F2C001A78012A06D103F11002DB688260436102
:105F3C00FFF751FF204638BD10B54369044663B1E5
:105F4C008068E060013B1030A0602061636113B198
:105F5C00FFF7F2FEA060012000E0184610BD10B55E
:105F6C007D210446FFF749FF01232371204610BD14
:105F7C0008B50379012B02D0022B04D008BD2C21CB
:105F8C00FFF73BFFFAE73A21FAE710B50446FFF7B3
:105F9C00EFFF20467B21FFF730FF002323712046C3
:105FAC0010BD000013B504460191FFF7E1FF236813
:105FBC00019ADB6803492046984701232046237148
:105FCC0002B010BD1B6A0B0013B504460191FFF71C
:105FDC00CFFF2368019ADB680349204698470123C9
:105FEC002046237102B010BD206B0B002DE9F04749
:105FFC000D46222190460446FFF7FFFEDFF8A490E1
:10600C00A8442F464745BA463DD017F8016B222EBF
:10601C0006D05C2E04D0304600F0E2FA0028F1D114
:10602C002368AAEB05029B682946204698475C2109
:10603C002046FFF7E2FE0D2E0AD8072E1CD9A6F13A
:10604C000803052B18D8DFE803F00D0F11171315F3
:10605C00222E01D05C2E0FD131462046FFF7CDFE0B
:10606C003D46CFE76221F8E77421F6E76E21F4E7AD
:10607C006621F2E77221F0E723683246DB68494675
:10608C0020469847ECE7BD4205D023687A1B9B68F5
:10609C0029462046984722212046FFF7AEFEBDE850
:1060AC00F08700BF236B0B0013B50446CDE900212C
:1060BC00FFF75EFF2046DDE90021FFF797FF022383
:1060CC002046237102B010BD13B50446CDE9002162
:1060DC00FFF74EFF2046DDE90021FFF787FF012384
:1060EC002046237102B010BD70474174704708B54B
:1060FC00007CFEF791F920EAE07008BD08B5007C41
:10610C00FEF76AF920EAE07008BD08B5007CFEF7DE
:10611C0073F940EAE07008BD08B5007CFEF764F93D
:10612C0040EAE07008BD007CFEF76EB937B5457CDF
:10613C0004462DB1207C03B0BDE83040FEF744B9D5
:10614C00007C0191FEF768F900280199F2DC2846E1
:10615C0003B030BD10B514210446FDF7AAFF20464C
:10616C0010BD000010B54FF47A7304460846114672
:10617C000022C4E90123044B2360012320746374BF
:10618C00FEF75AF9204610BD346B0B00007C00233F
:10619C00FEF74AB90022FFF7F9BF007CFEF70CB9F5
:1061AC007047F8B5064615460C468F18BC4206D00B
:1061BC00336814F8011B9B6830469847F6E728466D
:1061CC00F8BD007C0022FEF747B9007C0021FEF7E9
:1061DC004BB9007C0021FEF74FB9007C0021FEF783
:1061EC0053B9007C0021FEF757B910B514210446B1
:1061FC00FDF75FFF204610BD38B5044615464FF439
:10620C007A730022C4E90123094B217408462360E8
:10621C002946FEF749F9BF3008D16B69DB0705D574
:10622C006868FEF755FAE868FEF752FA204638BD62
:10623C00686B0B000023007C1A461946FEF704B964
:10624C007FB500221823CDE90022ADF800300B7881
:10625C008DF804304B680293CB6803930B7A04934C
:10626C00007C0B6905936946FEF726F907B05DF8CB
:10627C0004FB7FB58DF8041000215B1A4FF0640C01
:10628C00CDE904C118BF012301A902928DF80C308D
:10629C00FFF7D6FF07B05DF804FB0000054BFF21AC
:1062AC000022C3E9001201206421C3E902011A6132
:1062BC00704700BF10E70320002240681146FEF72C
:1062CC009FB9002240681146FEF7BAB90022406817
:1062DC001146FEF7C5B940680022FEF7B9B940680F
:1062EC00002281F00101FEF7A3B9002340681A4691
:1062FC001946FEF795B9002340681A461946FEF771
:10630C0087B9002240681146FEF76AB9406800223E
:10631C000221FEF76DB9002340681A46FEF758B902
:10632C00024B04225A60024A1A60704724E7032089
:10633C00946B0B00002340681A46FEF749B940687D
:10634C0000220221FEF754B9002240681146FEF7E4
:10635C0047B9002240681146FEF752B90023406845
:10636C001A461946FEF754B9002340681A461946D6
:10637C00FEF756B940680021FEF77AB94068002153
:10638C00FEF77EB94068002281F00101FEF750B99A
:10639C0040680022FEF75CB9002240681146FEF707
:1063AC005FB9002240681146FEF74AB940680021E7
:1063BC00FEF776B92DE9F04395B014460D46074625
:1063CC00FFF7F4FB00211C220DA8009100F038F916
:1063DC0040230C9320466B460CAA0021FDF7A4FF2A
:1063EC00044600284BD1024601216868FEF708F9E3
:1063FC000221804622466868FEF702F9009E81461B
:10640C002146002E3BD0002939D17368022B03D0D2
:10641C000A2B11D0F669F4E7B8F1000FFAD07169C4
:10642C0006A8043107ADFFF7EFFB0FCD3C1D0FC4E1
:10643C002B6823704146EDE7B9F1000FEAD074697F
:10644C00102201A800F0FCF806238DF8143001ADE1
:10645C0004F108031834186859682A4603C2083333
:10646C00A3421546F7D101A906A807ADFFF7ACFB6F
:10647C000FCD3C1D0FC42B6823704946CAE700980A
:10648C00FDF74AFF384615B0BDE8F0830338022803
:10649C009ABF024B53F8200001487047D06B0B0099
:1064AC002CE7032008B500224068FEF7F1F8BDE8A0
:1064BC000840FFF7EBBF0000024B034A1A600022B2
:1064CC005A6070472CE70320E46B0B007047000008
:1064DC0038B5044614252A46002100F0B1F8258071
:1064EC004025074925812846258200F071F804498A
:1064FC006060284600F06CF8E060204638BD00BFB4
:10650C00206C0B0030B50E4D2978BFF35B8F11F06A
:10651C00010487B011D12846FDF7DAFD68B101A856
:10652C00FFF7D6FF01AA21460648FFF71BFE2846B7
:10653C00FDF7D3FD044800F04DF8024807B030BD1C
:10654C0034E7032038E70320D9640B0070470000C0
:10655C0038B50A4B036001230446436108492020E7
:10656C0000F036F8202560600549A560284600F04B
:10657C002FF8C4E90305204638BD00BF1800010000
:10658C00206C0B0030B50E4D2978BFF35B8F11F0EA
:10659C00010487B011D12846FDF79AFD68B1684611
:1065AC00FFF7D6FF6A4621460648FFF725FE284628
:1065BC00FDF793FD044800F00DF8024807B030BD1C
:1065CC0050E7032054E7032059650B00FDF76DBD20
:1065DC00FDF76DBD002301461A46184600F03AB986
:1065EC00024B1844407800F097007047B56C0B00D4
:1065FC000A44914200F1FF3300D1704710B511F8F5
:10660C00014B03F8014F9142F9D110BD884210B5EE
:10661C0001EB020402D98442234607D8431EA1424F
:10662C0008D011F8012B03F8012FF8E702440146BA
:10663C008A4200D110BD13F8014D02F8014DF7E765
:10664C0002440346934200D1704703F8011BF9E75B
:10665C0038B5104B1D68AB6B0446B3B91820FEF768
:10666C002FF80246A86320B90B4B0C484221FEF7C9
:10667C004FF80B490B4BC0E900130B4B83600B23FA
:10668C00838100210120C2E90401AB6B00221C6153
:10669C005A6138BDF0E50320216C0B00386C0B00FF
:1066AC000E33CDAB34126DE6ECDE0500C9B20346F9
:1066BC0010F8012B1AB18A42F9D1184670470029FB
:1066CC0018BF0023F9E710B50446FFF7EFFF18B920
:1066DC002046FDF7A7FC204410BD034611F8012B02
:1066EC0003F8012B002AF9D1704710B57AB1034693
:1066FC000139841813F8010B11F8012F904201D1C4
:10670C00A34201D1801A10BD0028F3D1FAE710463C
:10671C00F9E738B503460C4669B9BDE83840FFF7D0
:10672C00C5BF431C054621461846FFF7BFFF00288E
:10673C00F7D1284638BD0025F5E70000012B2DE9DF
:10674C00F04701D0242B06D9FDF7DAFF162303609E
:10675C000020BDE8F087DFF8E4C00D462E4615F8A2
:10676C00014B14F80C7017F00807F7D12D2C32D10F
:10677C002C780127B51C002B5BD0102B09D1302CA9
:10678C0007D12C7804F0DF04582C4DD16C781023F1
:10679C00023507F1004808F1FF384FF0000CB8FB48
:1067AC00F3F9664603FB198AA4F1300EBEF1090F0A
:1067BC0016D87446A34224DDBCF1000F1EDBB14594
:1067CC001CD301D1A24519DB06FB03464FF0010C8B
:1067DC0015F8014BE8E72B2C04BF2C78B51CCAE745
:1067EC00A4F1410EBEF1190F01D8373CE2E7A4F138
:1067FC00610EBEF1190F04D8573CDBE74FF0FF3C9C
:10680C00E6E7BCF1000F05DA22230360464642B9E5
:10681C0030469EE707B17642002AF9D0BCF1000F52
:10682C0000D0691E1160F3E73024002BB1D108238E
:10683C00AFE7302CA5D00A23ABE700BFB66C0B003A
:10684C0013460A46014602480068FFF777BF00BFAF
:10685C00F0E503202DE9F843DFF8B8800646D8F8B8
:10686C0000001F460D46914600F056F8254B1C685B
:10687C0034B9254C1C60254B13B11B68C4F8883007
:10688C0063681F2B07DDD8F8000000F047F84FF0C5
:10689C00FF30BDE8F8834EB3D4F8880088B91C4BA0
:1068AC0023B9D8F8000000F038F8F0E74FF4847002
:1068BC00FDF706FF0028F4D00023C0E94033C4F8EC
:1068CC008800636840F8239001229A4000EB830112
:1068DC00D0F800311343C0F80031022EC1F880709B
:1068EC0002BFD0F804311343C0F804316368D8F800
:1068FC0000005A1C0233626044F8235000F00EF87A
:10690C000020C6E7F4E7032068E70320000000003E
:10691C00CD460B0054E603207047704770470000CB
:10692C0041400B007D400B00A5400B00A9400B0023
:10693C000000000043616C6C206F6E2070757265F6
:10694C00207669727475616C000000000000000014
:10695C00000000000000000000000000C5400B001B
:10696C00ED400B000000000000000000F1400B00A7
:10697C0025410B0095560B0039580B000000000008
:10698C00000000009B470B0091470B0087470B0052
:10699C007D470B0071470B0065470B0081630B00B3
:1069AC0089630B0059470B0051470B0047470B00FD
:1069BC003D470B00B1640B00B9630B00C1630B00C6
:1069CC000000000000000000D5490B00D7490B0067
:1069DC0095490B00735D0B00626175640053657221
:1069EC0069616C0053657269616C31004A534F4E9A
:1069FC0053747265616D4C6F6748616E646C65723F
:106A0C000061707000253031307520005D2000254C
:106A1C0064002C200028293A2000205B00636F645E
:106A2C0065203D200025690064657461696C7320E4
:106A3C003D20000D0A006D0066006C6E00666E0055
:106A4C007400636F64650064657461696C000000B8
:106A5C000000000000000000194F0B00314F0B002C
:106A6C0095560B0039580B00000000000000000088
:106A7C00454F0B00594F0B0071580B009F4A0B00F0
:106A8C000000000000000000B14A0B00D74A0B00C8
:106A9C00F9550B00A14A0B0000000000000000009B
:106AAC00AF4A0B00E54A0B00814E0B00074B0B0065
:106ABC0025592D256D2D25645425483A254D3A250B
:106ACC0053257A0061736374696D650000000000E2
:106ADC0000000000555B0B00455B0B00475B0B0097
:106AEC0000000000000000003B5C0B00A35C0B00EE
:106AFC00795C0B00A9490B006B5C0B003D5C0B0037
:106B0C004D5C0B009D5C0B00754A0B005D5C0B0033
:106B1C00355C0B00257500752530347800000000BD
:106B2C000000000000000000F5600B0061610B002C
:106B3C0039610B00A9490B0009610B0025610B00A1
:106B4C0017610B0033610B00754A0B00F7600B00EB
:106B5C00FB600B000000000000000000AD610B00AA
:106B6C00F7610B00CF610B00AF610B00D7610B001D
:106B7C00DF610B00E7610B00EF610B00754A0B0046
:106B8C00000000000000000023630B0019630B00E1
:106B9C000F630B00C5620B0003630B00F7620B0065
:106BAC0081630B0089630B00EB620B00E3620B004B
:106BBC00D9620B00CF620B00B1640B00B9630B0000
:106BCC00C1630B0088E6032024E703202CE7032095
:106BDC00000000000000000041630B004B630B0041
:106BEC0055630B005F630B0069630B0075630B004F
:106BFC0081630B0089630B0091630B009D630B0099
:106C0C00A5630B00AF630B00B1640B00B9630B0001
:106C1C00C1630B00005245454E54206D616C6C6F86
:106C2C006320737563636565646564002F6D6E74B2
:106C3C002F776F726B73706163652F776F726B73E5
:106C4C00706163652F4743432D31302D706970653A
:106C5C006C696E652F6A656E6B696E732D47434365
:106C6C002D31302D706970656C696E652D34385F0F
:106C7C0032303230313132345F31363036313830B7
:106C8C003634312F7372632F6E65776C69622F6E99
:106C9C0065776C69622F6C6962632F7374646C69BD
:106CAC00622F72616E642E63000020202020202051
:106CBC0020202028282828282020202020202020A0
:106CCC0020202020202020202020881010101010A0
:106CDC0010101010101010101010040404040404F0
:106CEC0004040404101010101010104141414141D3
:106CFC004101010101010101010101010101010138
:106D0C0001010101011010101010104242424242C8
:106D1C004202020202020202020202020202020207
:106D2C0002020202021010101020000000000000ED
:106D3C000000000000000000000000000000000047
:106D4C000000000000000000000000000000000037
:106D5C000000000000000000000000000000000027
:106D6C000000000000000000000000000000000017
:106D7C000000000000000000000000000000000007
:106D8C0000000000000000000000000000000000F7
:106D9C0000000000000000000000000000000000E7
:106DAC0000000000000000000000000079420B0011
:106DBC00A5470B00F9470B0085490B0085560B00C6
:106DCC00E5590B00015A0B00A9620B002D630B0057
:046DDC00C5640B007F
:106DE000040000001400000003000000474E55009E
:106DF00029258B19F2F711F8563213027744D70D73
:046E00000023EB97E9
:106E0400946A0B00AC6A0B00D06A0B00F4E5032013
:106E1400000000000000000000000000000000006E
:106E2400000000000000000000000000000000005E
:106E3400000000000000000000000000000000004E
:106E4400000000000000000000000000000000003E
:106E5400000000000000000000000000000000002E
:106E6400000000000000000000000000000000001E
:046E7400F8E7032018
:046E78000000000016
:106E820000000102030405060708090A0B0C0D0E97
:106E92000F101112131415161718191A1B1C1D1E88
:046EA2001F20280085
:046EA60078563412D4
:04000003B000401CED
:00000001FF
