:02000002B0004C
:1040000000400B000A700B00000006000D000502C6
:084010000401A01800000000EB
:04401800D8690B0058
:10401C0010F8012B11F8013B012A28BF9A42F7D066
:10402C00D01A7047034613F8012B002AFBD1181A3B
:10403C000138704709480A49884208B505D0094A31
:10404C00824202D0121A02F08FFB0748074A002165
:10405C00121A02F0B1FB014808BD00BF40DE03207C
:10406C006C6F0B00B0DE0320B0DE0320FCDF0320FE
:10407C0070B5074E074C01F0F1FDA41BA4080025F8
:10408C00AC4200D170BD56F8043B98470135F7E7B8
:10409C00186F0B00486F0B0001F07ABD08B500F0EB
:1040AC0061F8BDE8084001F091BD00F06DBB00F077
:1040BC006BBB00F071BB000000B58DB02C22002151
:1040CC0001A8744602F078FB054B0193054B029353
:1040DC0004947B46002101A8039300F0A7FAFEE7A5
:1040EC002C000C00EC690B00704770470A4B10B5A4
:1040FC000446036000F0ECFE214601F036F901F0B5
:10410C00B9FE01F0ABFE2046044B40F8043B00F036
:10411C00B5FF204610BD00BF906A0B00786A0B00FB
:10412C0010B50446FFF7E2FF20462421FFF7C1FF3C
:10413C00204610BD0EB400B58CB00DAA4FF0200C6B
:10414C0052F8041B0392CDE900120023016804AA63
:10415C001E20CDE904C300F051FA0CB05DF804EB5D
:10416C0003B070472DE9F3412A492B482A4DDFF85B
:10417C00C4802A4FFFF7DEFF0124002602F0BEFAAE
:10418C00E1B202F067F902F0B9FA02F06BF938BB50
:10419C0023492148FFF7CEFF0F2C03D8214928468D
:1041AC00FFF7C8FF23463A460521684600F004FB9A
:1041BC0069462846FFF7BEFF1B492846FFF7BAFFA2
:1041CC00013601347F2CD9D10EBB18491248FFF7A8
:1041DC00B1FF41F2883002B0BDE8F04101F0C8BC3B
:1041EC000428EED10C484146FFF7A4FF0F2C03D84E
:1041FC000C492846FFF79EFF23463A4605216846A0
:10420C0000F0DAFA69462846FFF794FFD9E7084927
:10421C00DCE700BF016A0B001CDF03202E6A0B00D9
:10422C000D6A0B002C6A0B00336A0B00536A0B00EF
:10423C00696A0B00376A0B0070B5D0E9005314267D
:10424C00044606FB0356AE4204D0284600F0A2FBFF
:10425C001435F8E7206800F09FFA204670BD8842BC
:10426C00F8B504460D46164616D9904215D2A2F161
:10427C001406751AA1F114072C44B7421CD02CB1AA
:10428C003146204600F0EFFB337C2374304600F0BF
:10429C0081FB143E143CF0E70ED0B5420CD02CB18F
:1042AC002946204600F0DFFB2B7C2374284600F0C7
:1042BC0071FB14351434F0E7F8BD2DE9F0410023FF
:1042CC00C0E9003383604F689F4204460E4623DDED
:1042DC004FF0140808FB07F000F056FA0546D8B169
:1042EC00D4E9001208FB0212FFF7B9FF206800F0B6
:1042FC0053FA2560A760D6E9007308FB0378B8452C
:10430C0008D03946284600F0C8FB3B7C2B74143788
:10431C001435F4E7736863602046BDE8F081000053
:10432C0070B5244B244A9A6000248CB0C3E9004435
:10433C00022000F085F92146012000F091F9CDE929
:10434C000044029401F096FD1C4C0546694603A8F6
:10435C00FFF7B3FF264603A906A8FFF7AEFF184BDD
:10436C0046F8043B06A909A8FFF7A7FF09AA1E21D6
:10437C00304601F0DDF809A8FFF75EFF06A8FFF74D
:10438C005BFF104B2360256203A8FFF755FF0E4B14
:10439C00236001F06FFD4FF4165101F05BFD00F04E
:1043AC0097FD214600F09AFF6846FFF745FF0CB0D9
:1043BC0070BD00BFB0DE03200000FFFFBCDE032099
:1043CC00786A0B00C06B0B00906A0B0008B5024BAF
:1043DC001B689B68019308BD6802030008B5024B7B
:1043EC001B685B69019308BD6802030008B5024BAA
:1043FC001B689B69019308BD6C02030008B5024B56
:10440C001B685B68019308BD1802030008B5024BDA
:10441C001B685B69019308BD1802030008B5024BC9
:10442C001B685B6C019308BD4802030008B5024B86
:10443C001B689B6C019308BD4802030008B5024B36
:10444C001B68DB6C019308BD4802030008B5024BE6
:10445C001B685B6D019308BD4802030008B5024B55
:10446C001B685B69019308BD6402030008B5024B2D
:10447C001B689B68019308BD3C02030008B5024B06
:10448C001B68DB68019308BD3C02030008B5024BB6
:10449C001B681B69019308BD3C02030008B5024B65
:1044AC001B685B69019308BD3C02030008B5024B15
:1044BC001B689B69019308BD3C02030008B5024BC5
:1044CC001B68DB69019308BD3C02030008B5024B75
:1044DC001B689B6A019308BD3C02030008B5024BA4
:1044EC001B68DB6A019308BD3C02030008B5024B54
:1044FC001B681B6C019308BD3C02030008B5024B02
:10450C001B689B69019308BD2802030008B5024B88
:10451C001B68DB69019308BD2802030008B5024B38
:10452C001B681B6A019308BD2802030008B5024BE7
:10453C001B685B6A019308BD2802030008B5024B97
:10454C001B689B6A019308BD2802030008B5024B47
:10455C001B68DB6A019308BD2802030008B5024BF7
:10456C001B681B6B019308BD2802030008B5024BA6
:10457C001B681B6C019308BD2802030008B5024B95
:10458C001B681B68019308BD4C02030008B5024B65
:10459C001B685B68019308BD4C02030008B5024B15
:1045AC001B689B68019308BD4C02030008B5024BC5
:1045BC001B681B69019308BD4C02030008B5024B34
:1045CC001B685B69019308BD4C02030008B5024BE4
:1045DC001B689B69019308BD4C02030008B5024B94
:1045EC001B68DB69019308BD4C02030008B5024B44
:1045FC001B681B6A019308BD4C02030008B5024BF3
:10460C001B685B6D019308BD6002030008B5024B8B
:10461C001B68DB6E019308BD6002030008B5024BFA
:10462C001B681B6F019308BD6002030008B5034BA8
:10463C001B68D3F8D430019308BD0000600203005E
:10464C0008B5024B1B685B68019308BD2002030090
:10465C0008B5024B1B685B69019308BD200203007F
:10466C0008B5024B1B68DB6A019308BD20020300EE
:10467C0008B5034B1B68D3F88830019308BD0000C4
:10468C002002030008B5034B1B68D3F89430019348
:10469C0008BD00002002030008B5024B1B685B68D4
:1046AC00019308BD4002030008B5024B1B689B68D0
:1046BC00019308BD4002030008B5024B1B68DB6880
:1046CC00019308BD4002030008B5024B1B681B692F
:1046DC00019308BD4002030008B5024B1B685B69DF
:1046EC00019308BD4002030008B5024B1B689B698F
:1046FC00019308BD4002030008B5024B1B68DB693F
:10470C00019308BD4002030008B5024B1B681B6AED
:10471C00019308BD4002030008B5024B1B681B6BDC
:10472C00019308BD4002030008B5024B1B685B6B8C
:10473C00019308BD4002030008B5024B1B681B6CBB
:10474C00019308BD4002030008B5024B1B685B6C6B
:10475C00019308BD4002030008B5024B1B685B6D5A
:10476C00019308BD4002030008B5024B1B689B6D0A
:10477C00019308BD4002030008B5024B1B68DB6BBC
:10478C00019308BD4402030008B5024B1B681B686B
:10479C00019308BD1C02030008B5024B1B685B6843
:1047AC00019308BD1C02030008B5024B1B689B68F3
:1047BC00019308BD1C02030008B5024B1B68DB69A2
:1047CC00019308BD1C02030008B5024B1B685B6A11
:1047DC00019308BD1C02030008B5024B1B68DB6B80
:1047EC00019308BD1C02030008B5024B1B681B6C2F
:1047FC00019308BD1C02030008B5024B1B685B6CDF
:10480C00019308BD1C02030008B5024B1B689B6D8D
:10481C00019308BD1C02030008B5024B1B68DB6D3D
:10482C00019308BD1C020300002240681146FFF7EB
:10483C006BBF002240681146FFF776BF406800222C
:10484C00FFF76ABF4068002281F00101FFF754BFF7
:10485C00002340681A461946FFF746BF00234068FC
:10486C001A461946FFF738BF002240681146FFF779
:10487C002BBF002240681146FFF716BF406800228C
:10488C000221FFF719BF002340681A46FFF704BF47
:10489C00024B03225A60024A1A607047E0DE032082
:1048AC00A86A0B000B6803604B68436013B15A682D
:1048BC0001325A60704738B5046805467CB16368AC
:1048CC00013B63605BB9236820469B689847A368EB
:1048DC00013BA3601BB923682046DB689847284638
:1048EC0038BD0000024B0022C3E900229A607047D9
:1048FC00E8DE0320002240681146FFF705BF0022C6
:10490C0040681146FFF710BF40680022FFF704BF54
:10491C004068002281F00101FFF7EEBE00234068E1
:10492C001A461946FFF7E0BE002340681A4619469E
:10493C00FFF7D2BE002240681146FFF7C5BE002229
:10494C0040681146FFF7B0BE406800220221FFF715
:10495C00B3BE002340681A46FFF79EBE024B0622E8
:10496C005A60024A1A607047F4DE0320EC6A0B00AE
:10497C00054B02221A60054B054A9A600020C3E9D8
:10498C000000FFF75DBE00BF08DF0320FCDE032044
:10499C000000FFFF10B504460068FFF7FDFE20463F
:1049AC0010BD10B50446006808B1FFF7F5FE0023F2
:1049BC00C4E90133236010BD38B504460D460068C8
:1049CC000131FFF7F1FE10B1C4E90005012038BD3B
:1049DC0010B50368044623B143688B4201D3012010
:1049EC0010BD2046FFF7E8FF0028F9D0A368002B84
:1049FC00F5D122681370F2E737B50D4611460192D6
:104A0C000446FFF7E5FF019A28B92046FFF7C9FFD6
:104A1C00204603B030BDA2602946206801F0A4FEF8
:104A2C002268A3680021D154F2E738B50546006826
:104A3C000C4670B16A688B689A4208D3096831B128
:104A4C0001F007FFA368AB600023A36038BDFFF73C
:104A5C00A3FE23682B6063686B60A368AB600023C4
:104A6C00C4E90033F1E710B50023C0E90033044674
:104A7C0083600373FFF7D9FF204610BD884210B541
:104A8C00044605D00B682BB18A681946FFF7B4FFB2
:104A9C00204610BDFFF785FFFAE710B5002304464A
:104AAC00C0E9003383600373FFF7E8FF204610BDB5
:104ABC0010B54368013B0446436063B903689B68C7
:104ACC009847A368013BA3602BB923682046DB6899
:104ADC00BDE81040184710BD70B5D0E9005304462E
:104AEC0005EB0316AE4204D02846FFF753FF1035F2
:104AFC00F8E72068FFF750FE204670BD02480023FF
:104B0C000360FFF78BBC00BF0CDF032010B504461D
:104B1C0080680368DB689847E3681844E06010BD60
:104B2C00F8B506460D468F180024BD420CD03368EC
:104B3C0015F8011B9B6830469847031E01DB1C448B
:104B4C00F3E7002C08BF1C462046F8BD704710B593
:104B5C0010210446FFF7ADFA204610BD13B50446EC
:104B6C00084659B10191FFF75DFA23680199DB689A
:104B7C000246204602B0BDE81040184702B010BDF6
:104B8C0003689B68184730B58BB00023012A8DF859
:104B9C00243098BF0A2209AC0D46B1FBF2F101FB9F
:104BAC00125303F0FF03092B94BF30333733DBB2BE
:104BBC00AA4204F8013DEFD92146FFF7CFFF0BB015
:104BCC0030BD10B50446FFF721FCE0602368204699
:104BDC005B699847002808DAFFF718FCE368C01AED
:104BEC00A3689842F2D34FF0FF3010BD2DE9F0418D
:104BFC0007460C468E180D46B542A5EB040807D0A7
:104C0C003846FFF7DEFF031E02DB05F8013BF3E736
:104C1C004046BDE8F0817047084611B10B685B68EF
:104C2C001847704770477047704738B504460D46B3
:104C3C0000682E2101F003FE2368C31A2B6023B1F8
:104C4C00037803B1013023682060184638BD10B5D5
:104C5C0004210446FFF72DFA204610BD10B504219F
:104C6C000446FFF726FA204610BDFFF7E7BB08B550
:104C7C00FFF7CEF9B0FA80F0400908BD704710B5C7
:104C8C000C4601F0F7F8844210D001F0F7FC844296
:104C9C0005D101F0F3FCBDE8104001F08EBB2CB146
:104CAC00236820465B68BDE81040184710BD13B55B
:104CBC00044608460191FFF7B5F9019902462046D2
:104CCC0002B0BDE8104001F0C3BA13B50446084663
:104CDC000191FFF7A7F923680199DB68024620468A
:104CEC0002B0BDE81040184707B503688DF80710EF
:104CFC00DB6801220DF10701984703B05DF804FB56
:104D0C002DE9F74FD0E900844FF0140A00930AFB09
:104D1C0004F4184BA41017465C434546002C21DDC7
:104D2C0066100AFB06F005EB00093A46B9F804B028
:104D3C00285801915F4528BF5A4601F092FD002882
:104D4C0001994FF001030BD15F4503D1009A137009
:104D5C003446E3E7FCD9A61B09F11405013EF7E73D
:104D6C00F9DBF5E7A5EB08050248AD10684303B085
:104D7C00BDE8F08FCDCCCCCC7FB50369057E01911D
:104D8C0003B3F9B1002600F10C04039603A901A8A2
:104D9C00FFF74BFF0146A8B10DF10B03039A8DF8F9
:104DAC000B602046FFF7ACFF9DF80B3053B1236826
:104DBC00142404FB0034083434F9023C002BA8BF43
:104DCC00DDB2E3E7284604B070BD0EB4F0B58CB08C
:104DDC0000AF07F14405044655F8042B7A602B46C6
:104DEC00202107F11000FD60FFF7EEFC1F287A6808
:104DFC001AD900F1080323F007036E46ADEB030D3F
:104E0C00411C2B466846FD60FFF7DEFC021E04DDEC
:104E1C0023686946DB6820469847B5463037BD465F
:104E2C00BDE8F04003B070470028F7D02368024675
:104E3C00DB6807F1100120469847EFE710B5094CE5
:104E4C002378BFF35B8FDB0709D42046FFF7DCFC2C
:104E5C0028B12046FFF7E0FC034801F077FC03483B
:104E6C0010BD00BF14DF0320314C0B0040DE0320CB
:104E7C0010B5094C2378BFF35B8FDB0709D42046B0
:104E8C00FFF7C2FC28B12046FFF7C6FC034801F02F
:104E9C005DFC034810BD00BF18DF0320894C0B00DC
:104EAC0044DE032038B500250446C0E90055C0E9AE
:104EBC0004558560856140F8245FFFF7AFFAFFF772
:104ECC00BDFFE061FFF7D4FF25732062204638BD9B
:104EDC0010B50A4C2378BFF35B8FDB070CD420464C
:104EEC00FFF792FC40B10648FFF7DCFF2046FFF7C6
:104EFC0093FC044801F02AFC014810BD10DF03208C
:104F0C0020DF032055540B00024A034903480023B9
:104F1C00FFF784BB39520B00C5510B0045510B00F8
:104F2C0000231A4619461846FFF778BB37B58D682B
:104F3C0004466846FFF7B6FC6A462946204601F04F
:104F4C00A7F801A8FFF7B7FC204603B030BD37B572
:104F5C00CD6804466846FFF7A5FC6A4629462046FC
:104F6C0001F072F801A8FFF7A6FC204603B030BD93
:104F7C0037B50D6904466846FFF794FC6A46294626
:104F8C00204601F00AF801A8FFF795FC204603B073
:104F9C0030BD000070B58AB00D46014604A8FFF77D
:104FAC00C5FF144E04A801F08BF8E8B104A96846BB
:104FBC00FFF7CDFF02983146FFF759FE044610B1BA
:104FCC002C1E18BF012401A8FFF775FC002CE9D09A
:104FDC0004A96846FFF7CCFF684601F014F8286076
:104FEC0001A8FFF768FCDDE705A8FFF764FC0AB031
:104FFC0070BD00BF406B0B0037B50C462046134903
:10500C001546FFF705F850B900F034FF4FF4165170
:10501C0000F020FF03B0BDE8304000F02BBF0C497E
:10502C002046FEF7F5FF78B94FF4165301A9284630
:10503C000193FFF7AFFF01F021FB019901F0BAF9E1
:10504C0001F01CFB03B030BD0020FBE7456B0B00EF
:10505C004C6B0B0070B5D0E900531426044606FBCC
:10506C000356AE4205D005F10800FFF7F3FF1435E7
:10507C00F7E72068FFF790FB204670BD10B504469B
:10508C000C30FFF7E7FF2046FFF726FD204610BD4A
:10509C0010B5044B044640F8043BFFF7EFFF2046E5
:1050AC0010BD00BF786A0B0010B50446FFF7F0FF87
:1050BC0020462421FEF7FDFF204610BD10B5034B02
:1050CC0003600446FFF7E4FF204610BDD86B0B00CD
:1050DC0010B50446FFF7F2FF20462421FEF7E9FF46
:1050EC00204610BD0A6802604A6842600022C0E98E
:1050FC00022210B502618C688460CC68C4600C69B3
:10510C008A60CA6004610A6110BD0022C0E90022F5
:10511C0010B582600C6804604C6844608C680A604E
:10512C004A6084608A6010BD10B503680446186834
:10513C00FFF78CF9204610BD2DE9F04F87B0804663
:10514C0003931C4B5B68C3F30803894616466BB983
:10515C00FFF7BEFE044600F12403406A0593FFF7F7
:10516C0084FD237B2BB105A8FFF7DEFF07B0BDE85C
:10517C00F08F01232373D4E900535FFA89F905EB0F
:10518C00830AAA4512D055F8047B3146381DFFF727
:10519C00F3FD8145F5D33B68039A0092D3F808B030
:1051AC004A46334641463846D847EAE7002323733C
:1051BC00D9E700BF00ED00E02DE9F74F9B461A4BF5
:1051CC005B68C3F308038046894616466BB9FFF744
:1051DC007FFE044600F12403406A0193FFF745FD6E
:1051EC00237B2BB101A8FFF79FFF03B0BDE8F08F25
:1051FC0001232373D4E90053F6B205EB830A55451A
:10520C000ED055F8047B5946381DFFF7B5FD864284
:10521C00F5D33B684A46DB68414638469847EEE78B
:10522C0000232373DEE700BF00ED00E02DE9F3411E
:10523C00164B5B68C3F3080305460F461BBBFFF711
:10524C0047FE00F124030446406A0193FFF70DFD6D
:10525C00D4E90063462406EB8308B04509D101A8C4
:10526C00FFF762FFA542B4BF0020012002B0BDE8E9
:10527C00F08156F8040B39460430FFF77DFD84426B
:10528C00A8BF0446E9E70020F0E700BF00ED00E00E
:10529C00F8B5D0E901539D4204460E460DDB6F1C58
:1052AC00002F006804DDB900FFF77EFA18B9F8BDCD
:1052BC00FFF772FA00202060A7602768626807EB8E
:1052CC0085019200A2EB8502081D01F05BFA47F8FC
:1052DC0025606368013363600120E8E737B500F1AE
:1052EC0024030446406A01930D46FFF7BEFCD4E943
:1052FC00003203EB8202934219460BD00968A94293
:10530C0003F10403F7D101A8FFF70EFF002528468F
:10531C0003B030BD29462046FFF7BAFF05460028EA
:10532C00F1D06368012B01D1FFF7EEFD01A8FFF767
:10533C00FBFEECE770B50446D0E900020B4600EB2F
:10534C00820282420FD001461D6851F8046BAE42B6
:10535C0007D1521A01F016FA6368013B6360012011
:10536C0070BD0846EDE70020FAE71FB500F12403F5
:10537C000446406A01910393FFF777FC01A920468C
:10538C00FFF7D8FF18B163680BB9FFF7C9FD03A885
:10539C00FFF7CAFE04B010BD70B5D0E9045618234F
:1053AC00044603FB0656AE4215D005F1100120460B
:1053BC00FFF7C0FF63680BB9FFF7B2FDE06929691D
:1053CC000368DB689847696919B1206A0368DB6870
:1053DC0098471835E7E7D4E90453182606FB03561B
:1053EC00AE4204D02846FFF7D5FA1835F8E700236B
:1053FC00636170BD73B50446FFF792FD04F124039D
:10540C00606A0193FFF731FC2046FFF7C5FF01A846
:10541C00FFF78AFE606A08B1FFF708F8D4E9045375
:10542C00182606FB0356AE4204D02846FFF7B2FA04
:10543C001835F8E72069FFF7AFF92068FFF7ACF9EA
:10544C00204602B070BD00000148FFF7D3BF00BF7B
:10545C0020DF03208842F8B504460D46164615D9C0
:10546C00904214D2A2F11406751AA1F114072C441F
:10547C00B7421AD01CB131462046FFF733FE06F175
:10548C000800FFF7E7FD143E143CF1E70DD0B542E0
:10549C000BD01CB129462046FFF724FE05F108006D
:1054AC00FFF7D8FD14351434F1E7F8BD8842F8B590
:1054BC0004460D46164614D9904213D2A2F110069A
:1054CC00751AA1F110072C44B74218D01CB1314603
:1054DC002046FFF7C8FA3046FFF75CFA103E103C46
:1054EC00F2E70CD0B5420AD01CB129462046FFF792
:1054FC00BAFA2846FFF74EFA10351034F2E7F8BD29
:10550C0070B50E1E054611DD3001FFF73DF904465E
:10551C0058B1D5E9001201EB0212FFF7C7FF28685A
:10552C00FFF73AF92C60AE60012070BD0024F6E75D
:10553C002DE9F04F904695B000230391D8F8041054
:10554C000A9346229942C0E90033C0E90233C0E90C
:10555C000433CDE908330446027623DCD8E900573E
:10556C00142303FB0757AF423BD029460BA8FFF788
:10557C007AFA0BA90FA8099EFFF775FADDE9091352
:10558C0099421BDA089B099A03EB061603EB0212ED
:10559C00314606F11000FFF789FFEEB9099B013384
:1055AC00099311E008A8FFF7ABFF0028D6D108A893
:1055BC00FFF792FA204615B0BDE8F08F013108A82C
:1055CC00FFF79EFF0028DDD10FA8FFF7E3F90BA82A
:1055DC00FFF7E0F91435C6E70FA93046FFF743FA99
:1055EC00DCE70026CDE90B660D964FF01409DDE9DA
:1055FC0008239E427CDA3301D35806930BB901364B
:10560C00F5E70023079309FB06F302930BAD07A9FB
:10561C0006A8FFF70AFB82460028F0D04FF00003E3
:10562C008DF817300146079A0DF117032846FFF73E
:10563C0067FB9DF817700190002F4AD1BDF81C3004
:10564C00ADF84030CDE911774FF6FF73CDF83CA0A3
:10565C00ADF842301397D5E90132934217DB03F1D1
:10566C00010ABAF1000F30DD09FB0AF0FFF78CF8E4
:10567C00834660B3D5E9001209FB0212FFF7EAFE7C
:10568C002868FFF789F8C5F800B0C5F808A02B68A2
:10569C00019A09FB023A6A68514609FB02320AF187
:1056AC001400FFF7D7FEBAF1000F03D00FA9504634
:1056BC00FFF718FD6B6801336B6011A8FFF7CAFC8C
:1056CC003FB10BA8FFF7C6FC71E7BB46D8E7012733
:1056DC00F3E7019B2D6809FB0355069B1B782BB93F
:1056EC00D8F80030029A13441B7CEB8008358EE707
:1056FC002168226062686360A36809920A9A0A931F
:10570C00E368A2600B9A0B932369E2600C9A0C93EA
:10571C00636922610D9A0D93039B08916261237654
:10572C00CFE70000F0B5044687B00D462646194673
:10573C0068461746FEF7C1FD0B4B46F8043B69461D
:10574C0003A8FEF7BAFD03AA39463046FFF7F0FE70
:10575C0003A8FEF771FD6846FEF76EFD034B236050
:10576C002046256207B0F0BD786A0B00C06B0B00B9
:10577C00F0B50F4685B01D490A9C384616461D46A5
:10578C00FEF746FCC0B9A4B1294601A8FFF7BDFC41
:10579C001749242000F0D6FF054630B101AB324644
:1057AC002146FFF7BFFF134B2B6001A8FEF744FD0A
:1057BC002C46204605B0F0BD0F493846FEF728FCB4
:1057CC0090B9002CF5D0294601A8FFF79EFC08499A
:1057DC00242000F0B7FF05460028E6D001AB324686
:1057EC002146FFF79FFFE0E70024E2E7546B0B0034
:1057FC00806D0B00D86B0B00586B0B00014B024AF1
:10580C001A6070471CDF0320696B0B002DE9F04711
:10581C00089DD0F8209004460E461746984600F096
:10582C0029FB81454CD02B79190704D56A69544959
:10583C002046FFF7CAFAB8F1000F0DD05B212046C5
:10584C00FFF752FA41462046FFF73FFA23684D49CD
:10585C00DB680222204698472B79DA0723D5D5F846
:10586C0008802F21404601F010F808B100F1010822
:10587C0041462046FFF729FA2B799B0708D53A2198
:10588C002046FFF731FAEA683F492046FFF79DFAB8
:10589C002A79236812F0040FDB6814BF3B493C499A
:1058AC000222204698472B7958071DD529690B46AB
:1058BC001A4613F8010B60B1202808D11946F7E7F6
:1058CC00344800F018FE0028ADD0BDE8F087282839
:1058DC00EED12368521ADB682046984723682E497C
:1058EC00DB6804222046984700213846FEF78EFEDE
:1058FC0001462046FFF7E9F923682549DB680222B7
:10590C00204698471EB131462046FFF7DEF92B7929
:10591C0013F0300F2CD023682049DB68022220467C
:10592C0098472B79D9060AD523681D49DB680722CD
:10593C0020469847AA691B492046FFF746FA2B795F
:10594C009A0611D5DB0605D523681049DB680222BF
:10595C002046984723681449DB6820460A2298475A
:10596C00E9692046FFF7B1F95D212046FFF7BCF944
:10597C0023680E49DB6820460222BDE8F047184731
:10598C006D6B0B00746B0B00776B0B007A6B0B0061
:10599C007F6B0B00C0DF03207D6B0B00826B0B0059
:1059AC00856B0B008D6B0B00906B0B009B6B0B00D6
:1059BC002DE9F0410446076A0D46164600F05AFAE6
:1059CC00874207D0206A036832462946DB68BDE867
:1059DC00F0411847034800F08EFD0028F2D0BDE8D6
:1059EC00F08100BFC0DF03202DE9F04385B0D0F873
:1059FC0020900C9C05460F4690461E4600F03AFA45
:105A0C00814505D1494800F076FD002840F08A8098
:105A1C002B6A474A00924FF000096846CDE90239DB
:105A2C008DF8049000F075FB49464046FEF7EEFDFC
:105A3C00404980460122684600F0FAFB4146FFF7D8
:105A4C0036F93FB13C490122684600F0F1FB39467A
:105A5C00FFF72DF93EB139490122684600F0E8FB09
:105A6C003146FFF724F92379DF070ED5A6682F21DD
:105A7C00304600F00AFF00B1461C3149012268464D
:105A8C0000F0D6FB3146FFF712F923799E0707D5B4
:105A9C002C490222684600F0CBFBE16800F046FB83
:105AAC002379580714D5266933461F4613F8012B62
:105ABC002AB1202A01D11E46F7E7282AF5D122491E
:105ACC000222684600F0B4FBBA1B314600F0C0FB62
:105ADC002379190707D51D490122684600F0A8FB58
:105AEC00616900F035FB2379DA0607D518490422E1
:105AFC00684600F09DFBA16900F018FB23799B061A
:105B0C0007D514490622684600F092FBE169FFF7BD
:105B1C00CEF8684600F0E7FA286A0F4903680222BB
:105B2C00DB68984705B0BDE8F08300BFC0DF0320F9
:105B3C00306B0B004A6B0B009E6B0B00136E0B0053
:105B4C00A06B0B00A26B0B00A56B0B00A86B0B00E2
:105B5C00AA6B0B00AF6B0B009B6B0B00024B1A6814
:105B6C00024B1A60704700BF48DE032048DF032059
:105B7C000021FEF76DBD0000014B00229A607047BA
:105B8C004CDF0320014B1860704700BF4CDE032034
:105B9C007047000008B50B4B43B100F06BF903687C
:105BAC001B699847002801DDAFF30080064B43B119
:105BBC0000F064FD03681B699847002801DDAFF312
:105BCC00008008BD000000000000000008B5FFF7D1
:105BDC00E1FFFEF71BFC014B186008BDE0DF032062
:105BEC000548064A064908B5121A00F0BDFD054BDA
:105BFC00054A1A6008BD00BF00F4032004F403201A
:105C0C00DC6F0B0000F403201E1C279A07B5002341
:105C1C0000931A466FF07701FEF734FD03B05DF880
:105C2C0004FB000007B543880A2B08D0502B0BD17E
:105C3C00094B1B684BB103B05DF804EB1847FFF739
:105C4C00E5FF03B05DF804FB002300931A466FF0E8
:105C5C007701FEF717FDF4E760DF032010B512485B
:105C6C000021FEF7C9FD114B1A68114B9A42114BDA
:105C7C000CBF012200221A7001D0FFF7B1FFFEF712
:105C8C00BDFB044600F0A0FD0B4B13B12046AFF357
:105C9C00008000210848FEF76FFDBDE81040074862
:105CAC000021FEF7E5BC00BF915B0B0000F4032064
:105CBC001E1C279A5CDF032000000000315C0B00E7
:105CCC00704710B518210446FEF7F3F9204610BDB5
:105CDC00F0B5037D062B8DB00E4600F104074FF096
:105CEC00000412D000F1080515F8011D0A223046F7
:105CFC00FEF749FFAF42044419D0002CF4D02E21FA
:105D0C003046FEF73DFF0444EEE72F236A46394642
:105D1C000A208DF80040FEF7A1FB6846FEF782F9D9
:105D2C0033680246DB68694630469847044620468D
:105D3C000DB0F0BD10B5054B0446112240F8043BE4
:105D4C00002100F039FD204610BD00BF3C6C0B005B
:105D5C000346074A10B543F8042B01F1100251F821
:105D6C00044B43F8044B9142F9D10A781A7010BDD8
:105D7C003C6C0B0010B59DF8084044EA032343EA41
:105D8C00024242EA016104234160037510BD000028
:105D9C0007B5064B0360CB7800938B784A7809786B
:105DAC00FFF7E8FF03B05DF804FB00BF3C6C0B0091
:105DBC00417470477047704708B50021007CFEF7AE
:105DCC0005FC40EAE07008BD08B50121007CFEF737
:105DDC00FDFB40EAE07008BD08B5007CFEF7EEFB69
:105DEC0020EAE07008BD08B5007CFEF7DFFB20EA76
:105DFC00E07008BD13B50446007C0191FEF7DEFB94
:105E0C000028019901DC607C20B1207CFEF7E6FBC8
:105E1C0020EAE07002B010BD007CFEF7E7BB10B5C5
:105E2C0014210446FEF745F9204610BD10B54FF479
:105E3C007A73044608460021C4E90113044B23601D
:105E4C000123207463741146FEF798FB204610BDA5
:105E5C00506C0B00007C0022FEF798BB007CFEF718
:105E6C009DBB10B514220446002100F0A5FC204671
:105E7C0010BD000010B50F4C88B003A8FFF7F1FF60
:105E8C002178BFF35B8F11F001010FD120460191F6
:105E9C00FEF7BAFC019948B103AA0748FFF7C6FF01
:105EAC002046FEF7B9FC054800F050FC024808B04B
:105EBC0010BD00BF64DF032068DF0320C15D0B0051
:105ECC0000F11003012213F8101C0129184608D107
:105EDC0053F8041C02EB4102013A03F11003F2D116
:105EEC007047022904BF53F8041C5218F4E70EB48F
:105EFC00F0B588B000AF07F13405102155F8042B2C
:105F0C007A6004462B467818FD60FEF75DFC0F287E
:105F1C007A681AD900F1080323F007036E46ADEB3B
:105F2C00030D411C2B466846FD60FEF74DFC021E1E
:105F3C0004DD236869469B6820469847B5462037A0
:105F4C00BD46BDE8F04003B070470028F7D0236889
:105F5C0002469B6807F1100120469847EFE738B5D9
:105F6C000B6803604D6843689D42044608D015B128
:105F7C006B6801336B60606808B1FEF799FD656072
:105F8C0038BD07B503688DF807109B6801220DF129
:105F9C000701984703B05DF804FB0B46114600223D
:105FAC0010B5C0E90022044683600BB9204610BD31
:105FBC00FFF7D5FFFAE78368EBB11A78032A1AD8F2
:105FCC00DFE802F00417021B0520704702685B68CB
:105FDC005268D05C2D2812D0A0F13003092B0ED9B9
:105FEC0074280ED066280CD0A0F16E03584258418C
:105FFC00704706207047002070470420704703202C
:10600C0070470220704710B50446FFF7D4FF0228F2
:10601C000ED0C31EDBB2012B14D82268A3685068C3
:10602C005B68BDE810400A220021184400F0C4BC93
:10603C002268A36852685B68D05CA0F17403584274
:10604C00584110BD0020FCE738B50023C0E90033EF
:10605C0004460E48C4E90203A9B10B78032B06D001
:10606C008BB9136858684B68C35C6E2B07D01368E8
:10607C004D6858688B6828445B1BA060E360114630
:10608C002046FFF76CFF204638BD00BF9D6B0B0010
:10609C0038B500250B46C0E90055C0E90255C0E9EA
:1060AC000455044611464BB11A78012A06D103F166
:1060BC001002DB6882604361FFF751FF204638BD58
:1060CC0010B54369044663B18068E060013B103051
:1060DC00A0602061636113B1FFF7F2FEA0600120A4
:1060EC0000E0184610BD10B57D210446FFF749FFAE
:1060FC0001232371204610BD08B50379012B02D072
:10610C00022B04D008BD2C21FFF73BFFFAE73A2104
:10611C00FAE710B50446FFF7EFFF20467B21FFF7A7
:10612C0030FF00232371204610BD000013B5044638
:10613C000191FFF7E1FF2368019ADB6803492046D0
:10614C00984701232046237102B010BD776B0B00DA
:10615C0013B504460191FFF7CFFF2368019ADB6862
:10616C0003492046984701232046237102B010BDF5
:10617C007C6C0B002DE9F0470D462221904604461D
:10618C00FFF7FFFEDFF8A490A8442F464745BA4618
:10619C003DD017F8016B222E06D05C2E04D0304671
:1061AC0000F0DAFA0028F1D12368AAEB05029B680B
:1061BC002946204698475C212046FFF7E2FE0D2E2B
:1061CC000AD8072E1CD9A6F10803052B18D8DFE82E
:1061DC0003F00D0F11171315222E01D05C2E0FD1C9
:1061EC0031462046FFF7CDFE3D46CFE76221F8E76A
:1061FC007421F6E76E21F4E76621F2E77221F0E7ED
:10620C0023683246DB68494620469847ECE7BD4296
:10621C0005D023687A1B9B68294620469847222183
:10622C002046FFF7AEFEBDE8F08700BF7F6C0B0089
:10623C0013B50446CDE90021FFF75EFF2046DDE9EA
:10624C000021FFF797FF02232046237102B010BDF7
:10625C0013B50446CDE90021FFF74EFF2046DDE9DA
:10626C000021FFF787FF01232046237102B010BDE8
:10627C00002240681146FEF727BA002240681146FA
:10628C00FEF742BA002240681146FEF74DBA40684C
:10629C000022FEF741BA4068002281F00101FEF7AE
:1062AC002BBA002340681A461946FEF71DBA002384
:1062BC0040681A461946FEF70FBA0022406811468C
:1062CC00FEF7F2B9406800220221FEF7F5B900236F
:1062DC0040681A46FEF7E0B9084B10B52824224650
:1062EC001846002100F068FA054B04804FF0FF328D
:1062FC00426004225A60034A1A6010BD84DF0320F6
:10630C007CDF0320906C0B0070474174704708B51C
:10631C00007CFEF7DBF820EAE07008BD08B5007CD5
:10632C00FEF7B4F820EAE07008BD08B5007CFEF773
:10633C00BDF840EAE07008BD08B5007CFEF7AEF889
:10634C0040EAE07008BD007CFEF7B8B837B5457C74
:10635C0004462DB1207C03B0BDE83040FEF78EB86A
:10636C00007C0191FEF7B2F800280199F2DC284676
:10637C0003B030BD10B514210446FDF79AFE20463B
:10638C0010BD000010B54FF47A7304460846114650
:10639C000022C4E90123044B23600123207463749D
:1063AC00FEF7A4F8204610BDD46C0B00007C002333
:1063BC00FEF794B80022FFF7F9BF007CFEF756B841
:1063CC007047F8B5064615460C468F18BC4206D0E9
:1063DC00336814F8011B9B6830469847F6E728464B
:1063EC00F8BD007C0022FEF799B8007C0021FEF776
:1063FC009DB8007C0021FEF7A1B8007C0021FEF7BF
:10640C00A5B8007C0021FEF7A9B810B514210446EC
:10641C00FDF74FFE204610BD38B5044615464FF427
:10642C007A730022C4E90123094B217408462360C6
:10643C002946FEF79BF8BF3008D16B69DB0705D501
:10644C006868FEF7A9F9E868FEF7A6F9204638BD9A
:10645C00086D0B00007C0022FEF750B8007C002277
:10646C00FEF754B80121FFF7F9BF0000054BFF21DF
:10647C000022C3E9001201206421C3E902011A6160
:10648C00704700BFACDF0320002340681A46FEF7BC
:10649C0003B9406800220221FEF70EB900224068C1
:1064AC001146FEF701B9002240681146FEF70CB9FF
:1064BC00002340681A461946FEF70EB900234068BF
:1064CC001A461946FEF710B940680021FEF734B998
:1064DC0040680021FEF738B94068002281F00101C4
:1064EC00FEF70AB940680022FEF716B90022406890
:1064FC001146FEF719B9002240681146FEF704B99F
:10650C0040680021FEF730B92DE9F043002699B020
:10651C000D46144698460746FFF70CFC1C223146E4
:10652C0011A8039600F048F9B8F1000F2CD14023C4
:10653C0068681093049618B104A9C0B2FDF756FF11
:10654C00049B0093204603AB10AA0021FDF746FFE5
:10655C00044600284DD1024601216868FEF7B4F8C4
:10656C000221804622466868FEF7AEF8039E8146FB
:10657C002146002E3DD000293BD17368022B05D05B
:10658C000A2B13D0F669F4E71D4BD1E7B8F1000FD5
:10659C00F8D071690AA804310BADFFF7F9FB0FCDE8
:1065AC003C1D0FC42B6823704146EBE7B9F1000F7B
:1065BC00E8D07469102205A800F0FEF806238DF8C7
:1065CC00243005AD04F108031834186859682A46BC
:1065DC0003C20833A3421546F7D105A90AA80BAD8F
:1065EC00FFF7B6FB0FCD3C1D0FC42B68237049463B
:1065FC00C8E70398FDF7EAFE384619B0BDE8F0830A
:10660C0040000040033803289ABF024B53F8200087
:10661C00014870472C6D0B00C0DF032008B5002229
:10662C004068FEF799F8BDE80840FFF7EBBF0000A3
:10663C00024B034A1A6000225A607047C0DF0320E5
:10664C00446D0B007047000038B5044614252A46EB
:10665C00002100F0B1F82580402507492581284606
:10666C00258200F071F804496060284600F06CF84F
:10667C00E060204638BD00BF806D0B0030B50E4D7C
:10668C002978BFF35B8F11F0010487B011D1284634
:10669C00FEF7BAF868B101A8FFF7D6FF01AA2146A8
:1066AC000648FFF76FFE2846FEF7B6F8044800F0E0
:1066BC004DF8024807B030BDC8DF0320CCDF032003
:1066CC0051660B007047000038B50A4B036001237C
:1066DC00044643610849202000F036F8202560600C
:1066EC000549A560284600F02FF8C4E903052046AB
:1066FC0038BD00BF18000100806D0B0030B50E4D89
:10670C002978BFF35B8F11F0010487B011D12846B3
:10671C00FEF77AF868B16846FFF7D6FF6A4621465D
:10672C000648FFF779FE2846FEF776F8044800F095
:10673C000DF8024807B030BDE4DF0320E8DF03208A
:10674C00D1660B00FDF7B1BCFDF7B1BC00230146CF
:10675C001A461846FDF7C8BC024B1844407800F0A6
:10676C0097007047156E0B000A44914200F1FF33FD
:10677C0000D1704710B511F8014B03F8014F91424D
:10678C00F9D110BD884210B501EB020402D9844244
:10679C00234607D8431EA14208D011F8012B03F859
:1067AC00012FF8E7024401468A4200D110BD13F8CC
:1067BC00014D02F8014DF7E702440346934200D124
:1067CC00704703F8011BF9E738B5104B1D68AB6B2C
:1067DC000446B3B91820FDF7D7FF0246A86320B9C9
:1067EC000B4B0C484221FDF7FFFF0B490B4BC0E94B
:1067FC0000130B4B83600B23838100210120C2E922
:10680C000401AB6B00221C615A6138BD4CDE0320C5
:10681C00816D0B00986D0B000E33CDAB34126DE611
:10682C00ECDE0500C9B2034610F8012B1AB18A42FE
:10683C00F9D118467047002918BF0023F9E710B5A5
:10684C000446FFF7EFFF18B92046FDF7EBFB204499
:10685C0010BD034611F8012B03F8012B002AF9D1C6
:10686C00704710B57AB103460139841813F8010B3F
:10687C0011F8012F904201D1A34201D1801A10BD11
:10688C000028F3D1FAE71046F9E738B503460C4671
:10689C0069B9BDE83840FFF7C5BF431C0546214622
:1068AC001846FFF7BFFF0028F7D1284638BD002552
:1068BC00F5E70000012B2DE9F04701D0242B06D978
:1068CC00FDF78AFF162303600020BDE8F087DFF890
:1068DC00E4C00D462E4615F8014B14F80C7017F059
:1068EC000807F7D12D2C32D12C780127B51C002BA1
:1068FC005BD0102B09D1302C07D12C7804F0DF049D
:10690C00582C4DD16C781023023507F1004808F152
:10691C00FF384FF0000CB8FBF3F9664603FB198AFD
:10692C00A4F1300EBEF1090F16D87446A34224DD33
:10693C00BCF1000F1EDBB1451CD301D1A24519DB04
:10694C0006FB03464FF0010C15F8014BE8E72B2C26
:10695C0004BF2C78B51CCAE7A4F1410EBEF1190F87
:10696C0001D8373CE2E7A4F1610EBEF1190F04D84F
:10697C00573CDBE74FF0FF3CE6E7BCF1000F05DAD4
:10698C0022230360464642B930469EE707B1764261
:10699C00002AF9D0BCF1000F00D0691E1160F3E79A
:1069AC003024002BB1D10823AFE7302CA5D00A231B
:1069BC00ABE700BF166E0B0013460A4601460248B1
:1069CC000068FFF777BF00BF4CDE032041400B008F
:1069DC007D400B00A5400B00A9400B0000000000FF
:1069EC0043616C6C206F6E207075726520766972D5
:1069FC007475616C005363616E6E696E672E2E2E1A
:106A0C00004932432064657669636520666F756E54
:106A1C006420617420616464726573732030780043
:106A2C003000253032580020202100556E6B6E6FDF
:106A3C00776E206572726F7220617420616464726B
:106A4C00657373203078004E6F20493243206465A3
:106A5C00766963657320666F756E640A00646F6E89
:106A6C00650A0000000000000000000000000000AB
:106A7C0000000000C5400B00F7400B0000000000B8
:106A8C0000000000F9400B002D410B0019580B00C1
:106A9C00BD590B00000000000000000093480B00E3
:106AAC0089480B007F480B0075480B0069480B00A8
:106ABC005D480B00D5640B00DD640B0051480B00E6
:106ACC0049480B003F480B0035480B0029660B006A
:106ADC000D650B0015650B000000000000000000A8
:106AEC005F490B0055490B004B490B0041490B000A
:106AFC0035490B0029490B00D5640B00DD640B00F4
:106B0C001D490B0015490B000B490B0001490B00EB
:106B1C0029660B000D650B0015650B0000000000CD
:106B2C0000000000594B0B005B4B0B00194B0B008A
:106B3C00FB5E0B00626175640053657269616C00E9
:106B4C0053657269616C31004A534F4E53747265D0
:106B5C00616D4C6F6748616E646C6572006170703A
:106B6C0000253031307520005D20002564002C207C
:106B7C000028293A2000205B00636F6465203D20CB
:106B8C000025690064657461696C73203D20000DFB
:106B9C000A006D0066006C6E00666E007400636F18
:106BAC0064650064657461696C000000000000009D
:106BBC00000000009D500B00B5500B0019580B0045
:106BCC00BD590B000000000000000000C9500B0074
:106BDC00DD500B00F5590B00234C0B00000000009E
:106BEC0000000000354C0B005B4C0B007D570B007C
:106BFC00254C0B000000000000000000334C0B0083
:106C0C00694C0B0005500B008B4C0B0025592D25A6
:106C1C006D2D25645425483A254D3A2553257A0087
:106C2C0061736374696D6500000000000000000072
:106C3C00DD5C0B00CD5C0B00CF5C0B00000000009A
:106C4C0000000000C35D0B002B5E0B00015E0B000F
:106C5C002D4B0B00F35D0B00C55D0B00D55D0B00E0
:106C6C00255E0B00F94B0B00E55D0B00BD5D0B00C9
:106C7C0025750075253034780000000000000000F8
:106C8C0000000000DB620B00D1620B00C7620B003E
:106C9C007D620B00BB620B00AF620B00D5640B0076
:106CAC00DD640B00A3620B009B620B0091620B0076
:106CBC0087620B0029660B000D650B0015650B0038
:106CCC00000000000000000015630B0081630B0046
:106CDC0059630B002D4B0B0029630B0045630B0014
:106CEC0037630B0053630B00F94B0B0017630B005E
:106CFC001B630B000000000000000000CD630B00C4
:106D0C0017640B00EF630B00CF630B00F7630B00F2
:106D1C00FF630B0007640B000F640B00F94B0B00B7
:106D2C00E0DE03207CDF0320C0DF0320F4DE032041
:106D3C00000000000000000095640B009F640B0035
:106D4C00A9640B00B3640B00BD640B00C9640B0099
:106D5C00D5640B00DD640B00E5640B00F1640B00E3
:106D6C00F9640B0003650B0029660B000D650B0025
:106D7C0015650B00005245454E54206D616C6C6FCF
:106D8C006320737563636565646564002F6D6E7451
:106D9C002F776F726B73706163652F776F726B7384
:106DAC00706163652F4743432D31302D70697065D9
:106DBC006C696E652F6A656E6B696E732D47434304
:106DCC002D31302D706970656C696E652D34385FAE
:106DDC0032303230313132345F3136303631383056
:106DEC003634312F7372632F6E65776C69622F6E38
:106DFC0065776C69622F6C6962632F7374646C695C
:106E0C00622F72616E642E630000202020202020EF
:106E1C00202020282828282820202020202020203E
:106E2C00202020202020202020208810101010103E
:106E3C00101010101010101010100404040404048E
:106E4C000404040410101010101010414141414171
:106E5C0041010101010101010101010101010101D6
:106E6C000101010101101010101010424242424267
:106E7C0042020202020202020202020202020202A6
:106E8C00020202020210101010200000000000008C
:106E9C0000000000000000000000000000000000E6
:106EAC0000000000000000000000000000000000D6
:106EBC0000000000000000000000000000000000C6
:106ECC0000000000000000000000000000000000B6
:106EDC0000000000000000000000000000000000A6
:106EEC000000000000000000000000000000000096
:106EFC000000000000000000000000000000000086
:106F0C000000000000000000000000002D430B00FA
:106F1C009D480B00F1480B0069490B007D490B00A3
:106F2C00094B0B0009580B00695B0B00855B0B00D0
:0C6F3C00E5620B0079640B003D660B0061
:106F4800040000001400000003000000474E550034
:106F5800BBBA14F469E2D701B8DC26AC0764E40FC5
:046F6800C50F004809
:106F6C00F06B0B00086C0B002C6C0B0050DE03203C
:106F7C000000000000000000000000000000000005
:106F8C0000000000000000000000000000000000F5
:106F9C0000000000000000000000000000000000E5
:106FAC0000000000000000000000000000000000D5
:106FBC0000000000000000000000000000000000C5
:106FCC0000000000000000000000000000000000B5
:046FDC0000000000B1
:106FE60000000102030405060708090A0B0C0D0E32
:106FF6000F101112131415161718191A1B1C1D1E23
:047006001F2028001F
:04700A00785634126E
:04000003B000401CED
:00000001FF
