:02000002B0004C
:1040000000400B0002580B00000006000C000502E7
:08401000040139180000000052
:0440180004540B0041
:10401C0081F0004102E000BF83F0004330B54FEA6D
:10402C0041044FEA430594EA050F08BF90EA020FDA
:10403C001FBF54EA000C55EA020C7FEA645C7FEA6D
:10404C00655C00F0E2804FEA5454D4EB5555B8BF90
:10405C006D420CDD2C4480EA020281EA030382EA01
:10406C00000083EA010180EA020281EA0303362D93
:10407C0088BF30BD11F0004F4FEA01314FF4801C66
:10408C004CEA113102D0404261EB410113F0004F78
:10409C004FEA03334CEA133302D0524263EB43032F
:1040AC0094EA050F00F0A780A4F10104D5F1200ECD
:1040BC000DDB02FA0EFC22FA05F2801841F1000128
:1040CC0003FA0EF2801843FA05F359410EE0A5F1FC
:1040DC0020050EF1200E012A03FA0EFC28BF4CF02D
:1040EC00020C43FA05F3C01851EBE37101F00045E3
:1040FC0007D54FF0000EDCF1000C7EEB00006EEBF0
:10410C000101B1F5801F1BD3B1F5001F0CD3490879
:10411C005FEA30004FEA3C0C04F101044FEA4452D0
:10412C0012F5800F80F09A80BCF1004F08BF5FEA57
:10413C00500C50F1000041EB045141EA050130BD37
:10414C005FEA4C0C404141EB0101013C28BFB1F549
:10415C00801FE9D291F0000F04BF01460020B1FA94
:10416C0081F308BF2033A3F10B03B3F120020CDA67
:10417C000C3208DD02F1140CC2F10C0201FA0CF045
:10418C0021FA02F10CE002F11402D8BFC2F1200CAA
:10419C0001FA02F120FA0CFCDCBF41EA0C01904060
:1041AC00E41AA2BF01EB0451294330BD6FEA0404A9
:1041BC001F3C1CDA0C340EDC04F11404C4F1200294
:1041CC0020FA04F001FA02F340EA030021FA04F3A6
:1041DC0045EA030130BDC4F10C04C4F1200220FAFD
:1041EC0002F001FA04F340EA0300294630BD21FA3B
:1041FC0004F0294630BD94F0000F83F4801306BF01
:10420C0081F480110134013D4EE77FEA645C18BFF4
:10421C007FEA655C29D094EA050F08BF90EA020F8B
:10422C0005D054EA000C04BF1946104630BD91EA83
:10423C00030F1EBF0021002030BD5FEA545C05D186
:10424C004000494128BF41F0004130BD14F58004C5
:10425C003CBF01F5801130BD01F0004545F0FE4139
:10426C0041F470014FF0000030BD7FEA645C1ABF6E
:10427C00194610467FEA655C1CBF0B46024650EAA5
:10428C00013406BF52EA033591EA030F41F40021D1
:10429C0030BD00BF90F0000F04BF0021704730B557
:1042AC004FF4806404F132044FF000054FF000012C
:1042BC0050E700BF90F0000F04BF0021704730B5ED
:1042CC004FF4806404F1320410F0004548BF4042C2
:1042DC004FF000013EE700BF42004FEAE2014FEA17
:1042EC0031014FEA02701FBF12F07F4393F07F4FF2
:1042FC0081F06051704732F07F4208BF704793F0F5
:10430C007F4F04BF41F40021704730B54FF4607407
:10431C0001F0004521F000411CE700BF50EA01020A
:10432C0008BF704730B54FF000050AE050EA0102B3
:10433C0008BF704730B511F0004502D5404261EB23
:10434C0041014FF4806404F132045FEA915C3FF464
:10435C00D8AE4FF003025FEADC0C18BF03325FEA01
:10436C00DC0C18BF033202EBDC02C2F1200300FAB2
:10437C0003FC20FA02F001FA03FE40EA0E0021FAD7
:10438C0002F11444BDE600BF034613F8012B002ACA
:10439C00FBD1181A0138704709480A49884208B5F8
:1043AC0005D0094A824202D0121A00F07BFF07485E
:1043BC00074A0021121A00F083FF014808BD00BF14
:1043CC0060E6032068570B00CCE60320CCE6032004
:1043DC00FCE7032070B5074E074C00F07FFCA41BD4
:1043EC00A4080025AC4200D170BD56F8043B984798
:1043FC000135F7E71C570B0044570B0000F038B899
:10440C0008B500F06DF8BDE8084000F01FBC00F0E6
:10441C0045BA00F04BBA0078B0FA80F0400970470A
:10442C000123037070470EB400B58CB00DAA4FF089
:10443C00200C52F8041B0392CDE9001200230168F2
:10444C0004AA1E20CDE904C300F084F90CB05DF879
:10445C0004EB03B07047000008B500F0F7FEBDE8B0
:10446C0008400146014800F0BDB800BFCCE603206F
:10447C0030B585B000F0EAFE4FF4165100F0AEFDF9
:10448C004FF47A7000F0B6FB104D114C114800F04F
:10449C0063F840B920462946FFF7C5FF4FF47A7000
:1044AC0000F0A8FBF2E70C490948FFF7BCFF68468F
:1044BC00084900F063F8009A08490548FFF7B3FF74
:1044CC00684600F063FA05B030BD00BF18540B000D
:1044DC00F0E60320CCE603203C540B0061540B00A7
:1044EC0038B5174D174C284600F038F810EE100A66
:1044FC00FFF7F2FE02460B4620461349FFF793FFE7
:10450C00284600F02BF810EE100AFFF7E5FE0B46DC
:10451C0002460E492046FFF786FF284600F02AF88F
:10452C000B4902462046FFF77EFF20460949FFF75C
:10453C007AFFBDE838404FF47A7000F05BBB00BFE7
:10454C00CCE60320F0E6032077540B008D540B00CF
:10455C00A6540B00BE540B00012070479FED010ABE
:10456C00704700BF000000009FED010A704700BFBC
:10457C0000000000002070470120704730B50D4648
:10458C0085B015490446686800F0CFFA322000F077
:10459C0031FB1249684600F044FA686803681B69ED
:1045AC00984740B1686803685B699847C1B2684630
:1045BC0000F081FAF1E7029B4BB16946204600F00E
:1045CC0053FA684600F0E2F9204605B030BD0449C4
:1045DC00204600F026FAF4E7DC540B008C540B0058
:1045EC00E4540B00014AC0E900217047F4540B005D
:1045FC0013B50446084659B10191FFF7C5FE23686F
:10460C000199DB680246204602B0BDE8104018470D
:10461C0002B010BD08B5024B1B689B68019308BD26
:10462C006802030008B5024B1B68DB68019308BDE8
:10463C006802030008B5024B1B685B68019308BD58
:10464C001802030008B5024B1B685B69019308BD97
:10465C001802030008B5024B1B685B6C019308BD84
:10466C004802030008B5024B1B685B69019308BD47
:10467C006402030008B5024B1B68DB68019308BD9C
:10468C003C02030008B5024B1B681B69019308BD73
:10469C003C02030008B5024B1B685B69019308BD23
:1046AC003C02030008B5024B1B689B69019308BDD3
:1046BC003C02030008B5024B1B68DB69019308BD83
:1046CC003C02030008B5024B1B689B6A019308BDB2
:1046DC003C02030008B5024B1B68DB6A019308BD62
:1046EC003C02030008B5024B1B681B6C019308BD10
:1046FC003C02030008B5024B1B681B68019308BD04
:10470C004C02030008B5024B1B681B69019308BDE2
:10471C004C02030008B5024B1B685B69019308BD92
:10472C004C02030008B5024B1B689B69019308BD42
:10473C004C02030008B5024B1B68DB69019308BDF2
:10474C004C02030008B5024B1B681B6A019308BDA1
:10475C004C02030008B5024B1B685B6D019308BD4E
:10476C006002030008B5024B1B685B68019308BD2F
:10477C002002030008B5024B1B685B69019308BD5E
:10478C002002030008B5034B1B68D3F88830019353
:10479C0008BD00002002030008B5034B1B68D3F8CA
:1047AC009430019308BD00002002030008B5024BB1
:1047BC001B685B68019308BD4002030008B5024BFF
:1047CC001B689B68019308BD4002030008B5024BAF
:1047DC001B68DB68019308BD4002030008B5024B5F
:1047EC001B681B69019308BD4002030008B5024B0E
:1047FC001B685B69019308BD4002030008B5024BBE
:10480C001B689B69019308BD4002030008B5024B6D
:10481C001B68DB69019308BD4002030008B5024B1D
:10482C001B681B6A019308BD4002030008B5024BCC
:10483C001B681B6B019308BD4002030008B5024BBB
:10484C001B685B6B019308BD4002030008B5024B6B
:10485C001B681B6C019308BD4002030008B5024B9A
:10486C001B685B6C019308BD4002030008B5024B4A
:10487C001B685B6D019308BD4002030008B5024B39
:10488C001B689B6D019308BD4002030008B5024BE9
:10489C001B68DB6B019308BD4402030008B5024B97
:1048AC001B681B68019308BD1C02030008B5024B72
:1048BC001B685B68019308BD1C02030008B5024B22
:1048CC001B689B68019308BD1C02030008B5024BD2
:1048DC001B681B6C019308BD1C02030008B5024B3E
:1048EC001B685B6C019308BD1C020300002240682E
:1048FC001146FFF793BF002240681146FFF79EBF99
:10490C0040680022FFF792BF4068002281F001014D
:10491C00FFF77CBF002340681A461946FFF76EBFAD
:10492C00002340681A461946FFF760BF0022406812
:10493C001146FFF753BF002240681146FFF73EBFF8
:10494C00406800220221FFF741BF002340681A464D
:10495C00FFF72CBF024B03225A60024A1A607047C1
:10496C00D4E6032018550B00054B02221A60054BA8
:10497C00054A9A600020C3E90000FFF7F3BE00BFB0
:10498C00E8E60320DCE603200000FFFF10B5044638
:10499C000068FFF78BFF204610BD10B50446006879
:1049AC0008B1FFF783FF0023C4E90133236010BD76
:1049BC0038B504460D4600680131FFF77FFF10B192
:1049CC00C4E90005012038BD10B50368044623B1C5
:1049DC0043688B4201D3012010BD2046FFF7E8FF4E
:1049EC000028F9D0A368002BF5D122681370F2E7E8
:1049FC0037B50D46114601920446FFF7E5FF019AC3
:104A0C0028B92046FFF7C9FF204603B030BDA2608D
:104A1C002946206800F046FC2268A3680021D15486
:104A2C00F2E7002313B5C0E9003304468360037337
:104A3C0041B108460191FFF7A7FC019902462046B7
:104A4C00FFF7D6FF204602B010BD884210B50446D1
:104A5C0005D00B682BB18A681946FFF7C9FF2046B1
:104A6C0010BDFFF79AFFFAE710B500230446C0E922
:104A7C00003383600373FFF7E8FF204610BDF8B5E1
:104A8C00044616460F4609B90020F8BD8AB1856860
:104A9C0015442946FFF798FF0028F5D0A368206835
:104AAC0032461844394600F0FDFB236800225A5563
:104ABC00A5600120E9E707B50023ADF80430012219
:104ACC008DF8041001A9FFF7DAFF03B05DF804FBC1
:104ADC00024800230360FFF7BDBD00BFECE60320D6
:104AEC00F8B506460D468F180024BD420CD033682D
:104AFC0015F8011B9B6830469847031E01DB1C44CC
:104B0C00F3E7002C08BF1C462046F8BD03689B68E1
:104B1C00184738B50D210546FFF7F8FF0A21044662
:104B2C002846FFF7F3FF204438BD38B50546FFF79C
:104B3C005FFD04462846FFF7ECFF204438BD30B536
:104B4C008BB00023012A8DF8243098BF0A2209ACBF
:104B5C000D46B1FBF2F101FB125303F0FF03092BDD
:104B6C0094BF30333733DBB2AA4204F8013DEFD99E
:104B7C002146FFF73DFD0BB030BD10B50446FFF7E5
:104B8C0061FDE060236820465B699847002808DADD
:104B9C00FFF758FDE368C01AA3689842F2D34FF0B0
:104BAC00FF3010BD2DE9F04107460C468E180D461E
:104BBC00B542A5EB040807D03846FFF7DEFF031E0D
:104BCC0002DB05F8013BF3E74046BDE8F08100004D
:104BDC00014B024A1A607047F0E6032054550B0053
:104BEC00024B1A68024B1A60704700BF60E6032044
:104BFC00F4E603200021FFF7BDBD0000014B0022AD
:104C0C009A607047F8E60320014B1860704700BFAC
:104C1C0064E6032008B50B4B43B100F063F903685D
:104C2C001B699847002801DDAFF30080064B43B1A8
:104C3C0000F00CFB03681B699847002801DDAFF3FB
:104C4C00008008BD000000000000000008B5FFF760
:104C5C00E1FFFFF7F7FC014B186008BD64E7032088
:104C6C000548064A064908B5121A00F01BFB054B0D
:104C7C00054A1A6008BD00BF00F4032004F40320A9
:104C8C00D4570B0000F403201E1C279A07B50023F1
:104C9C0000931A466FF07701FFF77EFD03B05DF8C5
:104CAC0004FB000007B543880A2B08D0502B0BD10E
:104CBC00094B1B684BB103B05DF804EB1847FFF7C9
:104CCC00E5FF03B05DF804FB002300931A466FF078
:104CDC007701FFF761FDF4E70CE7032010B51248EC
:104CEC000021FFF7FBFD114B1A68114B9A42114B37
:104CFC000CBF012200221A7001D0FFF7B1FFFFF7A1
:104D0C0099FC044600F0E4FA0B4B13B12046AFF3C8
:104D1C00008000210848FFF7B9FDBDE810400748A6
:104D2C000021FFF72FBD00BF154C0B0000F4032032
:104D3C001E1C279A08E7032000000000B14C0B0052
:104D4C00704710B518210446FFF763FB204610BDD1
:104D5C00F0B5037D062B8DB00E4600F104074FF025
:104D6C00000412D000F1080515F8011D0A22304686
:104D7C00FFF7E5FEAF42044419D0002CF4D02E21ED
:104D8C003046FFF7C3FE0444EEE72F236A4639464C
:104D9C000A208DF80040FFF765FC6846FFF7F4FA2F
:104DAC0033680246DB68694630469847044620461D
:104DBC000DB0F0BD10B5054B0446112240F8043B74
:104DCC00002100F07DFA204610BD00BF7C550B0081
:104DDC000346074A10B543F8042B01F1100251F8B1
:104DEC00044B43F8044B9142F9D10A781A7010BD68
:104DFC007C550B0010B59DF8084044EA032343EAA8
:104E0C00024242EA016104234160037510BD0000B7
:104E1C0007B5064B0360CB7800938B784A780978FA
:104E2C00FFF7E8FF03B05DF804FB00BF7C550B00F7
:104E3C00417470477047704708B50021007CFFF73C
:104E4C0071FC40EAE07008BD08B50121007CFFF759
:104E5C0069FC40EAE07008BD08B5007CFFF75AFC1D
:104E6C0020EAE07008BD08B5007CFFF74BFC20EA97
:104E7C00E07008BD13B50446007C0191FFF74AFCB5
:104E8C000028019901DC607C20B1207CFFF752FCEA
:104E9C0020EAE07002B010BD007CFFF753BC10B5E7
:104EAC0014210446FFF7B5FA204610BD10B54FF497
:104EBC007A73044608460021C4E90113044B2360AD
:104ECC000123207463741146FFF714FC204610BDB7
:104EDC0090550B0010B514220446002100F0F0F997
:104EEC00204610BD10B50F4C88B003A8FFF7F2FF99
:104EFC002178BFF35B8F11F001010FD12046019196
:104F0C00FFF789FA019948B103AA0748FFF7CEFFCA
:104F1C002046FFF785FA054800F0BEF9024808B0B4
:104F2C0010BD00BF10E7032014E70320414E0B0017
:104F3C0070474174704708B5007CFFF7C3FB20EA4B
:104F4C00E07008BD08B5007CFFF79CFB20EAE07020
:104F5C0008BD08B5007CFFF7A5FB40EAE07008BD72
:104F6C0008B5007CFFF796FB40EAE07008BD007CBA
:104F7C00FFF7A0BB37B5457C04462DB1207C03B0B0
:104F8C00BDE83040FFF776BB007C0191FFF79AFB40
:104F9C0000280199F2DC284603B030BD10B514216D
:104FAC000446FFF736FA204610BD000010B54FF44A
:104FBC007A730446084611460022C4E90123044BC7
:104FCC002360012320746374FFF78CFB204610BD13
:104FDC00C4550B00007C0023FFF77CBB0022FFF7BD
:104FEC00F9BF0000054BFF210022C3E9001201208C
:104FFC006421C3E902011A61704700BF28E703204E
:10500C00002240681146FFF7E9BB002240681146B8
:10501C00FFF704BC002240681146FFF70FBC406844
:10502C000022FFF703BC4068002281F00101FFF76A
:10503C00EDBB002340681A461946FFF7DFBB00237F
:10504C0040681A461946FFF7D1BB0022406811464A
:10505C00FFF7B4BB406800220221FFF7B7BB002367
:10506C0040681A46FFF7A2BB024B04225A60024A60
:10507C001A6070473CE70320F8550B00002340688A
:10508C001A46FFF793BB406800220221FFF79EBB34
:10509C00002240681146FFF791BB00224068114680
:1050AC00FFF79CBB002340681A461946FFF79EBBCE
:1050BC00002340681A461946FFF7A0BB4068002140
:1050CC00FFF7C4BB40680021FFF7C8BB4068002253
:1050DC0081F00101FFF79ABB40680022FFF7A6BBE5
:1050EC00002240681146FFF7A9BB00224068114618
:1050FC00FFF794BB40680021FFF7C0BB2DE9F043DC
:10510C0095B014460D460746FFF754FE00211C22AD
:10511C000DA8009100F0D4F840230C9320466B4668
:10512C000CAA0021FFF77EFA044600284BD1024658
:10513C0001216868FFF752FB02218046224668680D
:10514C00FFF74CFB009E81462146002E3BD00029E8
:10515C0039D17368022B03D00A2B11D0F669F4E70E
:10516C00B8F1000FFAD0716906A8043107ADFFF74A
:10517C004FFE0FCD3C1D0FC42B6823704146EDE74D
:10518C00B9F1000FEAD07469102201A800F098F868
:10519C0006238DF8143001AD04F108031834186897
:1051AC0059682A4603C20833A3421546F7D101A910
:1051BC0006A807ADFFF70CFE0FCD3C1D0FC42B68E6
:1051CC0023704946CAE70098FFF724FA384615B011
:1051DC00BDE8F083033802289ABF024B53F8200035
:1051EC000148704734560B0044E7032008B50022F1
:1051FC004068FFF73BFBBDE80840FFF7EBBF000042
:10520C00024B034A1A6000225A60704744E703209D
:10521C0048560B007047000038B5044614252A4642
:10522C00002100F04DF825804025074925812846AE
:10523C00258200F02FF804496060284600F02AF817
:10524C00E060204638BD00BF84560B0030B50E4DD3
:10525C002978BFF35B8F11F0010487B011D1284678
:10526C00FFF7D9F868B101A8FFF7D6FF01AA2146CC
:10527C000648FFF79BFE2846FFF7D2F8044800F0DB
:10528C000BF8024807B030BD4CE7032050E7032071
:10529C0021520B00FFF7BBB8002301461A461846F3
:1052AC0000F044B80A44914200F1FF3300D170473A
:1052BC0010B511F8014B03F8014F9142F9D110BD13
:1052CC0002440346934200D1704703F8011BF9E7EF
:1052DC0038B5104B1D68AB6B0446B3B91820FFF7FB
:1052EC00DDFA0246A86320B90B4B0C484221FFF7AC
:1052FC00EDFA0B490B4BC0E900130B4B83600B23EE
:10530C00838100210120C2E90401AB6B00221C61E6
:10531C005A6138BD64E6032085560B009C560B0081
:10532C000E33CDAB34126DE6ECDE05002DE9F843FF
:10533C00DFF8B8800646D8F800001F460D469146A7
:10534C0000F056F8254B1C6834B9254C1C60254BD5
:10535C0013B11B68C4F8883063681F2B07DDD8F8BD
:10536C00000000F047F84FF0FF30BDE8F8834EB373
:10537C00D4F8880088B91C4B23B9D8F8000000F089
:10538C0038F8F0E74FF48470FFF788FA0028F4D06F
:10539C000023C0E94033C4F88800636840F82390C8
:1053AC0001229A4000EB8301D0F800311343C0F87E
:1053BC000031022EC1F8807002BFD0F804311343C3
:1053CC00C0F804316368D8F800005A1C02336260DC
:1053DC0044F8235000F00EF80020C6E7F4E7032051
:1053EC0068E7032000000000A9480B00C8E6032072
:1053FC007047704770470000A5430B00E1430B005A
:10540C0009440B000D440B00000000005261696E52
:10541C0066616C6C2073656E736F7220696E697453
:10542C00206661696C65642028554152542921001D
:10543C005261696E66616C6C2073656E736F72205D
:10544C0028554152542920696E6974207375636321
:10545C0065737321004669726D776172652076659C
:10546C007273696F6E3A2025730A00576F726B69FD
:10547C006E672074696D653A20252E326620680AA5
:10548C00005261696E66616C6C20746F74616C3A69
:10549C0020252E3266206D6D0A00526177206275D0
:1054AC00636B657420636F756E74733A20256C752D
:1054BC000A002D2D2D2D2D2D2D2D2D2D2D2D2D2D60
:1054CC002D2D2D2D2D2D2D2D2D2D2D2D2D2D2D002D
:1054DC0041542B5645523F00556E6B6E6F776E00E4
:1054EC00000000000000000065450B0089450B0022
:1054FC0069450B0075450B0081450B0085450B007C
:10550C0069450B00000000000000000057490B002B
:10551C004D490B0043490B0039490B002D490B0039
:10552C0021490B00C9500B00D1500B0015490B0041
:10553C000D490B0003490B00F9480B00F9510B0006
:10554C0001510B0009510B006170700025592D257C
:10555C006D2D25645425483A254D3A2553257A005E
:10556C0061736374696D6500000000000000000049
:10557C005D4D0B004D4D0B004F4D0B00000000001E
:10558C0000000000434E0B00AB4E0B00814E0B0095
:10559C00ED4A0B00734E0B00454E0B00554E0B00A5
:1055AC00A54E0B00B14B0B00654E0B003D4E0B0096
:1055BC0000000000000000003D4F0B00A94F0B0045
:1055CC00814F0B00ED4A0B00514F0B006D4F0B0040
:1055DC005F4F0B007B4F0B00B14B0B003F4F0B0091
:1055EC00434F0B0000000000000000006B500B004C
:1055FC0061500B0057500B000D500B004B500B0023
:10560C003F500B00C9500B00D1500B0033500B0016
:10561C002B500B0021500B0017500B00F9510B00B5
:10562C0001510B0009510B00D4E603203CE7032089
:10563C0044E70320000000000000000089500B002C
:10564C0093500B009D500B00A7500B00B1500B005A
:10565C00BD500B00C9500B00D1500B00D9500B00A2
:10566C00E5500B00ED500B00F7500B00F9510B00FF
:10567C0001510B0009510B00005245454E54206D51
:10568C00616C6C6F6320737563636565646564003E
:10569C002F6D6E742F776F726B73706163652F77DC
:1056AC006F726B73706163652F4743432D31302DDF
:1056BC00706970656C696E652F6A656E6B696E7367
:1056CC002D4743432D31302D706970656C696E65C3
:1056DC002D34385F32303230313132345F31363044
:1056EC00363138303634312F7372632F6E65776CE8
:1056FC0069622F6E65776C69622F6C6962632F73B8
:10570C0074646C69622F72616E642E630000000019
:10571C0065440B0061490B0075490B00DD4A0B0019
:10572C00DD4B0B00ED4B0B00094C0B00F14F0B004C
:08573C0075500B000D520B002B
:10574400040000001400000003000000474E550050
:10575400FD65751D2CA4DCF6DBD6BDAED800C8777C
:0457640088D3F9F6F7
:105768006C550B0068E603200000000000000000F4
:105778000000000000000000000000000000000021
:105788000000000000000000000000000000000011
:105798000000000000000000000000000000000001
:1057A80000000000000000000000000000000000F1
:1057B80000000000000000000000000000000000E1
:0C57C8000000000000000000F8E70320D3
:0457D40000000000D1
:1057DE0000000102030405060708090A0B0C0D0E52
:1057EE000F101112131415161718191A1B1C1D1E43
:0457FE001F20280040
:04580200785634128E
:04000003B000401CED
:00000001FF
