:02000002B0004C
:1040000000400B0022590B00000006000D000502C5
:084010000401A01800000000EB
:044018006C550B00D8
:10401C0081F0004102E000BF83F0004330B54FEA6D
:10402C0041044FEA430594EA050F08BF90EA020FDA
:10403C001FBF54EA000C55EA020C7FEA645C7FEA6D
:10404C00655C00F0E2804FEA5454D4EB5555B8BF90
:10405C006D420CDD2C4480EA020281EA030382EA01
:10406C00000083EA010180EA020281EA0303362D93
:10407C0088BF30BD11F0004F4FEA01314FF4801C66
:10408C004CEA113102D0404261EB410113F0004F78
:10409C004FEA03334CEA133302D0524263EB43032F
:1040AC0094EA050F00F0A780A4F10104D5F1200ECD
:1040BC000DDB02FA0EFC22FA05F2801841F1000128
:1040CC0003FA0EF2801843FA05F359410EE0A5F1FC
:1040DC0020050EF1200E012A03FA0EFC28BF4CF02D
:1040EC00020C43FA05F3C01851EBE37101F00045E3
:1040FC0007D54FF0000EDCF1000C7EEB00006EEBF0
:10410C000101B1F5801F1BD3B1F5001F0CD3490879
:10411C005FEA30004FEA3C0C04F101044FEA4452D0
:10412C0012F5800F80F09A80BCF1004F08BF5FEA57
:10413C00500C50F1000041EB045141EA050130BD37
:10414C005FEA4C0C404141EB0101013C28BFB1F549
:10415C00801FE9D291F0000F04BF01460020B1FA94
:10416C0081F308BF2033A3F10B03B3F120020CDA67
:10417C000C3208DD02F1140CC2F10C0201FA0CF045
:10418C0021FA02F10CE002F11402D8BFC2F1200CAA
:10419C0001FA02F120FA0CFCDCBF41EA0C01904060
:1041AC00E41AA2BF01EB0451294330BD6FEA0404A9
:1041BC001F3C1CDA0C340EDC04F11404C4F1200294
:1041CC0020FA04F001FA02F340EA030021FA04F3A6
:1041DC0045EA030130BDC4F10C04C4F1200220FAFD
:1041EC0002F001FA04F340EA0300294630BD21FA3B
:1041FC0004F0294630BD94F0000F83F4801306BF01
:10420C0081F480110134013D4EE77FEA645C18BFF4
:10421C007FEA655C29D094EA050F08BF90EA020F8B
:10422C0005D054EA000C04BF1946104630BD91EA83
:10423C00030F1EBF0021002030BD5FEA545C05D186
:10424C004000494128BF41F0004130BD14F58004C5
:10425C003CBF01F5801130BD01F0004545F0FE4139
:10426C0041F470014FF0000030BD7FEA645C1ABF6E
:10427C00194610467FEA655C1CBF0B46024650EAA5
:10428C00013406BF52EA033591EA030F41F40021D1
:10429C0030BD00BF90F0000F04BF0021704730B557
:1042AC004FF4806404F132044FF000054FF000012C
:1042BC0050E700BF90F0000F04BF0021704730B5ED
:1042CC004FF4806404F1320410F0004548BF4042C2
:1042DC004FF000013EE700BF42004FEAE2014FEA17
:1042EC0031014FEA02701FBF12F07F4393F07F4FF2
:1042FC0081F06051704732F07F4208BF704793F0F5
:10430C007F4F04BF41F40021704730B54FF4607407
:10431C0001F0004521F000411CE700BF50EA01020A
:10432C0008BF704730B54FF000050AE050EA0102B3
:10433C0008BF704730B511F0004502D5404261EB23
:10434C0041014FF4806404F132045FEA915C3FF464
:10435C00D8AE4FF003025FEADC0C18BF03325FEA01
:10436C00DC0C18BF033202EBDC02C2F1200300FAB2
:10437C0003FC20FA02F001FA03FE40EA0E0021FAD7
:10438C0002F11444BDE600BF034613F8012B002ACA
:10439C00FBD1181A0138704709480A49884208B5F8
:1043AC0005D0094A824202D0121A01F095F807484A
:1043BC00074A0021121A01F09DF8014808BD00BF00
:1043CC0094DE03208C580B00FCDE0320FCDE032063
:1043DC00FCDF032070B5074E074C00F05FFCA41BFC
:1043EC00A4080025AC4200D170BD56F8043B984798
:1043FC000135F7E73C580B0068580B0000F034B857
:10440C0008B500F059F8BDE8084000F0FFBB00F01B
:10441C0029BA00F02FBA704708B500F0B7F8084A6F
:10442C001368C31AB3F57A7F09D3064B9FED067A4E
:10443C00D3ED007A77EE877AC3ED007A106008BD71
:10444C0000DF032004DF0320840D8F3E0EB403B580
:10445C0003AB002153F8042B019300F042FB02B094
:10446C005DF804EB03B0704707B500F01FFD4FF487
:10447C00165100F00FFD0121032000F07BFF0121FC
:10448C00032000F088FF0321022000F073FF0023BB
:10449C000749009301224FF0FF33022000F02EFD5C
:1044AC0000F004FD034903B05DF804EB00F0F1BA31
:1044BC0025440B0080550B0010B50D4C00F066F830
:1044CC002368C01A42F20F7398420FD900F05EF8BD
:1044DC00206000F0EBFC074B04461868FFF7FCFE6D
:1044EC0002460B4620460449FFF7B0FF10BD00BF43
:1044FC00FCDE032004DF03209F550B0008B5024BA4
:10450C001B689B68019308BD6802030008B5024B49
:10451C001B685B69019308BD6802030008B5024B78
:10452C001B689B68019308BD2C02030008B5024B65
:10453C001B68DB68019308BD2C02030008B5024B15
:10454C001B681B69019308BD2C02030008B5024BC4
:10455C001B689B69019308BD2C02030008B5024B34
:10456C001B68DB69019308BD2C02030008B5024BE4
:10457C001B689B69019308BD6C02030008B5024BD4
:10458C001B685B68019308BD1802030008B5024B59
:10459C001B685B69019308BD1802030008B5024B48
:1045AC001B685B6C019308BD4802030008B5024B05
:1045BC001B685B69019308BD6402030008B5024BDC
:1045CC001B68DB68019308BD3C02030008B5024B75
:1045DC001B681B69019308BD3C02030008B5024B24
:1045EC001B685B69019308BD3C02030008B5024BD4
:1045FC001B689B69019308BD3C02030008B5024B84
:10460C001B68DB69019308BD3C02030008B5024B33
:10461C001B681B6A019308BD3C02030008B5024BE2
:10462C001B689B6A019308BD3C02030008B5024B52
:10463C001B681B6C019308BD3C02030008B5024BC0
:10464C001B681B6A019308BD2802030008B5024BC6
:10465C001B685B6A019308BD2802030008B5024B76
:10466C001B689B6A019308BD2802030008B5024B26
:10467C001B68DB6A019308BD2802030008B5024BD6
:10468C001B681B6B019308BD2802030008B5024B85
:10469C001B685B6B019308BD2802030008B5024B35
:1046AC001B681B6C019308BD2802030008B5024B64
:1046BC001B68DB69019308BD3002030008B5024B8F
:1046CC001B681B6A019308BD3002030008B5024B3E
:1046DC001B681B68019308BD4C02030008B5024B14
:1046EC001B685B68019308BD4C02030008B5024BC4
:1046FC001B681B69019308BD4C02030008B5024BF3
:10470C001B685B69019308BD4C02030008B5024BA2
:10471C001B689B69019308BD4C02030008B5024B52
:10472C001B68DB69019308BD4C02030008B5024B02
:10473C001B681B6A019308BD4C02030008B5024BB1
:10474C001B685B68019308BD2002030008B5034B8E
:10475C001B68D3F88830019308BD000020020300C9
:10476C0008B5034B1B68D3F89430019308BD0000C7
:10477C002002030008B5024B1B685B68019308BD5F
:10478C004002030008B5024B1B689B68019308BDEF
:10479C004002030008B5024B1B68DB68019308BD9F
:1047AC004002030008B5024B1B681B69019308BD4E
:1047BC004002030008B5024B1B685B69019308BDFE
:1047CC004002030008B5024B1B689B69019308BDAE
:1047DC004002030008B5024B1B68DB69019308BD5E
:1047EC004002030008B5024B1B681B6A019308BD0D
:1047FC004002030008B5024B1B681B6B019308BDFC
:10480C004002030008B5024B1B685B6B019308BDAB
:10481C004002030008B5024B1B681B6C019308BDDA
:10482C004002030008B5024B1B685B6C019308BD8A
:10483C004002030008B5024B1B685B6D019308BD79
:10484C004002030008B5024B1B689B6D019308BD29
:10485C004002030008B5024B1B68DB6B019308BDDB
:10486C004402030008B5024B1B681B68019308BD8A
:10487C001C02030008B5024B1B685B68019308BD62
:10488C001C02030008B5024B1B685B6A019308BD50
:10489C001C02030008B5024B1B681B6C019308BD7E
:1048AC001C02030008B5024B1B685B6C019308BD2E
:1048BC001C02030008B5024B1B689B6D019308BDDD
:1048CC001C02030008B5024B1B68DB6D019308BD8D
:1048DC001C020300002240681146FFF783BF002230
:1048EC0040681146FFF78EBF40680022FFF782BF79
:1048FC004068002281F00101FFF76CBF0023406883
:10490C001A461946FFF75EBF002340681A4619463F
:10491C00FFF750BF002240681146FFF743BF00224B
:10492C0040681146FFF72EBF406800220221FFF7B6
:10493C0031BF002340681A46FFF71CBF024B03220D
:10494C005A60024A1A60704708DF0320C4550B00F6
:10495C00024B0022C3E900229A60704710DF03204B
:10496C0010B5044608462170FFF7A0FE00236360D3
:10497C00204610BD002240681146FFF733BF0022CD
:10498C0040681146FFF73EBF40680022FFF732BF78
:10499C004068002281F00101FFF71CBF0023406832
:1049AC001A461946FFF70EBF002340681A461946EF
:1049BC00FFF700BF002240681146FFF7F3BE00224C
:1049CC0040681146FFF7DEBE406800220221FFF767
:1049DC00E1BE002340681A46FFF7CCBE024B06220C
:1049EC005A60024A1A6070471CDF032008560B00FD
:1049FC00054B02221A60054B054A9A600020C3E958
:104A0C000000FFF79BBE00BF30DF032024DF032034
:104A1C000000FFFF024800230360FFF7BFBD00BF8B
:104A2C0034DF0320F8B506460D468F180024BD422E
:104A3C000CD0336815F8011B9B6830469847031E51
:104A4C0001DB1C44F3E7002C08BF1C462046F8BDD4
:104A5C0013B50446084659B10191FFF795FC23683C
:104A6C000199DB680246204602B0BDE810401847A9
:104A7C0002B010BD03689B68184738B50D21054678
:104A8C00FFF7F8FF0A2104462846FFF7F3FF2044FE
:104A9C0038BD38B50546FFF7DBFF04462846FFF75F
:104AAC00ECFF204438BD30B58BB00023012A8DF8C3
:104ABC00243098BF0A2209AC0D46B1FBF2F101FB80
:104ACC00125303F0FF03092B94BF30333733DBB29F
:104ADC00AA4204F8013DEFD92146FFF7B9FF0BB00C
:104AEC0030BD2DE9F04186B000AF05460E46381DAD
:104AFC00142114463B60FFF7C5FE13280ED8391D50
:104B0C002846FFF7A5FF04461EB12846FFF7B5FF60
:104B1C00044420461837BD46BDE8F08100F1080377
:104B2C0023F00703E846ADEB030D2246411C3B681E
:104B3C006846FFF7A7FE69462846FFF789FF04463B
:104B4C00C546E1E710B50446FFF720FDE060236899
:104B5C0020465B699847002808DAFFF717FDE368E1
:104B6C00C01AA3689842F2D34FF0FF3010BD2DE964
:104B7C00F04107460C468E180D46B542A5EB0408CD
:104B8C0007D03846FFF7DEFF031E02DB05F8013BBA
:104B9C00F3E74046BDE8F081014B024A1A607047CA
:104BAC0038DF032044560B00024B1A68024B1A6084
:104BBC00704700BF94DE03203CDF0320014B002232
:104BCC009A60704740DF0320014B1860704700BFAC
:104BDC0098DE032008B50B4B43B100F067F903686E
:104BEC001B699847002801DDAFF30080064B43B1E9
:104BFC0000F006FC03681B699847002801DDAFF341
:104C0C00008008BD000000000000000008B5FFF7A0
:104C1C00E1FFFFF7BBFC014B186008BDE0DF032090
:104C2C000548064A064908B5121A00F055FC054B12
:104C3C00054A1A6008BD00BF00F4032004F40320E9
:104C4C00F4580B0000F403201E1C279A07B5002310
:104C5C0000931A466FF07701FFF782FD03B05DF801
:104C6C0004FB000007B543880A2B08D0502B0BD14E
:104C7C00094B1B684BB103B05DF804EB1847FFF709
:104C8C00E5FF03B05DF804FB002300931A466FF0B8
:104C9C007701FFF765FDF4E754DF032010B51248E8
:104CAC000021FFF7FFFD114B1A68114B9A42114B73
:104CBC000CBF012200221A7001D0FFF7B1FFFFF7E1
:104CCC005DFC044600F01EFC0B4B13B12046AFF309
:104CDC00008000210848FFF7BDFDBDE810400748E3
:104CEC000021FFF733BD00BFD54B0B0000F40320B0
:104CFC001E1C279A50DF032000000000714C0B0093
:104D0C00704710B518210446FFF783FB204610BDF1
:104D1C00F0B5037D062B8DB00E4600F104074FF065
:104D2C00000412D000F1080515F8011D0A223046C6
:104D3C00FFF7B9FEAF42044419D0002CF4D02E2159
:104D4C003046FFF797FE0444EEE72F236A463946B8
:104D5C000A208DF80040FFF729FC6846FFF714FB8A
:104D6C0033680246DB68694630469847044620465D
:104D7C000DB0F0BD10B5054B0446112240F8043BB4
:104D8C00002100F0B7FB204610BD00BF6C560B0095
:104D9C000346074A10B543F8042B01F1100251F8F1
:104DAC00044B43F8044B9142F9D10A781A7010BDA8
:104DBC006C560B0010B59DF8084044EA032343EAF7
:104DCC00024242EA016104234160037510BD0000F8
:104DDC0007B5064B0360CB7800938B784A7809783B
:104DEC00FFF7E8FF03B05DF804FB00BF6C560B0047
:104DFC00417470477047704708B50021007CFFF77D
:104E0C0085FC40EAE07008BD08B50121007CFFF785
:104E1C007DFC40EAE07008BD08B5007CFFF76EFC35
:104E2C0020EAE07008BD08B5007CFFF75FFC20EAC3
:104E3C00E07008BD13B50446007C0191FFF75EFCE1
:104E4C000028019901DC607C20B1207CFFF766FC16
:104E5C0020EAE07002B010BD007CFFF767BC10B513
:104E6C0014210446FFF7D5FA204610BD10B54FF4B7
:104E7C007A73044608460021C4E90113044B2360ED
:104E8C000123207463741146FFF720FC204610BDEB
:104E9C0080560B00007C0022FFF720BC10B51422BA
:104EAC000446002100F026FB204610BD10B50F4C27
:104EBC0088B003A8FFF7F2FF2178BFF35B8F11F0E6
:104ECC0001010FD120460191FFF7F4FC019948B183
:104EDC0003AA0748FFF7CAFF2046FFF7F3FC054873
:104EEC0000F0F4FA024808B010BD00BF58DF0320F0
:104EFC005CDF0320014E0B00004700002DE9FF4151
:104F0C0000241D460F4690460646FFF727FBA54298
:104F1C004FF00403ADF80D408DF80C308DF80F40B8
:104F2C00A2BF9DF828308DF80E3003AC07490094D1
:104F3C0043463A463046A8BF8DF80D50FFF706FBA6
:104F4C00B0FA80F0400904B0BDE8F081054F0B00C9
:104F5C00002240681146FFF725BC0022406811462C
:104F6C00FFF740BC002240681146FFF74BBC40687D
:104F7C000022FFF73FBC4068002281F00101FFF7DF
:104F8C0029BC002340681A461946FFF71BBC0023B6
:104F9C0040681A461946FFF70DBC002240681146BE
:104FAC00FFF7F0BB406800220221FFF7F3BB0023A0
:104FBC0040681A46FFF7DEBB084B10B52824224682
:104FCC001846002100F096FA054B04804FF0FF3292
:104FDC00426004225A60034A1A6010BD78DF032035
:104FEC0070DF0320B4560B0070474174704708B54E
:104FFC00007CFFF713FB20EAE07008BD08B5007CCD
:10500C00FFF7E4FA20EAE07008BD08B5007CFFF772
:10501C00EDFA40EAE07008BD08B5007CFFF7DEFA57
:10502C0040EAE07008BD007CFFF7E8BA37B5457C74
:10503C0004462DB1207C03B0BDE83040FFF7BEBA6A
:10504C00007C0191FFF7EAFA00280199F2DC28466E
:10505C0003B030BD10B514210446FFF7DAF9204631
:10506C0010BD000010B54FF47A7304460846114683
:10507C000022C4E90123044B2360012320746374D0
:10508C00FFF7D4FA204610BDF8560B007047F8B560
:10509C00064615460C468F18BC4206D0336814F8E9
:1050AC00011B9B6830469847F6E72846F8BD007C04
:1050BC000022FFF7C3BA007C0021FFF7C7BA007CBF
:1050CC000021FFF7CBBA007C0021FFF7CFBA007CA0
:1050DC000021FFF7D3BA10B514210446FFF799F954
:1050EC00204610BD38B5044615464FF47A7300229D
:1050FC00C4E90123094B2174084623602946FFF7B4
:10510C00CDFABF3008D16B69DB0705D56868FFF7AE
:10511C00B1FBE868FFF7AEFB204638BD2C570B00FF
:10512C00054BFF210022C3E9001201206421C3E9D1
:10513C0002011A61704700BFA0DF03200023406802
:10514C001A46FFF717BB406800220221FFF722BB6B
:10515C00002240681146FFF715BB0022406811463B
:10516C00FFF720BB002340681A461946FFF722BB05
:10517C00002340681A461946FFF724BB40680021FB
:10518C00FFF748BB40680021FFF74CBB406800228A
:10519C0081F00101FFF71EBB40680022FFF72ABB1C
:1051AC00002240681146FFF72DBB002240681146D3
:1051BC00FFF718BB40680021FFF744BB2DE9F04313
:1051CC00002699B00D46144698460746FFF7D2FDC7
:1051DC001C22314611A8039600F08CF9B8F1000F8F
:1051EC002CD1402368681093049618B104A9C0B25E
:1051FC00FFF7BCF9049B0093204603AB10AA0021D7
:10520C00FFF784F9044600284DD102460121686855
:10521C00FFF7C8FA0221804622466868FFF7C2FAF7
:10522C00039E81462146002E3DD000293BD1736858
:10523C00022B05D00A2B13D0F669F4E71D4BD1E7EE
:10524C00B8F1000FF8D071690AA804310BADFFF763
:10525C00BFFD0FCD3C1D0FC42B6823704146EBE7FF
:10526C00B9F1000FE8D07469102205A800F042F9DA
:10527C0006238DF8243005AD04F1080318341868A2
:10528C0059682A4603C20833A3421546F7D105A92B
:10529C000AA80BADFFF77CFD0FCD3C1D0FC42B688E
:1052AC0023704946C8E70398FFF728F9384619B028
:1052BC00BDE8F08340000040033803289ABF024B3E
:1052CC0053F820000148704750570B00B4DF0320FF
:1052DC0008B500224068FFF7ADFABDE80840FFF7BB
:1052EC00EBBF0000024B034A1A6000225A60704761
:1052FC00B4DF032068570B00232813B502D9002014
:10530C0002B010BDA0F10B03022B1AD8174C217858
:10531C00BFF35B8F11F001010BD120460191FFF718
:10532C00C9FA019928B11248FFF71AFB2046FFF77A
:10533C00C9FA0F4B1878FFF7C1F90028DFD101200B
:10534C00DEE7012809D800F09BF80021007CFFF76C
:10535C009DF980F00100C0B2D2E709380128EED8DF
:10536C0000F04EF8007CFFF751F9F2E7BCDF0320A8
:10537C00C0DF0320232838B504460D460AD8FF2980
:10538C0008D0FFF7B9FF28B129462046BDE83840C0
:10539C00FFF7C4B838BD38B504460D46FFF7C6F85C
:1053AC00FF2810D0062804D84D2323FA00F0C30799
:1053BC0009D42046FFF7A0FF28B129462046BDE8B6
:1053CC003840FFF7BBB838BD7047000038B504460D
:1053DC0014252A46002100F08DF825804025074928
:1053EC0025812846258200F06FF804496060284624
:1053FC0000F06AF8E060204638BD00BFA4570B00EF
:10540C0030B50E4D2978BFF35B8F11F0010487B0D6
:10541C0011D12846FFF74EFA68B101A8FFF7D6FF65
:10542C0001AA21460648FFF71DFE2846FFF74AFA57
:10543C00044800F04BF8024807B030BDC8DF032029
:10544C00CCDF0320D5530B007047000038B50A4B56
:10545C0003600123044643610849202000F034F81E
:10546C00202560600549A560284600F02DF8C4E9A8
:10547C000305204638BD00BF18000100A4570B00DF
:10548C0030B50E4D2978BFF35B8F11F0010487B056
:10549C0011D12846FFF70EFA68B16846FFF7D6FF20
:1054AC006A4621460648FFF71DFE2846FFF70AFA12
:1054BC00044800F00BF8024807B030BDE4DF0320CD
:1054CC00E8DF032055540B00FEF7A1BF0023014673
:1054DC001A461846FEF79FBF0A44914200F1FF336B
:1054EC0000D1704710B511F8014B03F8014F9142F0
:1054FC00F9D110BD02440346934200D1704703F822
:10550C00011BF9E738B5104B1D68AB6B0446B3B9FA
:10551C001820FFF7A7F90246A86320B90B4B0C48DB
:10552C004221FFF7B7F90B490B4BC0E900130B4BAA
:10553C0083600B23838100210120C2E90401AB6B42
:10554C0000221C615A6138BD98DE0320A5570B0060
:10555C00BC570B000E33CDAB34126DE6ECDE050000
:10556C00A5430B00E1430B0009440B000D440B0059
:10557C00000000005261696E66616C6C2073656E90
:10558C00736F7220696E697469616C697A65642ED7
:10559C002E2E005261696E66616C6C20736F2066F2
:1055AC0061723A20252E3266206D6D0A00000000D3
:1055BC0000000000000000003F490B0035490B00C3
:1055CC002B490B0021490B0015490B0009490B0015
:1055DC0089510B0091510B00FD480B00F5480B0055
:1055EC00EB480B00E1480B00DD520B00C1510B00E6
:1055FC00C9510B000000000000000000DF490B0047
:10560C00D5490B00CB490B00C1490B00B5490B0028
:10561C00A9490B0089510B0091510B009D490B00BE
:10562C0095490B008B490B0081490B00DD520B0097
:10563C00C1510B00C9510B006170700025592D250B
:10564C006D2D25645425483A254D3A2553257A006D
:10565C0061736374696D6500000000000000000058
:10566C001D4D0B000D4D0B000F4D0B0000000000ED
:10567C0000000000034E0B006B4E0B00414E0B0064
:10568C00314A0B00334E0B00054E0B00154E0B0030
:10569C00654E0B007B4B0B00254E0B00FD4D0B009C
:1056AC000000000000000000BB4F0B00B14F0B00CE
:1056BC00A74F0B005D4F0B009B4F0B008F4F0B0048
:1056CC0089510B0091510B00834F0B007B4F0B004A
:1056DC00714F0B00674F0B00DD520B00C1510B00DB
:1056EC00C9510B000000000000000000F54F0B003A
:1056FC0061500B0039500B00314A0B0009500B0064
:10570C0025500B0017500B0033500B007B4B0B003C
:10571C00F74F0B00FB4F0B000000000000000000D7
:10572C0099500B00E3500B00BB500B009B500B002F
:10573C00C3500B00CB500B00D3500B00DB500B00B5
:10574C007B4B0B0008DF032070DF0320B4DF03204A
:10575C001CDF0320000000000000000049510B007A
:10576C0053510B005D510B0067510B0071510B0035
:10577C007D510B0089510B0091510B0099510B007D
:10578C00A5510B00AD510B00B7510B00DD520B00B6
:10579C00C1510B00C9510B00005245454E54206DB0
:1057AC00616C6C6F6320737563636565646564001D
:1057BC002F6D6E742F776F726B73706163652F77BB
:1057CC006F726B73706163652F4743432D31302DBE
:1057DC00706970656C696E652F6A656E6B696E7346
:1057EC002D4743432D31302D706970656C696E65A2
:1057FC002D34385F32303230313132345F31363023
:10580C00363138303634312F7372632F6E65776CC6
:10581C0069622F6E65776C69622F6C6962632F7396
:10582C0074646C69622F72616E642E6300000000F8
:10583C0049490B005D490B00E9490B00FD490B0080
:10584C00214A0B00A54B0B00B54B0B00C94B0B00B1
:0C585C00C54F0B002D510B00F1520B004A
:10586800040000001400000003000000474E55002B
:105878001622E0CA3CE97B80B079B7467B6A945827
:045888007282A72958
:10588C005C560B009CDE03200000000000000000B2
:10589C0000000000000000000000000000000000FC
:1058AC0000000000000000000000000000000000EC
:1058BC0000000000000000000000000000000000DC
:1058CC0000000000000000000000000000000000CC
:1058DC0000000000000000000000000000000000BC
:0858EC000000000000000000B4
:0458F40000000000B0
:1058FE0000000102030405060708090A0B0C0D0E31
:10590E000F101112131415161718191A1B1C1D1E21
:04591E001F2028001E
:04592200785634126D
:04000003B000401CED
:00000001FF
